:100000000C943B020C9463020C9463020C94630204
:100010000C9463020C9463020C9463020C946302CC
:100020000C9463020C9463020C949B0F0C940A10C2
:100030000C9463020C9463020C9463020C946302AC
:100040000C9463020C9463020C9463020C9463029C
:100050000C9463020C9463020C9463020C94510F91
:100060000C9463020C9463020C9463020C9463027C
:100070000C9463020C9463020C9463020C9463026C
:100080000C9463020C9463020C9463020C9463025C
:100090000C9436120C9463020C9463020C94630269
:1000A0000C9463020C9463020C9463020000000041
:1000B0000000000000000000000000002A002B00EB
:1000C0002800000000000000000000000000000008
:1000D0000000000000000000000000000000000020
:1000E0000000000000000000000000002C001E02C4
:1000F00034022002210222022402340026022702B6
:1001000025022E0236002D003700380027001E0081
:100110001F002000210022002300240025002600CB
:100120003302330036022E00370238021F02040267
:10013000050206020702080209020A020B020C026B
:100140000D020E020F02100211021202130214021B
:10015000150216021702180219021A021B021C02CB
:100160001D022F003100300023022D023500040053
:10017000050006000700080009000A000B000C003B
:100180000D000E000F0010001100120013001400EB
:10019000150016001700180019001A001B001C009B
:1001A0001D002F0231023002350200000000000065
:1001B000000000000000000000000000000000003F
:1001C000000000000000000000000000000000002F
:1001D000000000000000000000000000000000001F
:1001E000000000000000000000000000000000000F
:1001F00000000000000000000000000000000000FF
:1002000000000000000000000000000000000000EE
:1002100000000000000000000000000000000000DE
:1002200000000000000000000000000000000000CE
:1002300000000000000000000000000000000000BE
:1002400000000000000000000000000000000000AE
:10025000000000000000000000000000000000009E
:10026000000000000000000000000000000000008E
:10027000000000000000000000000000000000007E
:10028000000000000000000000000000000000006E
:10029000000000000000000000000000000000005E
:1002A000000000000000000000000000050109023D
:1002B000A1010902A1020901A100050919012905ED
:1002C00015002501750195058102750395018103CE
:1002D0000501093009311581257F750895028106D0
:1002E000A1020948150025013501457875029501DF
:1002F000A4B102093816018026FF7F35004500753C
:10030000108106C0A1020948B4B10235004500754C
:1003100004B103050C0A380216018026FF7F751010
:100320008106C0C0C0C0080B000202020000090420
:100330000000010202000005240010010524010153
:1003400001042402060524060001070581031000AC
:100350004009040100020A000000070502024000F3
:100360000007058302400000040309041201000293
:10037000EF02014041233780000101020301417275
:100380006475696E6F204C4C430041726475696EF0
:100390006F204D6963726F00000000002400270089
:1003A0002A002D00300000000000250028002B004E
:1003B0002E003100000000002300260029002C0040
:1003C0002F000404040404030405020202020403CF
:1003D00002020202060606060606040402020204DF
:1003E0000404080201104080401020408040800832
:1003F00002040180402010020110801020404020A3
:100400000000000200090F0000030401000C0000BE
:1004100000000000000000000000000000000005D7
:10042000010906A1018502050719E029E715002544
:1004300001750195088102050C95017508150026C6
:10044000FF00190029FF81000507950675081500B2
:1004500026E700190029E78100C0050C0901A10168
:100460008504150026FF0319002AFF039504751063
:100470008100C000551311241FBECFEFDAE0DEBFAC
:10048000CDBF11E0A0E0B1E0E6EAF6E302C00590DE
:100490000D92A03AB107D9F723E0A0EAB1E001C07C
:1004A0001D92AB38B207E1F712E0CBE3D2E004C013
:1004B0002197FE010E94421BCA33D107C9F70E944F
:1004C00027140C94511B0C940000FC0180916B02CA
:1004D000882311F13FB7F89482E08093E9002091DE
:1004E000F200822F90E01816190614F481E090E0D3
:1004F000882339F0289A44E640936A024091F1003B
:100500004083222339F02091F200211103C02BE611
:100510002093E8003FBF08958FEF9FEF089581502B
:100520008F3008F047C0E82FF0E0E756FD4F0C94FD
:10053000421BB602BA02A802AE02B202DA02DA0224
:10054000DA02BD02C302C702CB02D102DA02D5022F
:10055000809180008F778093800008958091800043
:100560008F7DF9CF80918000877FF5CF84B58F771D
:1005700084BD089584B58F7DFBCF809190008F77E7
:10058000809390000895809190008F7DF9CF8091A5
:100590009000877FF5CF8091C0008F778093C00057
:1005A00008958091C0008F7DF9CF8091C200877F30
:1005B0008093C2000895CF93DF93282F30E0F90194
:1005C000E050FC4F8491F901EF51FC4FD491F901B7
:1005D000EE53FC4FC491CC23A1F081110E948F02F5
:1005E000EC2FF0E0EE0FFF1FEC54FC4FA591B491FF
:1005F000EC91ED2381E090E009F480E0DF91CF9170
:10060000089580E090E0FACF1F93CF93DF93282FD7
:1006100030E0F901E050FC4F8491F901EF51FC4FBB
:10062000D491F901EE53FC4FC491CC23A9F0162FBD
:1006300081110E948F02EC2FF0E0EE0FFF1FEA55B0
:10064000FC4FA591B4918FB7F894EC91111108C0AB
:10065000D095DE23DC938FBFDF91CF911F9108955A
:10066000DE2BF8CFCF93DF9390E0FC01EF51FC4FEE
:1006700024918E539C4FFC0184918823C9F090E013
:10068000880F991FFC01E856FC4FA591B491FC011D
:10069000EA55FC4FC591D49161110DC09FB7F894F4
:1006A0008C91209582238C938881282328839FBF57
:1006B000DF91CF910895623051F49FB7F8943C9147
:1006C000822F809583238C93E8812E2BEFCF8FB7D9
:1006D000F894EC912E2B2C938FBFEACF3FB7F89470
:1006E0008091660290916702A0916802B0916902C0
:1006F00026B5A89B05C02F3F19F00196A11DB11D7D
:100700003FBFBA2FA92F982F8827BC01CD01620FB8
:10071000711D811D911D42E0660F771F881F991F73
:100720004A95D1F708958F929F92AF92BF92CF9240
:10073000DF92EF92FF924B015C010E946E036B010E
:100740007C010E946E036C197D098E099F09683E29
:10075000734081059105A8F321E0821A9108A10850
:10076000B10888EEC80E83E0D81EE11CF11C81148C
:100770009104A104B10429F7FF90EF90DF90CF908E
:10078000BF90AF909F908F9008952FB7F89460918D
:1007900062027091630280916402909165022FBFA2
:1007A0000895CF93DF93EC01862F688391E09983BE
:1007B00062E00E94320388810E94DB0221E0892BE3
:1007C00009F420E02B832A830E94C5036C837D8378
:1007D0008E839F83188619861A861B861C861D8623
:1007E000DF91CF9108950F931F938091EC0288239E
:1007F000B1F00E94C5030091ED021091EE0220912C
:10080000EF023091F002601B710B820B930B97FD8E
:1008100006C060E085E00E9404031092EC021F9184
:100820000F9108958091160290911502891B990BE2
:1008300008950895089540910B0250910C02209163
:10084000090230910A0242175307B4F49091E8006C
:100850009570E1F39091E80092FD19C08093F1004A
:1008600080910B0290910C0201968F739927892B2E
:1008700019F48EEF8093E80080910B0290910C02A6
:10088000019690930C0280930B0281E0089580E022
:100890000895EF92FF920F931F93CF93DF93F82E5B
:1008A000192FE62E042F81E0860F880F0E941B046B
:1008B00083E00E941B04CF2DD12FEC0EFD2EF11CE6
:1008C000CE15DF05B9F007FF13C0FE0184910E9429
:1008D0001B04182F80E00E941B04812321968111A4
:1008E000EFCFDF91CF911F910F91FF90EF9008957F
:1008F0008881EDCF81E0F5CFDF92EF92FF920F93E9
:100900001F93CF93DF93D82E8A01EB017B01E40E76
:10091000F51ECE15DF0559F0D7FE12C0FE018491F9
:100920000E941B0421968111F4CF0FEF1FEFC80125
:10093000DF91CF911F910F91FF90EF90DF9008957D
:100940008881EECF2FB7F89487708093E90090915B
:10095000E800892F807295FF04C09091F20080E436
:10096000891B2FBF08957F928F929F92AF92BF9263
:10097000CF92DF92EF92FF920F931F93CF93DF936B
:10098000C82E8B017A0180916B02811110C08FEF0C
:100990009FEFDF91CF911F910F91FF90EF90DF902C
:1009A000CF90BF90AF909F908F907F90089580914F
:1009B0000F0280FF05C08091E00082608093E0001C
:1009C000CE2DDF2DD12C8AEFB82E8C2D8770982E4E
:1009D0008C2D8072882E8C2D8074782E9AE3A92E0F
:1009E000209719F4DD2009F452C08C2D0E94A20436
:1009F00081110AC0BA94BB2051F261E070E080E03E
:100A000090E00E949303ECCF8C171D0611F00CF0C0
:100A10008C2F9FB7F8949092E9002091E80025FD73
:100A200002C09FBFDDCF282F30E0C21BD30B882030
:100A300029F08150A0F01092F100FBCFF801C7FC23
:100A40000AC0815050F041914093F100FACF449197
:100A50004093F10031968150D0F7020F131FDD2033
:100A600021F0A092E800D12CDCCF8091E80085FD38
:100A700007C0A092E800DD24D394209791F2F3CF31
:100A8000209779F6772069F2A092E800CACF5D9AA4
:100A900084E680930E02C7017CCFCF93DF9300D012
:100AA00000D000D01F92CDB7DEB79091820389832A
:100AB0001A826B834C835D832E833F8347E050E033
:100AC000BE016F5F7F4F892F80640E94B304279619
:100AD0000FB6F894DEBF0FBECDBFDF91CF91089562
:100AE000615030F02091F100FC0120830196F8CF95
:100AF000289A84E680936A020895AF92BF92DF92AB
:100B0000EF92FF920F931F93CF93DF935C018B01C2
:100B1000EB019BEFD92E7E01C134D1051CF080E49E
:100B2000E82EF12C8091E80082FFFCCFC8018C1BDD
:100B30009D0B6E2D8A0D9B1D0E947005D092E800C2
:100B4000CE19DF0941F7C801DF91CF911F910F91B5
:100B5000FF90EF90DF90BF90AF900895AF92BF925B
:100B6000CF92DF92EF92FF920F931F93CF93DF9379
:100B70006C017B018B01040F151FEB015E01AE18A8
:100B8000BF08C017D10759F06991D601ED91FC91CA
:100B90000190F081E02DC6010995892B79F7C501F7
:100BA000DF91CF911F910F91FF90EF90DF90CF9049
:100BB000BF90AF9008958091010281110DC082E035
:100BC0008093FD0184E08093FE0110920002109258
:100BD000FF0181E0809301028DEF91E008950F9372
:100BE0001F93CF93DF931F92CDB7DEB782E0898347
:100BF00042E450E066E273E080E80E947C040E94D8
:100C0000DB05DC0112960D911C910115110589F08F
:100C1000D801ED91FC910280F381E02DBE016F5F60
:100C20007F4FC801099597FD04C0F8010085118523
:100C3000ECCF89810F90DF91CF911F910F91089593
:100C4000CF93DF93FC01DB01818114963C911497D3
:100C5000682F630F7727771F683071059CF5C28175
:100C6000D381209739F5B383A283908112969C9308
:100C7000129713968C93139715968C911597890F4D
:100C8000808390E080E0831708F52181C22FD0E0B7
:100C9000BE0160507F4F16964D915C911797480F9B
:100CA000591FEA014881EB0148832F5F2183019698
:100CB000EACFEA014885598541155105D1F7B98731
:100CC000A887D3CF80E0DF91CF91089581E0FBCF5B
:100CD000CF93DF93EC0180911201882331F083E000
:100CE0000E94B3041816190634F081E090E09B834B
:100CF0008A8380E090E0DF91CF910895CF93DF93D6
:100D00001F92CDB7DEB76983DC01ED91FC910280C3
:100D1000F381E02D41E050E0BE016F5F7F4F099508
:100D20000F90DF91CF91089583E08093E900809147
:100D3000F200882319F08AE38093E800089583E0A5
:100D40000E94A20490E00895CF93DF931F92CDB745
:100D5000DEB7FC018485958597FD08C02FEF3FEF36
:100D6000358724870F90DF91CF910895CE010196AA
:100D70000E946502019719F4898190E0F3CF8FEF0B
:100D80009FEFF0CF0F931F93CF93DF931F92CDB7B9
:100D9000DEB78C01FC018485958597FF0BC0CE01E1
:100DA00001960E946502019771F4898190E0F80133
:100DB00095878487F801848595850F90DF91CF9181
:100DC0001F910F9108958FEF9FEFF1CFFC01848564
:100DD000958597FD0BC09FB7F89482E08093E9005A
:100DE0008091F2009FBF90E0019608959FB7F8941C
:100DF00082E08093E9008091F2009FBF90E0089527
:100E00000895DC01FB0112962C9112978481958143
:100E10002817190641F491818081813A31F49D7F30
:100E200081E0913009F080E008958132E1F79B3054
:100E300029F482811F968C9381E008959A3099F766
:100E4000828150968C93F8CFAF92BF92CF92DF926F
:100E5000EF92FF920F931F93CF93DF931F92CDB723
:100E6000DEB77C0169836A01590141E050E0BE01AF
:100E70006F5F7F4FFC0183810E94B3048C0197FD5B
:100E80000BC0F7018381A501B60180640E94B30401
:100E9000080F191F97FD8C01C8010F90DF91CF91AA
:100EA0001F910F91FF90EF90DF90CF90BF90AF9088
:100EB0000895DC01FB0188E4808389E4818384E474
:100EC00082831D969C911D979F709F5B93831D96B7
:100ED0008D919C9124E0969587952A95E1F78F70E6
:100EE0008F5B848385E00895EF92FF920F931F93A9
:100EF000CF93DF93FB012081213871F523812232CA
:100F000059F5DC0112964C91248135814217130664
:100F100019F5EC010B851C85F12CE12C011511054F
:100F200089F0F801448155816281738180E80E94D3
:100F30007C048F3F980749F0E80EF91ED8010D9107
:100F40001C91ECCF81E08F87C701DF91CF911F917A
:100F50000F91FF90EF90089590E080E0F6CFCF934F
:100F6000DF93CDB7DEB769970FB6F894DEBF0FBE3B
:100F7000CDBFFC01DB018C918F5F8C939E012D5FB7
:100F80003F4F8DE0D9011D928A95E9F729E0298329
:100F900084E08A8391E09D8383E08E832A8721E227
:100FA0002B879C879D879F8722E2288B27E02B8BAE
:100FB00025E02C8B8E8B20E430E0388F2F8B998F9F
:100FC00082818B8395858685998B8A8B83818068C6
:100FD0008D8B49E150E0BE016F5F7F4F80E00E9442
:100FE0007C0469960FB6F894DEBF0FBECDBFDF91CB
:100FF000CF910895CF938091F50181112CC0C1E06C
:10100000C093E801C093E9018EEE91E09093EB016B
:101010008093EA011092ED011092EC0180E591E0DD
:101020009093E5018093E4011092F0011092EF019A
:101030001092F2011092F101C093F301C093F401F8
:1010400081EC8093EE010E94DB0564EE71E00E946A
:101050002006C093F50184EE91E0CF910895CF93DF
:10106000DF93EC010E94FA07AE014C5F5F4F28E06E
:1010700030E062E0DF91CF910C9424070F931F932F
:10108000CF93DF93EB018A010E94FA079801AE012A
:1010900064E0DF91CF911F910F910C942407209170
:1010A000C101260F3327331F21323105ECF4209183
:1010B000E602FC0190E080E0243069F082E00895CF
:1010C000A091C1012191AC014F555E4FA40FB52FE6
:1010D000B11D2C930196861798F38091C101680F7A
:1010E0006093C10180E0089581E008951092E602C6
:1010F00081E08093C5021092C00261E082E00E940C
:10110000040361E083E00E940403E9EBF0E08081E6
:101110008E7F808380818D7F808388E48093B80078
:1011200085E48093BC000895CF93DF9391E0909382
:10113000A0018823B9F0C091B800D091BA00809185
:10114000BC008A7B8093BC0060E082E00E940403C4
:1011500060E083E00E9404030E947608D093BA0006
:10116000C093B800DF91CF910895CF92DF92EF92B4
:10117000FF920F931F93CF93C82F813208F096C030
:101180000E946E036B017C018091E602811169C0AF
:1011900081E08093E6028093C5029FEF9093C402A2
:1011A0001092C3029C0F9093C2028093C10280915F
:1011B000C1028C668093C1028091C002813009F027
:1011C00077C01092C0020E946E036B017C01809177
:1011D000C1028093BB008091E8029091E902A09146
:1011E000EA02B091EB02892B8A2B8B2BA1F00E9493
:1011F0006E030091E8021091E9022091EA02309119
:10120000EB026C197D098E099F090617170728073D
:10121000390708F447C08091BC0083FDD8CF85EC26
:101220008093BC000E946E036B017C018091E602FA
:10123000813009F43FC08091C3028C1710F4C09133
:10124000C302A0EAB2E0E6ECF2E080E08C1354C006
:101250008C2FCF911F910F91FF90EF90DF90CF9047
:1012600008958091E8029091E902A091EA02B0917C
:10127000EB02892B8A2B8B2B09F486CF0E946E03FD
:101280000091E8021091E9022091EA023091EB020C
:101290006C197D098E099F0906171707280739075A
:1012A00008F072CF8091E7020E949408C0E0D0CF8E
:1012B00085EEB6CF8091E8029091E902A091EA0212
:1012C000B091EB02892B8A2B8B2B09F4AFCF0E94B4
:1012D0006E030091E8021091E9022091EA02309138
:1012E000EB026C197D098E099F090617170728075D
:1012F000390708F09BCFD6CF9D9191938F5FA6CFF2
:101300008F929F92AF92BF92CF92DF92EF92FF9215
:101310000F931F93CF93DF93D0919F02D13208F0A8
:10132000D7C0182FC0919E020E946E036B017C01F2
:101330008091E60281116BC082E08093E6021093F7
:10134000C5028FEF8093C4021092C302D093C202F1
:10135000AEE7B2E0E0EAF2E080E0D81391C010928C
:10136000C1028091C102CC0FC82BC093C1028091F1
:10137000C002813009F088C01092C0020E946E0342
:101380006B017C018091C1028093BB008091E802D7
:101390009091E902A091EA02B091EB02892B8A2B8D
:1013A0008B2BA1F00E946E030091E8021091E902DC
:1013B0002091EA023091EB026C197D098E099F0998
:1013C000061717072807390708F442C08091BC00A8
:1013D00083FDD8CF85EC8093BC000E946E036B0127
:1013E0007C018091E602823009F450C08091C402F1
:1013F0008F3F09F46FC08091C402803209F46CC041
:101400008091C402803309F469C084E026C08091D1
:10141000E8029091E902A091EA02B091EB02892BD7
:101420008A2B8B2B09F484CF0E946E038090E802F4
:101430009090E902A090EA02B090EB026C197D094D
:101440008E099F0986169706A806B90608F070CF80
:101450008091E7020E94940885E010927D0210922C
:101460009F0210927C02DF91CF911F910F91FF900C
:10147000EF90DF90CF90BF90AF909F908F900895A6
:101480009D9191938F5F69CF85EEA5CF8091E80202
:101490009091E902A091EA02B091EB02892B8A2B8C
:1014A0008B2B09F49ECF0E946E030091E8021091ED
:1014B000E9022091EA023091EB026C197D098E0954
:1014C0009F09061717072807390708F08ACFC0CFEA
:1014D00081E0C3CF80E0C1CF82E0BFCF83E0BDCF4A
:1014E0000895E091150280911602E81730F4F0E0BB
:1014F000EA53FD4F808190E008958FEF9FEF0895AC
:1015000090911502809116022FEF3FEF981748F443
:10151000E92FF0E0EA53FD4F208130E09F5F909388
:101520001502C9010895CF92DF92EF92FF920F93B7
:101530001F93CF93DF937C01CB018A0120917C0222
:10154000222389F0EB016B01C40ED51ECC15DD05FD
:1015500069F06991D701ED91FC910190F081E02D46
:10156000C7010995F3CF642F0E944F08C801DF918E
:10157000CF911F910F91FF90EF90DF90CF90089542
:10158000CF93DF931F92CDB7DEB7698320917C02A2
:101590002223F9F020919F02203258F021E030E020
:1015A000FC013383228390E080E00F90DF91CF91A4
:1015B000089580917D02E82FF0E0E258FD4F998177
:1015C00090838F5F80937D0280939F0281E090E003
:1015D000ECCF61E0CE0101960E944F08F7CF90E07A
:1015E00080E00895823059F020F4813031F060E0DD
:1015F00007C0833051F08430D1F760E007C061E06C
:1016000080E10E94040360E005C061E080E10E9487
:10161000040361E088E00C940403CF93DF93CDB71B
:10162000DEB728970FB6F894DEBF0FBECDBF888710
:1016300086E0EDE3F1E0DE01119601900D928A95CE
:10164000E1F788858F8346E050E0BE016F5F7F4FF2
:1016500081EF92E00E94680641E050E0BE01685FC1
:101660007F4F81EF92E00E94680641E050E0BE01AA
:10167000695F7F4F81EF92E00E94680628960FB65F
:10168000F894DEBF0FBECDBFDF91CF910895CF9309
:10169000DF938F599F4FFC01C081D0E02097A9F1C3
:1016A000EBE6F3E090E080E0219131910196232B6D
:1016B00041F5880F991FFC01E759FC4FD183C08386
:1016C00048E050E06BE673E089E693E00E943E0854
:1016D000E9E6F3E081E793E022813381C217D30783
:1016E00011F41382128232968E179F07A9F748E0F1
:1016F00050E06BE673E089E693E0DF91CF910C94C4
:101700003E088430910581F6DBCFDF91CF910895BB
:10171000EF92FF921F93CF93DF9300D000D000D0C1
:101720001F92CDB7DEB77B01142F9FE4998392E51A
:101730009A8392E49B8399E59C8380688D834E8392
:10174000840F8F83442381F06115710569F0462F62
:10175000FB0130E020E09191290F311D9E2F941B59
:101760009117C8F3820F8F8346E050E0BE016F5F90
:101770007F4F81EF92E00E946806112351F0E1143F
:10178000F10439F0412F50E0B70181EF92E00E945F
:10179000680641E050E0BE01695F7F4F81EF92E053
:1017A0000E94680627960FB6F894DEBF0FBECDBF25
:1017B000DF91CF911F91FF90EF900895ECE6F2E05A
:1017C00081E0808311828283138288E790E0958391
:1017D00084838CE390E0978386838EE190E0918709
:1017E00080878AE090E09387828714861786168622
:1017F00015860895FC014281FB0124813581421741
:101800001306F9F4408131812381413A71F431307A
:10181000C1F42330B1F4BC01655F7F4F41E050E07B
:1018200080E00E947C0481E00895413251F4393017
:1018300041F4233031F461E070E00B960E947D05A5
:10184000F2CF80E00895FB018081813851F48381DB
:10185000823239F44AE750E06CEA72E080E80C9496
:101860007C0490E080E00895CF93DF93CDB7DEB79E
:1018700069970FB6F894DEBF0FBECDBFFC01DB0148
:101880009C919F5F9C939E012D5F3F4F87E1D90103
:101890001D928A95E9F729E0298384E08A8391E003
:1018A0009D8383E08E8332E038872A8721E22B876D
:1018B00021E12C879D879F8792E2988B9AE7998BED
:1018C00097E09B8B95E09C8B8E8B80E48F8B8AE0DE
:1018D000898F82818B83838180688D8B49E150E081
:1018E000BE016F5F7F4F80E00E947C0469960FB657
:1018F000F894DEBF0FBECDBFDF91CF910895FC01FC
:101900009C01285F3F4F90E080E0448141110196A7
:1019100014823196E217F307C1F708958FE493E03C
:101920000E947F0C892B21F08FE493E00C942F0808
:101930000895CF93DF93DC0190E2960F9830B0F4D6
:1019400014968C91149721E030E001C0220F9A95F3
:10195000EAF7442341F0282B14962C9381E090E081
:10196000DF91CF91089520952823F6CFFD0136967B
:101970004423D1F0CD010C96EF012991621771F348
:10198000C817D907D1F790E080E02191211105C057
:10199000A80FB91F16966C93E1CF0196863091057A
:1019A000A1F790E080E0DCCF90E080E0219162132D
:1019B00005C0A80FB91F16961C92D0CF019686308D
:1019C0009105A1F7EECFCF93DF9341E0682F8FE42D
:1019D00093E00E94990CEC01892B21F08FE493E0B5
:1019E0000E942F08CE01DF91CF910895CF92DF9210
:1019F000FF920F931F93CF93DF938C01F42EE62F6A
:101A0000F0E0EE0FFF1FE455FF4FC590D490D801D2
:101A1000ED91FC910484F585E02D6C2DC8010995AC
:101A2000EC01892B11F4F11070C0D0FE0CC0D8016C
:101A3000ED91FC910484F585E02D4F2D60EEC801F9
:101A40000995C82BD92BD1FE0CC0D801ED91FC9182
:101A50000484F585E02D4F2D61EEC8010995C82B52
:101A6000D92BD2FE0CC0D801ED91FC910484F585F0
:101A7000E02D4F2D62EEC8010995C82BD92BD3FE5E
:101A80000CC0D801ED91FC910484F585E02D4F2D1B
:101A900063EEC8010995C82BD92BD4FE0CC0D80120
:101AA000ED91FC910484F585E02D4F2D64EEC80185
:101AB0000995C82BD92BD5FE0CC0D801ED91FC910E
:101AC0000484F585E02D4F2D65EEC8010995C82BDE
:101AD000D92BD6FE0CC0D801ED91FC910484F5857C
:101AE000E02D4F2D66EEC8010995C82BD92BD7FEE6
:101AF0000CC0D801ED91FC910484F585E02D4F2DAB
:101B000067EEC8010995C82BD92BCE01DF91CF9183
:101B10001F910F91FF90DF90CF900895FF920F9348
:101B20001F93CF93DF93EC01F62E41E00E94F60C59
:101B30008C01892BA9F0E881F9810284F385E02DDD
:101B4000CE01099540E06F2DCE010E94F60C892B45
:101B500039F0E881F9810284F385E02DCE01099501
:101B6000C801DF91CF911F910F91FF900895FC0163
:101B700082818F5BFB01808381E008950F931F9327
:101B8000CF93DF938C0161E085E00E940403CCEEEB
:101B9000D2E081E088830E94C503600F711F811D20
:101BA000911D69837A838B839C83DF91CF911F91F1
:101BB0000F910895CF92DF92EF92FF920F931F93B0
:101BC000CF93DF93EC0188810E94DB0211E0892B27
:101BD00009F410E00E94C5032B81211729F01B8313
:101BE0006C837D838E839F830C811D812E813F8139
:101BF0006B017C01C01AD10AE20AF30A970186013F
:101C00000931110521053105B0F02B813A813217D8
:101C100091F02A833981332311F031E0232738856D
:101C2000222301F131110AC021E0288769877A87D0
:101C30008B879C871D862885222389F12D8521117C
:101C40002EC009851A852B853C85601B710B820B84
:101C5000930B6C3271408105910508F181E08D870D
:101C600083E012C03323D9F0188609851A852B85A5
:101C70003C85601B710B820B930B1D866C3271408F
:101C80008105910550F082E0DF91CF911F910F9176
:101C9000FF90EF90DF90CF90089581E0F5CF80E046
:101CA000F3CFFF920F931F93CF93DF930CE612E0D5
:101CB000D0E0C0E0F801F1908F01CE010E94071939
:101CC000F81621F06F2DCE010E940F192196C03118
:101CD000D10581F78CE692E0DF91CF911F910F91B2
:101CE000FF900895CF9381E080937C0286E38093F8
:101CF0009E0210927D0210929F026EE083E793E0B5
:101D00000E94C00A81E00E94800982E00E94B5081A
:101D10001092150280931602823030F480911702DF
:101D200090911802CF91089583E793E00E94800A72
:101D3000C82F83E793E00E94800A20E0822B9C2B2F
:101D40009F70F0CF0F931F93CF93DF93C091320218
:101D5000833009F45EC048F48130A1F18230B9F1DA
:101D6000DF91CF911F910F910895843009F457C0EE
:101D700004E010E08630A1F761E080E10E940403F6
:101D800061E088E00E94040386E490E00E94BE0DBA
:101D900068E770E080E090E00E9493030E94F30304
:101DA00060E080E10E94040360E088E00E94040398
:101DB00064E670E080E090E00E9493030150110916
:101DC000D9F60DC082E0C23039F580E025C0C330BD
:101DD000E9F083E08093320280EE0E94E30CD09120
:101DE0003202DC1709F4BCCF8D2F0E94F20A8CE876
:101DF00090E00E94BE0DC430B1F4D43009F4B0CFED
:101E0000DF91CF911F910F910C948E0C10923202A2
:101E1000E6CF84E0C430C9F280933202E0CF81E0A3
:101E2000C130D1F7D2CFC33009F09ACFD33041F7C8
:101E300097CF85ED8093BC008091E8029091E902F4
:101E4000A091EA02B091EB020796A11DB11D23E01B
:101E5000B695A795979587952A95D1F72091BC00BF
:101E600024FD03C01092E60208954091E8025091CB
:101E7000E9026091EA027091EB02452B462B472B59
:101E800069F30097A105B10541F02AE22A95F1F71F
:101E900000C00197A109B109E1CF8091E7020C943C
:101EA00094081F920F920FB60F9211242F933F9315
:101EB0008F939F93AF93BF9380916202909163023F
:101EC000A0916402B09165023091610223E0230F7A
:101ED0002D3758F50196A11DB11D20936102809305
:101EE000620290936302A0936402B09365028091B2
:101EF000660290916702A0916802B0916902019612
:101F0000A11DB11D8093660290936702A0936802A1
:101F1000B0936902BF91AF919F918F913F912F91A3
:101F20000F900FBE0F901F90189526E8230F029672
:101F3000A11DB11DD2CF1F920F920FB60F92112487
:101F40008F939F938091E1009091E100937F909314
:101F5000E10083FF0FC01092E90091E09093EB0045
:101F60001092EC0092E39093ED0010926B0298E0D7
:101F70009093F00082FF22C093E09093E90090914B
:101F8000F200992319F09AE39093E80090910E02E1
:101F9000992341F090910E02915090930E0291116D
:101FA00001C05D9890916A02992341F090916A0274
:101FB000915090936A02911101C0289884FF18C033
:101FC0008091E2008E7E81608093E2008091E1004A
:101FD0008F7E8093E10080910F028E7E80618093DE
:101FE0000F029F918F910F900FBE0F901F90189529
:101FF00080FFF7CF8091E2008E7E80618093E200C7
:102000008091E1008E7E8093E10080910F028E7EB0
:102010008160E5CF1F920F920FB60F921124CF92DD
:10202000DF92EF92FF920F931F932F933F934F9363
:102030005F936F937F938F939F93AF93BF93EF9330
:10204000FF93CF93DF93CDB7DEB76C97DEBFCDBFE5
:102050001092E9008091E80083FF25C068E0CE017E
:1020600045960E94700582EF8093E8008D8987FF76
:1020700039C09091E80090FFFCCF982F907609F03E
:1020800034C19E894F89588D2F89F88C911131C0A8
:10209000803861F5809110028093F1001092F10078
:1020A0008EEF8093E8006C960FB6F894DEBF0FBEFB
:1020B000CDBFDF91CF91FF91EF91BF91AF919F91F4
:1020C0008F917F916F915F914F913F912F911F91D0
:1020D0000F91FF90EF90DF90CF900F900FBE0F9079
:1020E0001F9018959EEF9093E800C7CF1092F100D3
:1020F000D5CF913059F48111D3CF4130510581F6BC
:10210000809110028D7F80931002CACF933049F4E2
:102110008111C6CF4130510519F6809110028260BD
:10212000F2CF953041F48091E80080FFFCCF206829
:102130002093E300B5CF963009F0A9C00B8D1C8D1C
:1021400022E01092E90010920C0210920B02F2129F
:102150002EC010920A02109209020E94EF051F82FF
:1021600099E09983FA8291E09E8390EA98879AEFAA
:10217000998720910B0230910C02275F3F4F3C83DF
:102180002B838D831092E90010920C0210920B02A7
:1021900010930A020093090249E050E0BE016F5F0C
:1021A0007F4F80E00E947C040E94EF0579CF10935E
:1021B0000A02009309020E94DB05DC0112960D91D0
:1021C0001C910115110509F44BC1D801ED91FC9149
:1021D0000480F581E02DBE016B5E7F4FC80109953B
:1021E000009709F038C1F80100851185EACFF3E0C6
:1021F000FF120EC08F89882309F440C0823061F439
:1022000040E86DE08AE893E00E944904811148CFDC
:1022100081E28093EB0047CF813029F440E86BE006
:102220008EE793E0F1CF833099F70E94DB05DC0164
:102230001296ED90FC908E010F5F1F4F6801E11424
:10224000F10479F0D701ED91FC910680F781E02D42
:10225000B801C7010995080F111DF701E084F18449
:10226000EECFD8011C92F60101900020E9F73197DA
:10227000BF016C197D0940E0C601C6CF68E673E076
:10228000FB01449150E080E80E947C0409CF973024
:1022900009F4BECF983021F481E08093F10000CFA3
:1022A000993009F0FDCE837009F0B2CFE1E0F1E0A2
:1022B00081E031E096E32191222371F08093E900DF
:1022C0003093EB00DF0111972C912093EC00909359
:1022D000ED008F5F873079F78EE78093EA001092E8
:1022E000EA008F8980936B02DBCE8B8D9C8D1092E0
:1022F000E90010920C0210920B0290930A02809354
:102300000902898D81118CC08E899D89913A49F489
:10231000813209F07DCF47E050E06BE071E080E072
:10232000B3CF913209F074CF833269F48F89988DDD
:10233000B0E0A0E08093070190930801A093090109
:10234000B0930A01ADCE803239F467E070E08BE0E3
:1023500091E00E947D05A4CE823209F0A1CE8F8942
:1023600080931201EEEFFFE7859194918B3F9C4D96
:1023700051F1E0E0F8E080910B0190910C01A09107
:102380000D01B0910E01803B9440A105B105F1F41F
:102390008091120180FD1AC0EE3F8AE0F80789F5AE
:1023A00087E797E7918380838091600080930D0297
:1023B00088E19BE00FB6F894A895809360000FBE6B
:1023C000909360006DCEEEEFFAE0D5CF80819181E1
:1023D0008737974709F064CEA8958091600088619F
:1023E0008093600080910D0280936000EE3F2AE0B0
:1023F000F20789F08091FE0A9091FF0A9183808311
:102400004FCE808191818737980751F29093FF0AD0
:102410008093FE0AC5CF1092FF0A1092FE0A40CEAA
:102420000E94DB05DC0112960D911C91011511052E
:1024300009F4EECED801ED91FC910190F081E02DF0
:10244000BE016B5E7F4FC8010995811129CEF8014D
:1024500000851185EBCF181619060CF421CED8CEC5
:10246000F1E0FF12C4CE6CE673E00ACF1F920F9228
:102470000FB60F9211242F933F934F935F936F9357
:102480007F938F939F93AF93BF93EF93FF9380912D
:10249000B900887F803609F44AC0F0F5883209F423
:1024A000A7C018F5803109F49BC0B8F4882309F45B
:1024B000F9C0883009F494C0FF91EF91BF91AF91BA
:1024C0009F918F917F916F915F914F913F912F914C
:1024D0000F900FBE0F901F901895883109F488C097
:1024E000803251F78093C40214C0803409F49DC037
:1024F00040F48033B9F38833F9F68093C40285EC55
:10250000B0C0803509F485C0883509F496C0883498
:1025100099F60E94190FD0CF883909F48CC038F58C
:10252000883729F050F4883611F0803729F683E097
:102530008093E6021092E30157C0883809F47BC00B
:10254000803919F0803809F0B7CF8091E3018032EB
:1025500008F071C0E091E30181E08E0F8093E30108
:102560008091BB00F0E0ED53FE4F80833DC0803B87
:1025700039F0E0F4803A09F479C0883A09F09CCF48
:1025800084E08093E6021092C2011092C101E091B2
:102590001302F091140209958091C10181110FC0BD
:1025A00081E08093C1011092A10109C0803C09F42F
:1025B000A6CF883C09F4A3CF883B09F07DCFE091FA
:1025C000C20181E08E0F8093C201F0E0EF55FE4F13
:1025D00080818093BB009091C2018091C10129C08C
:1025E0008091C1028093BB0085EC8093BC0064CFD6
:1025F0009091C3028091C202981758F5E091C302EE
:1026000081E08E0F8093C302F0E0E056FD4F8081A1
:10261000E9CFE091C30281E08E0F8093C3028091E5
:10262000BB00F0E0E056FD4F80839091C3028091A3
:10263000C2029817C8F285E8D8CFE091C30281E0C2
:102640008E0F8093C3028091BB00F0E0E056FD4FF7
:1026500080838091C50281115CCF81E08093C002AC
:1026600084EA8093BC001092E60226CF85EC80932A
:10267000BC001092E6028091E301803230F4E091D8
:10268000E301F0E0ED53FE4F10826091E30170E052
:10269000E0911102F091120283EC91E00995109201
:1026A000E3010ACF1092C40234CF1092F4021092C8
:1026B000F30288EE93E0A0E0B0E08093F5029093FF
:1026C000F602A093F702B093F8028CE591E09093A4
:1026D000F2028093F1028FEF9FEF9093FE028093BE
:1026E000FD0210925203109251038EE691E09093F6
:1026F000500380934F0380914703811113C01092C0
:102700004203109241038FE194E09093440380933D
:1027100043038BE390E0909346038093450381E06D
:10272000809347030E94FA07FC01A385B4851097A4
:1027300009F078C081E493E0948783878585968546
:102740002091450330914603820F931F968785871A
:1027500080E891E090936A0380936903809161031C
:10276000811113C010925C0310925B038AE594E020
:1027700090935E0380935D0389E190E09093600302
:1027800080935F0381E0809361030E94FA07FC015C
:10279000A385B485109709F050C08BE593E094872A
:1027A00083878585968520915F0330916003820F32
:1027B000931F96878587109276031092750388EE93
:1027C00093E0A0E0B0E08093770390937803A09328
:1027D0007903B0937A0386E891E090937403809331
:1027E000730381E0809383038093840329E833E0BB
:1027F00030938603209385031092880310928703F9
:1028000028E931E03093800320937F0380938A038B
:1028100081EC809389030E94DB056FE773E00C94E1
:102820002006DC018D919C9111970097D1F781E4EE
:1028300093E08D939C9382CFDC018D919C911197B5
:102840000097D1F78BE593E08D939C93AACFCF931C
:10285000DF93CDB7DEB762970FB6F894DEBF0FBE39
:10286000CDBF789484B5826084BD84B5816084BD19
:1028700085B5826085BD85B5816085BD80916E001E
:10288000816080936E00109281008091810082604F
:10289000809381008091810081608093810080918C
:1028A000800081608093800080919100826080939D
:1028B00091008091910081608093910080919000BF
:1028C0008160809390008091C10084608093C100FA
:1028D0008091C10082608093C1008091C1008160BD
:1028E0008093C1008091C30081608093C300809178
:1028F000C00082608093C0008091C200816080939C
:10290000C20080917A00846080937A0080917A007E
:10291000826080937A0080917A00816080937A004F
:1029200080917A00806880937A0010926B021092F6
:10293000100210920F028091D70081608093D7001F
:1029400080EA8093D80089B5806189BD89B58260AD
:1029500089BD09B400FEFDCF61E070E080E090E049
:102960000E9493038091D8008F7C80618093D8006F
:102970008091E000807F8093E0008091E1008E7E76
:102980008093E1008DE08093E200559A209A5D9853
:10299000289861E080E10E94320361E088E00E94B3
:1029A000320361E085E00E94320360E080E10E9432
:1029B000040360E088E00E94040360E085E00E9478
:1029C000040360E085E00E9404036AE08FE291E086
:1029D0000E94D10369E081E291E00E94D10364E0AA
:1029E00083E191E00E94D103109215021092160229
:1029F00010927D0210929F020E94760889E194E075
:102A000090931402809313028AE194E0909312024F
:102A1000809311020E94720E909318028093170205
:102A20001092190210921A0210921B0210921C02AC
:102A300010921D0210921E0210921F02109220028C
:102A40001092260210922702109228021092290258
:102A500010922A0210922B0210922C0210922D0238
:102A6000109225021092210210922202109223024B
:102A7000109224020E946E0360932E0270932F0224
:102A800080933002909331028FE493E00E947F0C98
:102A90008FE493E00E942F08EBE6F3E088E0DF018B
:102AA0001D928A95E9F748E050E0BF0189E693E07E
:102AB0000E943E0862E370E080E090E00E94930391
:102AC0001092320280E00E94F20A02E010E061E01F
:102AD00080E10E94040361E088E00E94040384E630
:102AE00090E00E94BE0D64E670E080E090E00E94FD
:102AF00093030E94F30360E080E10E94040360E01E
:102B000088E00E94040364E670E080E090E00E94A8
:102B1000930301301105F1F58E010F5F1F4FF12C6A
:102B2000E12C098B1A8BC7010E940719F8018193C8
:102B30008F01FFEFEF1AFF0A20E1E216F10499F787
:102B40008981813051F580E1E989FA89ACE6B2E00A
:102B500001900D928A95E1F78FEF9FEF9093FE021F
:102B60008093FD0220E0222E20E0322E37E0632EFB
:102B7000712C45E0442E512C8FE291E00E94DA0D39
:102B8000823019F1833071F0813081F481E00E944C
:102B9000A20E0CC001E010E09ACF0E94DE0B0E9452
:102BA000510EDACF80E590E00E94BE0D81E291E007
:102BB0000E94DA0D823009F452C1833041F0813035
:102BC00051F483E00E94A20E06C082E0E0CF80E5CF
:102BD00090E00E94BE0D83E191E00E94DA0D823008
:102BE00009F43FC1833021F480E590E00E94BE0DDE
:102BF0000E94F3030E946E03C0902E02D0902F0219
:102C0000E0903002F09031026C197D098E099F0925
:102C1000623876408105910508F46AC181E08093AD
:102C20007C02B6E3B0939E0210927D0210929F0246
:102C30006BE083E793E00E94C00A81E00E94800974
:102C4000811156C181E00E94B5081092150280934F
:102C50001602882309F44CC183E793E00E94800A9E
:102C60008F3F09F445C185FF43C1E2E8CE0EE6E09F
:102C7000DE1EE11CF11CC0922E02D0922F02E092C7
:102C80003002F09231020E94720E40911702509170
:102C90001802481B590B4130F8E05F070CF4E5C0FF
:102CA00050519093180280931702952F990F990B0A
:102CB0009A01492F592F692F792F892FA090190236
:102CC000B0901A02C0901B02D0901C02E0901D022E
:102CD000F0901E0200911F02109120020E94481BDA
:102CE0002093190230931A0240931B0250931C0246
:102CF00060931D0270931E0280931F029093200226
:102D0000A0902602B0902702C0902802D0902902FD
:102D1000E0902A02F0902B0200912C0210912D02DB
:102D20000E94481B209326023093270240932802DA
:102D30005093290260932A0270932B0280932C02F5
:102D400090932D02E0912502EF5FE0932502EA3097
:102D500008F4CEC00E94371A20E030E040E251E48F
:102D60000E948F194B015C012091210230912202B7
:102D700040912302509124020E941D196B017C0195
:102D80008092210290922202A0922302B092240209
:102D90001092260210922702109228021092290205
:102DA00010922A0210922B0210922C0210922D02E5
:102DB0001092250220E03EEF4FEF56E40E943D1BAB
:102DC00018160CF459C020E03EEF4FEF56ECC70147
:102DD000B6010E948A1987FD57C0C701B6010E943B
:102DE000011AAB016115710509F0A0C00E94C5036D
:102DF000009138021091390220913A0230913B0241
:102E0000601771078207930708F472C0C0903402FC
:102E1000D0903502E0903602F090370220E030E0AA
:102E2000A901C701B6010E948A19882309F460C06C
:102E300020E030E040E852E4C701B6010E943D1BAB
:102E400087FD2AC08AEE90E00E94470B20E030E028
:102E500040E852E4C701B6010E941D1933C084E066
:102E6000B1CE86E00E94A20EC3CE411528EF5207D4
:102E70000CF017CF505F15CFC12C9EEFD92EEE244A
:102E8000EA9496E4F92EA9CFC12C8EEFD82EEE2429
:102E9000EA9486ECF82EA1CF20E030E040E852EC36
:102EA000C701B6010E948A19181614F189EE90E044
:102EB0000E94470B20E030E040E852E4C701B60131
:102EC0000E941E196093340270933502809336027B
:102ED000909337020E94C5036F5F7F4F8F4F9F4FC4
:102EE000609338027093390280933A0290933B02C8
:102EF00081EF92E00E94E606892B09F481C181EFFF
:102F000092E00E94A406E0915F02F0916002E83036
:102F1000F10570F7E257F84E0C94421B00180B189D
:102F200014181918211828183E1852182091320226
:102F3000223009F44CC080F5222309F441C021302D
:102F4000B9F6072E000C880B990B0E943F1A2091AE
:102F500034023091350240913602509137020E947E
:102F60001E196B017C01C0923402D0923502E092AE
:102F70003602F09237020E94C50300913802109188
:102F8000390220913A0230913B02601771078207A3
:102F9000930708F04DCFACCF2330E9F0243009F08F
:102FA000A7CF20913302E5E0211101C0EBEF31E022
:102FB00023272093330230E020E06E2F81E004C00D
:102FC00030E020E060E080E00E944D0591CF9B0161
:102FD00050E040E0F7CF072E000C880B990B0E94C1
:102FE0003F1A20E030E040EA50E40E948F190E942E
:102FF000011A30E020E0AB01672B09F479CFE2CF72
:1030000021E030E08F3411F030E020E030936002B6
:1030100020935F026DCF823589F482E090E0909337
:10302000600280935F0264CF823441F483E090E0D9
:10303000F6CF893519F484E090E0F1CF90E080E09C
:10304000EECF80935E025092600240925F0250CFBA
:1030500080935D0210925C02813240F01092600217
:1030600010925F0281E00E940D0B42CF882319F07D
:1030700086E090E0D4CF87E090E0D1CFE0915C0291
:1030800091E09E0F90935C02F0E0E45CFD4F808342
:1030900080915D02981708F42BCF709260026092C5
:1030A0005F0226CF20915E0290915D02322F390F90
:1030B000ECE3F2E060E050E040E0961729F0719117
:1030C000470F511D6F5FF9CF340F831721F082E056
:1030D0000E940D0B34C02031B9F591118FC0809141
:1030E0006C02898380916D028A8380916E028B834A
:1030F00080916F028C8390917002809171029D8308
:103100008E8390917202809173029F838887909141
:1031100074028091750299878A87909176028091D6
:1031200077029B878C87809178028D871E861F8609
:10313000188A40E169897A8980E10E94880B10929F
:10314000600210925F02D4CE213109F040C090316C
:1031500009F054C080913C028130B9F580936C0233
:1031600080913D0280936D0280913E0280936E02B9
:1031700080913F0280936F028091400290914102C2
:103180009093710280937002809142029091430269
:103190009093730280937202809144029091450251
:1031A0009093750280937402809146029091470239
:1031B0009093770280937602809148028093780200
:1031C00040E070E060E081E1B8CF83E081CF223160
:1031D00051F4911113C00E94510E40E070E060E084
:1031E00080915E02AACF233149F4911107C00E9459
:1031F000DE0B40E070E060E083E19FCF84E068CFC9
:103200002114310409F4B8CC0E940000B5CCF9991E
:10321000FECF92BD81BDF89A992780B50895262FDB
:10322000F999FECF1FBA92BD81BD20BD0FB6F894AB
:10323000FA9AF99A0FBE019608955058BB27AA270B
:103240000E9435190C94031B0E94F51A38F00E9455
:10325000FC1A20F039F49F3F19F426F40C94E21A7A
:103260000EF4E095E7FB0C94DC1AE92F0E94141B86
:1032700058F3BA17620773078407950720F079F4AB
:10328000A6F50C94361B0EF4E0950B2EBA2FA02D4C
:103290000B01B90190010C01CA01A0011124FF2703
:1032A000591B99F0593F50F4503E68F11A16F040FE
:1032B000A22F232F342F4427585FF3CF46953795FD
:1032C0002795A795F0405395C9F77EF41F16BA0BC2
:1032D000620B730B840BBAF09150A1F0FF0FBB1F70
:1032E000661F771F881FC2F70EC0BA0F621F731FB9
:1032F000841F48F4879577956795B795F7959E3F16
:1033000008F0B0CF9395880F08F09927EE0F9795A6
:10331000879508950E94B81A08F481E008950E94E4
:10332000A3190C94031B0E94FC1A58F00E94F51A72
:1033300040F029F45F3F29F00C94DC1A51110C94F1
:10334000371B0C94E21A0E94141B68F39923B1F303
:10335000552391F3951B550BBB27AA2762177307BB
:10336000840738F09F5F5F4F220F331F441FAA1F4F
:10337000A9F335D00E2E3AF0E0E832D0915050400B
:10338000E695001CCAF72BD0FE2F29D0660F771FB9
:10339000881FBB1F261737074807AB07B0E809F09F
:1033A000BB0B802DBF01FF2793585F4F3AF09E3F24
:1033B000510578F00C94DC1A0C94371B5F3FE4F352
:1033C000983ED4F3869577956795B795F7959F5F67
:1033D000C9F7880F911D9695879597F90895E1E0B3
:1033E000660F771F881FBB1F621773078407BA0712
:1033F00020F0621B730B840BBA0BEE1F88F7E0956D
:1034000008950E94081A6894B1110C94371B08950E
:103410000E941C1B88F09F5798F0B92F9927B7512D
:10342000B0F0E1F0660F771F881F991F1AF0BA9568
:10343000C9F714C0B13091F00E94361BB1E0089575
:103440000C94361B672F782F8827B85F39F0B93F67
:10345000CCF3869577956795B395D9F73EF490951B
:103460008095709561957F4F8F4F9F4F089597FB83
:1034700016F40E94E51A0C947B1AE89409C097FB95
:103480003EF490958095709561957F4F8F4F9F4F3B
:103490009923A9F0F92F96E9BB279395F69587957F
:1034A00077956795B795F111F8CFFAF4BB0F11F442
:1034B00060FF1BC06F5F7F4F8F4F9F4F16C08823E9
:1034C00011F096E911C0772321F09EE8872F762F1F
:1034D00005C0662371F096E8862F70E060E02AF060
:1034E0009A95660F771F881FDAF7880F969587954C
:1034F00097F90895E894F92F96EBFF2381F01216BF
:1035000013061406440B9395F69587957795679562
:1035100057954040FF23B9F71BC09927089588238A
:1035200051F49850D2F7872B762F652F542F432FC5
:10353000322F20E0B1F3121613061406440B882331
:103540003AF09A95440F551F661F771F881FCAF7D8
:1035500055234AF4440F551F11F460FF04C06F5FF8
:103560007F4F8F4F9F4F880F9695879597F90895B6
:10357000990F0008550FAA0BE0E8FEEF1616170684
:10358000E807F907C0F012161306E407F50798F0EC
:10359000621B730B840B950B39F40A2661F0232B05
:1035A000242B252B21F408950A2609F4A140A69581
:1035B0008FEF811D811D089597F99F6780E870E066
:1035C00060E008959FEF80EC089590958095709548
:1035D000609550954095309521953F4F4F4F5F4FE7
:1035E0006F4F7F4F8F4F9F4F089500240A941616F8
:1035F000170618060906089500240A9412161306E1
:10360000140605060895092E0394000C11F488236E
:1036100052F0BB0F40F4BF2B11F460FF04C06F5F8A
:103620007F4F8F4F9F4F089557FD9058440F551F60
:1036300059F05F3F71F04795880F97FB991F61F034
:103640009F3F79F087950895121613061406551FAB
:10365000F2CF4695F1DF08C0161617061806991F17
:10366000F1CF86957105610508940895E894BB270C
:1036700066277727CB0197F908950E94B81A08F4B6
:103680008FEF0895EE0FFF1F0590F491E02D099440
:103690002A0D3B1D4C1D5D1D6E1D7F1D801F911F42
:0636A0000895F894FFCF2D
:1036A60000C18081000000FFFFFFFF00E100000075
:1036B6000000000001010100000000000000000001
:1036C60000000101010000000000000000000000F1
:1036D600010101000000000000000000004F5242FE
:1036E60059FF01E2000000000000E9EA00000000C6
:1036F6000107AF0774075907000000007E06680639
:103706009F069406E606A406C206000000008E0D7B
:10371600AE05EF0A00077F0C2F08990C0000000089
:103726003E0800000000C00A930AEF0A700A12045D
:10373600800A710A00000000FA0B340C230CB70D46
:00000001FF
