:100000000C943B020C9463020C9463020C94630204
:100010000C9463020C9463020C9463020C946302CC
:100020000C9463020C9463020C94DA0F0C94491044
:100030000C9463020C9463020C9463020C946302AC
:100040000C9463020C9463020C9463020C9463029C
:100050000C9463020C9463020C9463020C94900F52
:100060000C9463020C9463020C9463020C9463027C
:100070000C9463020C9463020C9463020C9463026C
:100080000C9463020C9463020C9463020C9463025C
:100090000C9475120C9463020C9463020C9463022A
:1000A0000C9463020C9463020C9463020000000041
:1000B0000000000000000000000000002A002B00EB
:1000C0002800000000000000000000000000000008
:1000D0000000000000000000000000000000000020
:1000E0000000000000000000000000002C001E02C4
:1000F00034022002210222022402340026022702B6
:1001000025022E0236002D003700380027001E0081
:100110001F002000210022002300240025002600CB
:100120003302330036022E00370238021F02040267
:10013000050206020702080209020A020B020C026B
:100140000D020E020F02100211021202130214021B
:10015000150216021702180219021A021B021C02CB
:100160001D022F003100300023022D023500040053
:10017000050006000700080009000A000B000C003B
:100180000D000E000F0010001100120013001400EB
:10019000150016001700180019001A001B001C009B
:1001A0001D002F0231023002350200000000000065
:1001B000000000000000000000000000000000003F
:1001C000000000000000000000000000000000002F
:1001D000000000000000000000000000000000001F
:1001E000000000000000000000000000000000000F
:1001F00000000000000000000000000000000000FF
:1002000000000000000000000000000000000000EE
:1002100000000000000000000000000000000000DE
:1002200000000000000000000000000000000000CE
:1002300000000000000000000000000000000000BE
:1002400000000000000000000000000000000000AE
:10025000000000000000000000000000000000009E
:10026000000000000000000000000000000000008E
:10027000000000000000000000000000000000007E
:10028000000000000000000000000000000000006E
:10029000000000000000000000000000000000005E
:1002A000000000000000000000000000050109023D
:1002B000A1010902A1020901A100050919012905ED
:1002C00015002501750195058102750395018103CE
:1002D0000501093009311581257F750895028106D0
:1002E000A1020948150025013501457875029501DF
:1002F000A4B102093816018026FF7F35004500753C
:10030000108106C0A1020948B4B10235004500754C
:1003100004B103050C0A380216018026FF7F751010
:100320008106C0C0C0C0080B000202020000090420
:100330000000010202000005240010010524010153
:1003400001042402060524060001070581031000AC
:100350004009040100020A000000070502024000F3
:100360000007058302400000040309041201000293
:10037000EF02014041233780000101020301417275
:100380006475696E6F204C4C430041726475696EF0
:100390006F204D6963726F00000000002400270089
:1003A0002A002D00300000000000250028002B004E
:1003B0002E003100000000002300260029002C0040
:1003C0002F000404040404030405020202020403CF
:1003D00002020202060606060606040402020204DF
:1003E0000404080201104080401020408040800832
:1003F00002040180402010020110801020404020A3
:100400000000000200090F0000030401000C0000BE
:1004100000000000000000000000000000000005D7
:10042000010906A1018502050719E029E715002544
:1004300001750195088102050C95017508150026C6
:10044000FF00190029FF81000507950675081500B2
:1004500026E700190029E78100C0050C0901A10168
:100460008504150026FF0319002AFF039504751063
:100470008100C000941311241FBECFEFDAE0DEBF6D
:10048000CDBF11E0A0E0B1E0EEEAF7E302C00590D5
:100490000D92AC3CB107D9F723E0ACECB1E001C060
:1004A0001D92A73BB207E1F712E0CBE3D2E004C014
:1004B0002197FE010E94C61BCA33D107C9F70E94CB
:1004C00066140C94D51B0C940000FC0180919702DB
:1004D000882311F13FB7F89482E08093E9002091DE
:1004E000F200822F90E01816190614F481E090E0D3
:1004F000882339F0289A44E6409396024091F1000F
:100500004083222339F02091F200211103C02BE611
:100510002093E8003FBF08958FEF9FEF089581502B
:100520008F3008F047C0E82FF0E0E756FD4F0C94FD
:10053000C61BB602BA02A802AE02B202DA02DA02A0
:10054000DA02BD02C302C702CB02D102DA02D5022F
:10055000809180008F778093800008958091800043
:100560008F7DF9CF80918000877FF5CF84B58F771D
:1005700084BD089584B58F7DFBCF809190008F77E7
:10058000809390000895809190008F7DF9CF8091A5
:100590009000877FF5CF8091C0008F778093C00057
:1005A00008958091C0008F7DF9CF8091C200877F30
:1005B0008093C2000895CF93DF93282F30E0F90194
:1005C000E050FC4F8491F901EF51FC4FD491F901B7
:1005D000EE53FC4FC491CC23A1F081110E948F02F5
:1005E000EC2FF0E0EE0FFF1FEC54FC4FA591B491FF
:1005F000EC91ED2381E090E009F480E0DF91CF9170
:10060000089580E090E0FACF1F93CF93DF93282FD7
:1006100030E0F901E050FC4F8491F901EF51FC4FBB
:10062000D491F901EE53FC4FC491CC23A9F0162FBD
:1006300081110E948F02EC2FF0E0EE0FFF1FEA55B0
:10064000FC4FA591B4918FB7F894EC91111108C0AB
:10065000D095DE23DC938FBFDF91CF911F9108955A
:10066000DE2BF8CFCF93DF9390E0FC01EF51FC4FEE
:1006700024918E539C4FFC0184918823C9F090E013
:10068000880F991FFC01E856FC4FA591B491FC011D
:10069000EA55FC4FC591D49161110DC09FB7F894F4
:1006A0008C91209582238C938881282328839FBF57
:1006B000DF91CF910895623051F49FB7F8943C9147
:1006C000822F809583238C93E8812E2BEFCF8FB7D9
:1006D000F894EC912E2B2C938FBFEACF3FB7F89470
:1006E0008091920290919302A0919402B091950210
:1006F00026B5A89B05C02F3F19F00196A11DB11D7D
:100700003FBFBA2FA92F982F8827BC01CD01620FB8
:10071000711D811D911D42E0660F771F881F991F73
:100720004A95D1F708958F929F92AF92BF92CF9240
:10073000DF92EF92FF924B015C010E946E036B010E
:100740007C010E946E036C197D098E099F09683E29
:10075000734081059105A8F321E0821A9108A10850
:10076000B10888EEC80E83E0D81EE11CF11C81148C
:100770009104A104B10429F7FF90EF90DF90CF908E
:10078000BF90AF909F908F9008952FB7F89460918D
:100790008E0270918F0280919002909191022FBFF2
:1007A0000895CF93DF93EC01862F688391E09983BE
:1007B00062E00E94320388810E94DB0221E0892BE3
:1007C00009F420E02B832A830E94C5036C837D8378
:1007D0008E839F83188619861A861B861C861D8623
:1007E000DF91CF9108950F931F9380911803882371
:1007F000B1F00E94C5030091190310911A032091D2
:100800001B0330911C03601B710B820B930B97FD34
:1008100006C060E085E00E940403109218031F9157
:100820000F9108950895089540913702509138022C
:10083000209135023091360242175307B4F490915B
:10084000E8009570E1F39091E80092FD19C0809363
:10085000F100809137029091380201968F739927A9
:10086000892B19F48EEF8093E800809137029091E4
:1008700038020196909338028093370281E0089500
:1008800080E00895EF92FF920F931F93CF93DF9331
:10089000F82E192FE62E042F81E0860F880F0E9474
:1008A000140483E00E941404CF2DD12FEC0EFD2EF2
:1008B000F11CCE15DF05B9F007FF13C0FE018491CE
:1008C0000E941404182F80E00E94140481232196B2
:1008D0008111EFCFDF91CF911F910F91FF90EF909A
:1008E00008958881EDCF81E0F5CFDF92EF92FF92FE
:1008F0000F931F93CF93DF93D82E8A01EB017B01D7
:10090000E40EF51ECE15DF0559F0D7FE12C0FE012C
:1009100084910E94140421968111F4CF0FEF1FEFF0
:10092000C801DF91CF911F910F91FF90EF90DF9061
:1009300008958881EECF2FB7F89487708093E900EF
:100940009091E800892F807295FF04C09091F20089
:1009500080E4891B2FBF08957F928F929F92AF9260
:10096000BF92CF92DF92EF92FF920F931F93CF939C
:10097000DF93C82E8B017A0180919702811110C0FC
:100980008FEF9FEFDF91CF911F910F91FF90EF902D
:10099000DF90CF90BF90AF909F908F907F90089501
:1009A00080913B0280FF05C08091E00082608093CF
:1009B000E000CE2DDF2DD12C8AEFB82E8C2D877044
:1009C000982E8C2D8072882E8C2D8074782E9AE330
:1009D000A92E209719F4DD2009F452C08C2D0E9415
:1009E0009B0481110AC0BA94BB2051F261E070E00F
:1009F00080E090E00E949303ECCF8C171D0611F06D
:100A00000CF08C2F9FB7F8949092E9002091E800A9
:100A100025FD02C09FBFDDCF282F30E0C21BD30BC6
:100A2000882029F08150A0F01092F100FBCFF8014E
:100A3000C7FC0AC0815050F041914093F100FACFB9
:100A400044914093F10031968150D0F7020F131F6B
:100A5000DD2021F0A092E800D12CDCCF8091E800CD
:100A600085FD07C0A092E800DD24D394209791F281
:100A7000F3CF209779F6772069F2A092E800CACFE9
:100A80005D9A84E680933A02C7017CCFCF93DF93CF
:100A900000D000D000D01F92CDB7DEB79091AE034A
:100AA00089831A826B834C835D832E833F8347E067
:100AB00050E0BE016F5F7F4F892F80640E94AC04BD
:100AC00027960FB6F894DEBF0FBECDBFDF91CF9152
:100AD0000895615030F02091F100FC0120830196CF
:100AE000F8CF289A84E6809396020895AF92BF9239
:100AF000DF92EF92FF920F931F93CF93DF935C01EE
:100B00008B01EB019BEFD92E7E01C134D1051CF086
:100B100080E4E82EF12C8091E80082FFFCCFC80130
:100B20008C1B9D0B6E2D8A0D9B1D0E946905D0921A
:100B3000E800CE19DF0941F7C801DF91CF911F917D
:100B40000F91FF90EF90DF90BF90AF900895AF921C
:100B5000BF92CF92DF92EF92FF920F931F93CF93AA
:100B6000DF936C017B018B01040F151FEB015E010C
:100B7000AE18BF08C017D10759F06991D601ED91A1
:100B8000FC910190F081E02DC6010995892B79F740
:100B9000C501DF91CF911F910F91FF90EF90DF90F2
:100BA000CF90BF90AF90089580912D0281110DC01C
:100BB00082E08093290284E080932A0210922C0222
:100BC00010922B0281E080932D0289E292E0089539
:100BD0000F931F93CF93DF931F92CDB7DEB782E0C1
:100BE000898342E450E066E273E080E80E94750485
:100BF0000E94D405DC0112960D911C91011511057E
:100C000089F0D801ED91FC910280F381E02DBE01C5
:100C10006F5F7F4FC801099597FD04C0F8010085FB
:100C20001185ECCF89810F90DF91CF911F910F91AA
:100C30000895CF93DF93FC01DB01818114963C91F1
:100C40001497682F630F7727771F683071059CF51D
:100C5000C281D381209739F5B383A2839081129604
:100C60009C93129713968C93139715968C911597C6
:100C7000890F808390E080E0831708F52181C22FDF
:100C8000D0E0BE0160507F4F16964D915C91179752
:100C9000480F591FEA014881EB0148832F5F2183E8
:100CA0000196EACFEA014885598541155105D1F7EA
:100CB000B987A887D3CF80E0DF91CF91089581E0F5
:100CC000FBCFCF93DF93EC0180911201882331F0A9
:100CD00083E00E94AC041816190634F081E090E01D
:100CE0009B838A8380E090E0DF91CF910895CF933A
:100CF000DF931F92CDB7DEB76983DC01ED91FC91E4
:100D00000280F381E02D41E050E0BE016F5F7F4F34
:100D100009950F90DF91CF91089583E08093E900CA
:100D20008091F200882319F08AE38093E800089507
:100D300083E00E949B0490E00895CF93DF931F927D
:100D4000CDB7DEB7FC018485958597FD08C02FEFF0
:100D50003FEF358724870F90DF91CF910895CE0123
:100D600001960E946502019719F4898190E0F3CF02
:100D70008FEF9FEFF0CF0F931F93CF93DF931F92CF
:100D8000CDB7DEB78C01FC018485958597FF0BC03C
:100D9000CE0101960E946502019771F4898190E06D
:100DA000F80195878487F801848595850F90DF91F8
:100DB000CF911F910F9108958FEF9FEFF1CFFC011D
:100DC0008485958597FD0BC09FB7F89482E080934A
:100DD000E9008091F2009FBF90E0019608959FB7CF
:100DE000F89482E08093E9008091F2009FBF90E048
:100DF00008950895DC01FB0112962C9112978481CD
:100E000095812817190641F491818081813A31F446
:100E10009D7F81E0913009F080E008958132E1F713
:100E20009B3029F482811F968C9381E008959A303B
:100E300099F7828150968C93F8CFAF92BF92CF9260
:100E4000DF92EF92FF920F931F93CF93DF931F9246
:100E5000CDB7DEB77C0169836A01590141E050E0FA
:100E6000BE016F5F7F4FFC0183810E94AC048C0147
:100E700097FD0BC0F7018381A501B60180640E9434
:100E8000AC04080F191F97FD8C01C8010F90DF916A
:100E9000CF911F910F91FF90EF90DF90CF90BF9077
:100EA000AF900895DC01FB0188E4808389E48183AD
:100EB00084E482831D969C911D979F709F5B938312
:100EC0001D968D919C9124E0969587952A95E1F742
:100ED0008F708F5B848385E00895EF92FF920F936C
:100EE0001F93CF93DF93FB012081213871F523817C
:100EF000223259F5DC0112964C912481358142173A
:100F0000130619F5EC010B851C85F12CE12C01155C
:100F1000110589F0F801448155816281738180E86F
:100F20000E9475048F3F980749F0E80EF91ED8011A
:100F30000D911C91ECCF81E08F87C701DF91CF919C
:100F40001F910F91FF90EF90089590E080E0F6CF11
:100F5000CF93DF93CDB7DEB769970FB6F894DEBFB6
:100F60000FBECDBFFC01DB018C918F5F8C939E0186
:100F70002D5F3F4F8DE0D9011D928A95E9F729E059
:100F8000298384E08A8391E09D8383E08E832A878E
:100F900021E22B879C879D879F8722E2288B27E071
:100FA0002B8B25E02C8B8E8B20E430E0388F2F8B21
:100FB000998F82818B8395858685998B8A8B838196
:100FC00080688D8B49E150E0BE016F5F7F4F80E00C
:100FD0000E94750469960FB6F894DEBF0FBECDBFB0
:100FE000DF91CF910895CF938091210281112CC080
:100FF000C1E0C0931402C09315028AE192E090937D
:10100000170280931602109219021092180280E5BE
:1010100091E0909311028093100210921C021092A2
:101020001B0210921E0210921D02C0931F02C09359
:10103000200281EC80931A020E94D40560E172E0E4
:101040000E941906C093210280E192E0CF91089599
:10105000CF93DF93EC010E94F307AE014C5F5F4F2B
:1010600028E030E062E0DF91CF910C941D070F93F0
:101070001F93CF93DF93EB018A010E94F30798013E
:10108000AE0164E0DF91CF911F910F910C941D0789
:101090002091ED01260F3327331F21323105ECF467
:1010A00020911203FC0190E080E0243069F082E09E
:1010B0000895A091ED012191AC0143535E4FA40F1F
:1010C000B52FB11D2C930196861798F38091ED01F1
:1010D000680F6093ED0180E0089581E0089510921B
:1010E000120381E08093F1021092EC0261E082E051
:1010F0000E94040361E083E00E940403E9EBF0E056
:1011000080818E7F808380818D7F808388E480933F
:10111000B80085E48093BC000895CF93DF9391E0FD
:101120009093CC018823B9F0C091B800D091BA0057
:101130008091BC008A7B8093BC0060E082E00E94CA
:10114000040360E083E00E9404030E946F08D093D0
:10115000BA00C093B800DF91CF910895CF92DF928B
:10116000EF92FF920F931F93CF93C82F813208F015
:1011700096C00E946E036B017C0180911203811165
:1011800069C081E0809312038093F1029FEF9093F6
:10119000F0021092EF029C0F9093EE028093ED020A
:1011A0008091ED028C668093ED028091EC0281309B
:1011B00009F077C01092EC020E946E036B017C0173
:1011C0008091ED028093BB008091140390911503F0
:1011D000A0911603B0911703892B8A2B8B2BA1F0BA
:1011E0000E946E03009114031091150320911603C1
:1011F000309117036C197D098E099F09061717078F
:101200002807390708F447C08091BC0083FDD8CF78
:1012100085EC8093BC000E946E036B017C01809181
:101220001203813009F43FC08091EF028C1710F453
:10123000C091EF02ACECB2E0E2EFF2E080E08C13A0
:1012400054C08C2FCF911F910F91FF90EF90DF90A2
:10125000CF9008958091140390911503A0911603E7
:10126000B0911703892B8A2B8B2B09F486CF0E9410
:101270006E03009114031091150320911603309111
:1012800017036C197D098E099F0906171707280790
:10129000390708F072CF809113030E948D08C0E0D7
:1012A000D0CF85EEB6CF8091140390911503A09115
:1012B0001603B0911703892B8A2B8B2B09F4AFCF20
:1012C0000E946E03009114031091150320911603E0
:1012D000309117036C197D098E099F0906171707AE
:1012E0002807390708F09BCFD6CF9D9191938F5F48
:1012F000A6CF8F929F92AF92BF92CF92DF92EF9242
:10130000FF920F931F93CF93DF93D091CB02D132F3
:1013100008F0D7C0182FC091CA020E946E036B015B
:101320007C018091120381116BC082E080931203D3
:101330001093F1028FEF8093F0021092EF02D0939E
:10134000EE02AAEAB2E0ECECF2E080E0D81391C041
:101350001092ED028091ED02CC0FC82BC093ED02EC
:101360008091EC02813009F088C01092EC020E945A
:101370006E036B017C018091ED028093BB00809134
:10138000140390911503A0911603B0911703892BB4
:101390008A2B8B2BA1F00E946E03009114031091F5
:1013A000150320911603309117036C197D098E09DE
:1013B0009F09061717072807390708F442C08091CC
:1013C000BC0083FDD8CF85EC8093BC000E946E03E7
:1013D0006B017C0180911203823009F450C080912E
:1013E000F0028F3F09F46FC08091F002803209F45F
:1013F0006CC08091F002803309F469C084E026C09B
:101400008091140390911503A0911603B0911703D6
:10141000892B8A2B8B2B09F484CF0E946E0380903A
:10142000140390901503A0901603B09017036C1945
:101430007D098E099F0986169706A806B90608F049
:1014400070CF809113030E948D0885E01092A9024D
:101450001092CB021092A802DF91CF911F910F91B1
:10146000FF90EF90DF90CF90BF90AF909F908F90C4
:1014700008959D9191938F5F69CF85EEA5CF80915F
:10148000140390911503A0911603B0911703892BB3
:101490008A2B8B2B09F49ECF0E946E0300911403BC
:1014A0001091150320911603309117036C197D09D3
:1014B0008E099F09061717072807390708F08ACFF2
:1014C000C0CF81E0C3CF80E0C1CF82E0BFCF83E057
:1014D000BDCF0895E091420280914102E81730F4B7
:1014E000F0E0EE50FD4F808190E008958FEF9FEF88
:1014F000089590914202809141022FEF3FEF98179B
:1015000048F4E92FF0E0EE50FD4F208130E09F5F7E
:1015100090934202C9010895809141029091420244
:10152000891B990B0895CF92DF92EF92FF920F9350
:101530001F93CF93DF937C01CB018A012091A802F6
:10154000222389F0EB016B01C40ED51ECC15DD05FD
:1015500069F06991D701ED91FC910190F081E02D46
:10156000C7010995F3CF642F0E944808C801DF9195
:10157000CF911F910F91FF90EF90DF90CF90089542
:10158000CF93DF931F92CDB7DEB769832091A80276
:101590002223F9F02091CB02203258F021E030E0F4
:1015A000FC013383228390E080E00F90DF91CF91A4
:1015B00008958091A902E82FF0E0E655FD4F99814A
:1015C00090838F5F8093A9028093CB0281E090E0AB
:1015D000ECCF61E0CE0101960E944808F7CF90E081
:1015E00080E00895823059F020F4813031F060E0DD
:1015F00007C0833051F08430D1F760E007C061E06C
:1016000080E10E94040360E005C061E080E10E9487
:10161000040361E088E00C940403CF93DF93CDB71B
:10162000DEB728970FB6F894DEBF0FBECDBF888710
:1016300086E0EDE3F1E0DE01119601900D928A95CE
:10164000E1F788858F8346E050E0BE016F5F7F4FF2
:101650008DE193E00E94610641E050E0BE01685FC9
:101660007F4F8DE193E00E94610641E050E0BE01B2
:10167000695F7F4F8DE193E00E94610628960FB667
:10168000F894DEBF0FBECDBFDF91CF910895CF9309
:10169000DF938F599F4FFC01C081D0E02097A9F1C3
:1016A000E7E9F3E090E080E0219131910196232B6E
:1016B00041F5880F991FFC01EB56FC4FD183C08385
:1016C00048E050E067E973E085E993E00E9437085D
:1016D000E5E9F3E08DE993E022813381C217D30776
:1016E00011F41382128232968E179F07A9F748E0F1
:1016F00050E067E973E085E993E0DF91CF910C94C6
:1017000037088430910581F6DBCFDF91CF910895C2
:10171000EF92FF921F93CF93DF9300D000D000D0C1
:101720001F92CDB7DEB77B01142F9FE4998392E51A
:101730009A8392E49B8399E59C8380688D834E8392
:10174000840F8F83442381F06115710569F0462F62
:10175000FB0130E020E09191290F311D9E2F941B59
:101760009117C8F3820F8F8346E050E0BE016F5F90
:101770007F4F8DE193E00E946106112351F0E11447
:10178000F10439F0412F50E0B7018DE193E00E9460
:10179000610641E050E0BE01695F7F4F8DE193E05B
:1017A0000E94610627960FB6F894DEBF0FBECDBF2C
:1017B000DF91CF911F91FF90EF900895E8E9F2E05B
:1017C00081E0808311828283138288E790E0958391
:1017D00084838CE390E0978386838EE190E0918709
:1017E00080878AE090E09387828714861786168622
:1017F00015860895FC014281FB0124813581421741
:101800001306F9F4408131812381413A71F431307A
:10181000C1F42330B1F4BC01655F7F4F41E050E07B
:1018200080E00E94750481E00895413251F439301E
:1018300041F4233031F461E070E00B960E947605AC
:10184000F2CF80E00895FB018081813851F48381DB
:10185000823239F44AE750E06CEA72E080E80C9496
:10186000750490E080E00895CF93DF93CDB7DEB7A5
:1018700069970FB6F894DEBF0FBECDBFFC01DB0148
:101880009C919F5F9C939E012D5F3F4F87E1D90103
:101890001D928A95E9F729E0298384E08A8391E003
:1018A0009D8383E08E8332E038872A8721E22B876D
:1018B00021E12C879D879F8792E2988B9AE7998BED
:1018C00097E09B8B95E09C8B8E8B80E48F8B8AE0DE
:1018D000898F82818B83838180688D8B49E150E081
:1018E000BE016F5F7F4F80E00E94750469960FB65E
:1018F000F894DEBF0FBECDBFDF91CF910895FC01FC
:101900009C01285F3F4F90E080E0448141110196A7
:1019100014823196E217F307C1F708958BE793E03D
:101920000E947F0C892B21F08BE793E00C94280810
:101930000895CF93DF93DC0190E2960F9830B0F4D6
:1019400014968C91149721E030E001C0220F9A95F3
:10195000EAF7442341F0282B14962C9381E090E081
:10196000DF91CF91089520952823F6CFFD0136967B
:101970004423D1F0CD010C96EF012991621771F348
:10198000C817D907D1F790E080E02191211105C057
:10199000A80FB91F16966C93E1CF0196863091057A
:1019A000A1F790E080E0DCCF90E080E0219162132D
:1019B00005C0A80FB91F16961C92D0CF019686308D
:1019C0009105A1F7EECFCF93DF9341E0682F8BE72E
:1019D00093E00E94990CEC01892B21F08BE793E0B6
:1019E0000E942808CE01DF91CF910895CF92DF9217
:1019F000FF920F931F93CF93DF938C01F42EE62F6A
:101A0000F0E0EE0FFF1FE455FF4FC590D490D801D2
:101A1000ED91FC910484F585E02D6C2DC8010995AC
:101A2000EC01892B11F4F11070C0D0FE0CC0D8016C
:101A3000ED91FC910484F585E02D4F2D60EEC801F9
:101A40000995C82BD92BD1FE0CC0D801ED91FC9182
:101A50000484F585E02D4F2D61EEC8010995C82B52
:101A6000D92BD2FE0CC0D801ED91FC910484F585F0
:101A7000E02D4F2D62EEC8010995C82BD92BD3FE5E
:101A80000CC0D801ED91FC910484F585E02D4F2D1B
:101A900063EEC8010995C82BD92BD4FE0CC0D80120
:101AA000ED91FC910484F585E02D4F2D64EEC80185
:101AB0000995C82BD92BD5FE0CC0D801ED91FC910E
:101AC0000484F585E02D4F2D65EEC8010995C82BDE
:101AD000D92BD6FE0CC0D801ED91FC910484F5857C
:101AE000E02D4F2D66EEC8010995C82BD92BD7FEE6
:101AF0000CC0D801ED91FC910484F585E02D4F2DAB
:101B000067EEC8010995C82BD92BCE01DF91CF9183
:101B10001F910F91FF90DF90CF900895FF920F9348
:101B20001F93CF93DF93EC01F62E41E00E94F60C59
:101B30008C01892BA9F0E881F9810284F385E02DDD
:101B4000CE01099540E06F2DCE010E94F60C892B45
:101B500039F0E881F9810284F385E02DCE01099501
:101B6000C801DF91CF911F910F91FF900895FC0163
:101B700082818F5BFB01808381E008950F931F9327
:101B8000CF93DF938C0161E085E00E940403C8E1FC
:101B9000D3E081E088830E94C503600F711F811D1F
:101BA000911D69837A838B839C83DF91CF911F91F1
:101BB0000F910895CF92DF92EF92FF920F931F93B0
:101BC000CF93DF93EC0188810E94DB0211E0892B27
:101BD00009F410E00E94C5032B81211729F01B8313
:101BE0006C837D838E839F830C811D812E813F8139
:101BF0006B017C01C01AD10AE20AF30A970186013F
:101C00000931110521053105B0F02B813A813217D8
:101C100091F02A833981332311F031E0232738856D
:101C2000222301F131110AC021E0288769877A87D0
:101C30008B879C871D862885222389F12D8521117C
:101C40002EC009851A852B853C85601B710B820B84
:101C5000930B6C3271408105910508F181E08D870D
:101C600083E012C03323D9F0188609851A852B85A5
:101C70003C85601B710B820B930B1D866C3271408F
:101C80008105910550F082E0DF91CF911F910F9176
:101C9000FF90EF90DF90CF90089581E0F5CF80E046
:101CA000F3CFFC0101900020E9F73197AF01481B09
:101CB000590BBC018DE193E00C946106CF93DF9347
:101CC0000E94510EEC0180EA91E00E94510E8C0FAF
:101CD0009D1FDF91CF910895FF920F931F93CF9394
:101CE000DF9308E912E0D0E0C0E0F801F1908F0145
:101CF000CE010E946919F81621F06F2DCE010E94C5
:101D000071192196C031D10581F788E992E0DF9100
:101D1000CF911F910F91FF9008950F931F93CF9331
:101D2000DF93C0915E02833009F45EC048F48130D5
:101D3000A1F18230B9F1DF91CF911F910F910895F8
:101D4000843009F457C004E010E08630A1F761E068
:101D500080E10E94040361E088E00E94040386E4BD
:101D600090E00E94BE0D68E770E080E090E00E9485
:101D700093030E94F30360E080E10E94040360E0AB
:101D800088E00E94040364E670E080E090E00E9436
:101D9000930301501109D9F60DC082E0C23039F524
:101DA00080E025C0C330E9F083E080935E0280EEDE
:101DB0000E94E30CD0915E02DC1709F4BCCF8D2F9A
:101DC0000E94F20A8CE890E00E94BE0DC430B1F48B
:101DD000D43009F4B0CFDF91CF911F910F910C94C3
:101DE0008E0C10925E02E6CF84E0C430C9F280937C
:101DF0005E02E0CF81E0C130D1F7D2CFC33009F02D
:101E00009ACFD33041F797CF81E08093A80286E341
:101E10008093CA021092A9021092CB026BE08FE964
:101E200093E00E94C00A81E00E947909882311F0A2
:101E30008FEF089581E00E94AE08109242028093D5
:101E400041028823A9F38FE993E00E94790A08955B
:101E5000CF9381E08093A80286E38093CA02109218
:101E6000A9021092CB026EE08FE993E00E94C00AB3
:101E700081E00E94790982E00E94AE08109242023D
:101E800080934102823030F4809143029091440269
:101E9000CF9108958FE993E00E94790AC82F8FE9C6
:101EA00093E00E94790A20E0822B9C2B9F70F0CF58
:101EB00085ED8093BC008091140390911503A0914F
:101EC0001603B09117030796A11DB11D23E0B69527
:101ED000A795979587952A95D1F72091BC0024FD69
:101EE00003C01092120308954091140350911503FA
:101EF0006091160370911703452B462B472B69F30E
:101F00000097A105B10541F02AE22A95F1F700C03A
:101F10000197A109B109E1CF809113030C948D08B9
:101F20001F920F920FB60F9211242F933F938F930E
:101F30009F93AF93BF9380918E0290918F02A09157
:101F40009002B091910230918D0223E0230F2D3742
:101F500058F50196A11DB11D20938D0280938E022C
:101F600090938F02A0939002B0939102809192027D
:101F700090919302A0919402B09195020196A11DB7
:101F8000B11D8093920290939302A0939402B09318
:101F90009502BF91AF919F918F913F912F910F909B
:101FA0000FBE0F901F90189526E8230F0296A11DD3
:101FB000B11DD2CF1F920F920FB60F9211248F93A3
:101FC0009F938091E1009091E100937F9093E100D5
:101FD00083FF0FC01092E90091E09093EB00109204
:101FE000EC0092E39093ED001092970298E09093AA
:101FF000F00082FF22C093E09093E9009091F200FC
:10200000992319F09AE39093E80090913A0299236A
:1020100041F090913A02915090933A02911101C08F
:102020005D9890919602992341F09091960291507B
:1020300090939602911101C0289884FF18C0809156
:10204000E2008E7E81608093E2008091E1008F7ECD
:102050008093E10080913B028E7E806180933B0201
:102060009F918F910F900FBE0F901F90189580FF3A
:10207000F7CF8091E2008E7E80618093E2008091B4
:10208000E1008E7E8093E10080913B028E7E816034
:10209000E5CF1F920F920FB60F921124CF92DF92CD
:1020A000EF92FF920F931F932F933F934F935F9362
:1020B0006F937F938F939F93AF93BF93EF93FF9310
:1020C000CF93DF93CDB7DEB76C97DEBFCDBF109255
:1020D000E9008091E80083FF25C068E0CE014596C5
:1020E0000E94690582EF8093E8008D8987FF39C0DF
:1020F0009091E80090FFFCCF982F907609F034C1C2
:102100009E894F89588D2F89F88C911131C0803864
:1021100061F580913C028093F1001092F1008EEF06
:102120008093E8006C960FB6F894DEBF0FBECDBF6B
:10213000DF91CF91FF91EF91BF91AF919F918F91DF
:102140007F916F915F914F913F912F911F910F91CF
:10215000FF90EF90DF90CF900F900FBE0F901F90E9
:1021600018959EEF9093E800C7CF1092F100D5CF5D
:10217000913059F48111D3CF4130510581F68091CE
:102180003C028D7F80933C02CACF933049F4811189
:10219000C6CF4130510519F680913C028260F2CFE2
:1021A000953041F48091E80080FFFCCF20682093B7
:1021B000E300B5CF963009F0A9C00B8D1C8D22E04D
:1021C0001092E9001092380210923702F2122EC0DB
:1021D00010923602109235020E94E8051F8299E0A3
:1021E0009983FA8291E09E8390EA98879AEF998783
:1021F0002091370230913802275F3F4F3C832B8379
:102200008D831092E90010923802109237021093D9
:1022100036020093350249E050E0BE016F5F7F4F08
:1022200080E00E9475040E94E80579CF1093360281
:10223000009335020E94D405DC0112960D911C9189
:102240000115110509F44BC1D801ED91FC910480F1
:10225000F581E02DBE016B5E7F4FC80109950097A7
:1022600009F038C1F80100851185EACFF3E0FF12CB
:102270000EC08F89882309F440C0823061F440E8A1
:102280006DE08AE893E00E944204811148CF81E228
:102290008093EB0047CF813029F440E86BE08EE774
:1022A00093E0F1CF833099F70E94D405DC011296B8
:1022B000ED90FC908E010F5F1F4F6801E114F10457
:1022C00079F0D701ED91FC910680F781E02DB801FE
:1022D000C7010995080F111DF701E084F184EECFC5
:1022E000D8011C92F60101900020E9F73197BF0157
:1022F0006C197D0940E0C601C6CF68E673E0FB01BA
:10230000449150E080E80E94750409CF973009F4A9
:10231000BECF983021F481E08093F10000CF993056
:1023200009F0FDCE837009F0B2CFE1E0F1E081E089
:1023300031E096E32191222371F08093E9003093FC
:10234000EB00DF0111972C912093EC009093ED00AE
:102350008F5F873079F78EE78093EA001092EA006A
:102360008F8980939702DBCE8B8D9C8D1092E90034
:102370001092380210923702909336028093350201
:10238000898D81118CC08E899D89913A49F4813261
:1023900009F07DCF47E050E06BE071E080E0B3CF23
:1023A000913209F074CF833269F48F89988DB0E04F
:1023B000A0E08093070190930801A0930901B093D6
:1023C0000A01ADCE803239F467E070E08BE091E035
:1023D0000E947605A4CE823209F0A1CE8F89809327
:1023E0001201EEEFFFE7859194918B3F9C4D51F1E7
:1023F000E0E0F8E080910B0190910C01A0910D01BB
:10240000B0910E01803B9440A105B105F1F480919B
:10241000120180FD1AC0EE3F8AE0F80789F587E7D0
:1024200097E791838083809160008093390288E1EF
:102430009BE00FB6F894A895809360000FBE909330
:1024400060006DCEEEEFFAE0D5CF808191818737C5
:10245000974709F064CEA8958091600088618093C9
:1024600060008091390280936000EE3F2AE0F2071D
:1024700089F08091FE0A9091FF0A918380834FCE6C
:10248000808191818737980751F29093FF0A80935A
:10249000FE0AC5CF1092FF0A1092FE0A40CE0E949B
:1024A000D405DC0112960D911C910115110509F45A
:1024B000EECED801ED91FC910190F081E02DBE01AE
:1024C0006B5E7F4FC8010995811129CEF801008507
:1024D0001185EBCF181619060CF421CED8CEF1E0F9
:1024E000FF12C4CE6CE673E00ACF1F920F920FB6B4
:1024F0000F9211242F933F934F935F936F937F938A
:102500008F939F93AF93BF93EF93FF938091B90005
:10251000887F803609F44AC0F0F5883209F4A7C0F4
:1025200018F5803109F49BC0B8F4882309F4F9C088
:10253000883009F494C0FF91EF91BF91AF919F91C2
:102540008F917F916F915F914F913F912F910F905C
:102550000FBE0F901F901895883109F488C0803203
:1025600051F78093F00214C0803409F49DC040F408
:102570008033B9F38833F9F68093F00285ECB0C06C
:10258000803509F485C0883509F496C0883499F6F9
:102590000E94580FD0CF883909F48CC038F588379D
:1025A00029F050F4883611F0803729F683E08093C3
:1025B000120310920F0257C0883809F47BC080398B
:1025C00019F0803809F0B7CF80910F02803208F0FF
:1025D00071C0E0910F0281E08E0F80930F02809115
:1025E000BB00F0E0E151FE4F80833DC0803B39F0FD
:1025F000E0F4803A09F479C0883A09F09CCF84E08D
:10260000809312031092EE011092ED01E0913F02CF
:10261000F091400209958091ED0181110FC081E098
:102620008093ED011092CD0109C0803C09F4A6CF42
:10263000883C09F4A3CF883B09F07DCFE091EE01FF
:1026400081E08E0F8093EE01F0E0E353FE4F808136
:102650008093BB009091EE018091ED0129C08091A3
:10266000ED028093BB0085EC8093BC0064CF909119
:10267000EF028091EE02981758F5E091EF0281E0A9
:102680008E0F8093EF02F0E0E453FD4F8081E9CF9D
:10269000E091EF0281E08E0F8093EF028091BB000A
:1026A000F0E0E453FD4F80839091EF028091EE02C1
:1026B0009817C8F285E8D8CFE091EF0281E08E0F3D
:1026C0008093EF028091BB00F0E0E453FD4F8083E4
:1026D0008091F10281115CCF81E08093EC0284EA69
:1026E0008093BC001092120326CF85EC8093BC002F
:1026F0001092120380910F02803230F4E0910F02A9
:10270000F0E0E151FE4F108260910F0270E0E09125
:102710003D02F0913E028FEE91E0099510920F027A
:102720000ACF1092F00234CF1092200310921F03B0
:1027300088EE93E0A0E0B0E0809321039093220321
:10274000A0932303B09324038CE591E090931E03A0
:1027500080931D038FEF9FEF90932A0380932903AB
:1027600010927E0310927D038EE691E090937C039D
:1027700080937B0380917303811113C010926E03C9
:1027800010926D038FE194E09093700380936F0338
:102790008BE390E0909372038093710381E08093C8
:1027A00073030E94F307FC01A385B485109709F019
:1027B00078C08DE693E09487838785859685209100
:1027C000710330917203820F931F9687858780E88B
:1027D00091E0909396038093950380918D038111EE
:1027E00013C010928803109287038AE594E09093B7
:1027F0008A038093890389E190E090938C0380930E
:102800008B0381E080938D030E94F307FC01A38575
:10281000B485109709F050C087E893E094878387C8
:102820008585968520918B0330918C03820F931FB1
:10283000968785871092A2031092A10388EE93E0F9
:10284000A0E0B0E08093A3039093A403A093A5031A
:10285000B093A60386E891E09093A00380939F0332
:1028600081E08093AF038093B00325EB33E0309396
:10287000B2032093B1031092B4031092B30328E97A
:1028800031E03093AC032093AB038093B60381EC2B
:102890008093B5030E94D4056BEA73E00C9419068B
:1028A000DC018D919C9111970097D1F78DE693E013
:1028B0008D939C9382CFDC018D919C911197009711
:1028C000D1F787E893E08D939C93AACFCF93DF93C2
:1028D000CDB7DEB7A3970FB6F894DEBF0FBECDBF5E
:1028E000789484B5826084BD84B5816084BD85B5EB
:1028F000826085BD85B5816085BD80916E008160F7
:1029000080936E001092810080918100826080939C
:10291000810080918100816080938100809180009E
:10292000816080938000809191008260809391000B
:1029300080919100816080939100809190008160EE
:10294000809390008091C10084608093C100809149
:10295000C10082608093C1008091C100816080933A
:10296000C1008091C30081608093C3008091C0004A
:1029700082608093C0008091C20081608093C20019
:1029800080917A00846080937A0080917A008260DE
:1029900080937A0080917A00816080937A008091A0
:1029A0007A00806880937A001092970210923C021D
:1029B00010923B028091D70081608093D70080EA1B
:1029C0008093D80089B5806189BD89B5826089BD51
:1029D00009B400FEFDCF61E070E080E090E00E946D
:1029E00093038091D8008F7C80618093D800809180
:1029F000E000807F8093E0008091E1008E7E8093F4
:102A0000E1008DE08093E200559A209A5D98289825
:102A10008FEF9FEF90932A038093290368EB7BE06D
:102A200080E090E00E94930383EA91E00E945E0EB2
:102A300061E080E10E94320361E088E00E9432039D
:102A400061E085E00E94320360E080E10E940403BF
:102A500060E088E00E94040360E085E00E940403D7
:102A600060E085E00E9404036AE08FE291E00E944A
:102A7000D10369E081E291E00E94D10364E083E147
:102A800091E00E94D10310924202109241021092F2
:102A9000A9021092CB020E946F0882E194E0909309
:102AA000400280933F0283E194E090933E02809342
:102AB0003D020E94280F7C019093440280934302C0
:102AC000109245021092460210924702109248025C
:102AD0001092490210924A0210924B0210924C023C
:102AE0001092520210925302109254021092550208
:102AF00010925602109257021092580210925902E8
:102B00001092510210924D0210924E0210924F02FA
:102B1000109250020E946E0360935A0270935B02FF
:102B200080935C0290935D0289EA91E00E945E0EC0
:102B3000970150E040E019A28E010F5D1F4F6AE03F
:102B4000C62ED12CE12CF12CCA01B901A7019601A6
:102B50000E94A41B605DD8016E938D012115310583
:102B60004105510589F7109719F0CD010E94510ECA
:102B700080EA91E00E94510E8BE793E00E947F0C67
:102B80008BE793E00E942808E7E9F3E088E0DF01A3
:102B90001D928A95E9F748E050E0BF0185E993E08E
:102BA0000E94370862E370E080E090E00E949303A7
:102BB00010925E0280E00E94F20A02E010E061E002
:102BC00080E10E94040361E088E00E94040384E63F
:102BD00090E00E94BE0D64E670E080E090E00E940C
:102BE00093030E94F30360E080E10E94040360E02D
:102BF00088E00E94040364E670E080E090E00E94B8
:102C0000930301301105F1F58E010F5F1F4FF12C79
:102C1000E12C0AA31BA3C7010E946919F801819343
:102C20008F01FFEFEF1AFF0A20E1E216F10499F796
:102C30008981813051F580E1EAA1FBA1A8E9B2E0E8
:102C400001900D928A95E1F78FEF9FEF90932A0301
:102C50008093290320E0222E20E0322E37E0632EDD
:102C6000712C45E0442E512C8FE291E00E94DA0D48
:102C7000823019F1833071F0813081F481E00E945B
:102C80008D0E0CC001E010E09ACF0E94DE0B0E9476
:102C90006C0EDACF80E590E00E94BE0D81E291E0FB
:102CA0000E94DA0D823009F43CC1833041F081305A
:102CB00051F483E00E948D0E06C082E0E0CF80E5F3
:102CC00090E00E94BE0D83E191E00E94DA0D823017
:102CD00009F429C1833021F480E590E00E94BE0D03
:102CE0000E94F3030E946E03C0905A02D0905B02D0
:102CF000E0905C02F0905D026C197D098E099F09DD
:102D0000623876408105910508F454C10E94040F91
:102D10008F3F09F44FC185FF4DC10E94040F8F3FC3
:102D200011F085FD04C087EB91E00E945E0EB2E8D1
:102D3000CB0EB6E0DB1EE11CF11CC0925A02D09211
:102D40005B02E0925C02F0925D020E94280F4091CB
:102D5000430250914402481B590B4130E8E05E07A2
:102D60000CF4E5C050519093440280934302952F98
:102D7000990F990B9A01492F592F692F792F892F74
:102D8000A0904502B0904602C0904702D090480201
:102D9000E0904902F0904A0200914B0210914C02DF
:102DA0000E94CC1B20934502309346024093470279
:102DB000509348026093490270934A0280934B02F9
:102DC00090934C02A0905202B0905302C0905402D3
:102DD000D0905502E0905602F090570200915802B0
:102DE000109159020E94CC1B20935202309353023F
:102DF00040935402509355026093560270935702C9
:102E00008093580290935902E0915102EF5FE09352
:102E10005102EA3008F4CEC00E94991A20E030E056
:102E200040E251E40E94F1194B015C0120914D02F6
:102E300030914E0240914F02509150020E947F19F2
:102E40006B017C0180924D0290924E02A0924F0243
:102E5000B0925002109252021092530210925402F9
:102E60001092550210925602109257021092580278
:102E7000109259021092510220E03EEF4FEF56E4BB
:102E80000E949F1B18160CF459C020E03EEF4FEF34
:102E900056ECC701B6010E94EC1987FD57C0C70167
:102EA000B6010E94631AAB016115710509F0A0C05B
:102EB0000E94C50300916402109165022091660290
:102EC00030916702601771078207930708F472C098
:102ED000C0906002D0906102E0906202F0906302C4
:102EE00020E030E0A901C701B6010E94EC19882357
:102EF00009F460C020E030E040E852E4C701B601C8
:102F00000E949F1B87FD2AC08AEE90E00E94470B1B
:102F100020E030E040E852E4C701B6010E947F198A
:102F200033C084E0C7CE86E00E948D0ED9CE411515
:102F3000F8EF5F070CF017CF505F15CFC12C9EEF55
:102F4000D92EEE24EA9496E4F92EA9CFC12C8EEF67
:102F5000D82EEE24EA9486ECF82EA1CF20E030E0C3
:102F600040E852ECC701B6010E94EC19181614F1A2
:102F700089EE90E00E94470B20E030E040E852E408
:102F8000C701B6010E9480196093600270936102CC
:102F900080936202909363020E94C5036F5F7F4F2C
:102FA0008F4F9F4F60936402709365028093660217
:102FB000909367028DE193E00E94DF06892B09F46C
:102FC00081C18DE193E00E949D06E0918B02F0911A
:102FD0008C02E830F10570F7E051F84E0C94C61BF6
:102FE00062186D1876187B1883188A18A018B41800
:102FF00020915E02223009F44CC080F5222309F4AE
:1030000041C02130B9F6072E000C880B990B0E94A5
:10301000A11A2091600230916102409162025091A8
:1030200063020E9480196B017C01C0926002D09201
:103030006102E0926202F09263020E94C503009175
:103040006402109165022091660230916702601758
:1030500071078207930708F04DCFACCF2330E9F01A
:10306000243009F0A7CF20915F02E5E0211101C0D3
:10307000EBEF31E0232720935F0230E020E06E2F5A
:1030800081E004C030E020E060E080E00E9446057E
:1030900091CF9B0150E040E0F7CF072E000C880B4A
:1030A000990B0E94A11A20E030E040EA50E40E940F
:1030B000F1190E94631A30E020E0AB01672B09F49C
:1030C00079CFE2CF21E030E08F3411F030E020E022
:1030D00030938C0220938B026DCF823589F482E08D
:1030E00090E090938C0280938B0264CF823441F401
:1030F00083E090E0F6CF893519F484E090E0F1CFD9
:1031000090E080E0EECF80938A0250928C02409251
:103110008B0250CF8093890210928802813240F056
:1031200010928C0210928B0281E00E940D0B42CF14
:10313000882319F086E090E0D4CF87E090E0D1CFEB
:10314000E091880291E09E0F90938802F0E0E859A8
:10315000FD4F808380918902981708F42BCF7092DD
:103160008C0260928B0226CF20918A029091890274
:10317000322F390FE8E6F2E060E050E040E09617C9
:1031800029F07191470F511D6F5FF9CF340F8317ED
:1031900021F082E00E940D0B34C02031B9F591116D
:1031A0008FC0809198028983809199028A8380914F
:1031B0009A028B8380919B028C8390919C028091D8
:1031C0009D029D838E8390919E0280919F029F839A
:1031D00088879091A0028091A10299878A87909117
:1031E000A2028091A3029B878C878091A4028D8785
:1031F0001E861F86188A40E16AA17BA180E10E9499
:10320000880B10928C0210928B02D4CE213109F0DF
:1032100040C0903109F054C0809168028130B9F506
:1032200080939802809169028093990280916A024A
:1032300080939A0280916B0280939B0280916C0232
:1032400090916D0290939D0280939C0280916E02FA
:1032500090916F0290939F0280939E0280917002E2
:10326000909171029093A1028093A00280917202CA
:10327000909173029093A3028093A20280917402B2
:103280008093A40240E070E060E081E1B8CF83E089
:1032900081CF223151F4911113C00E946C0E40E095
:1032A00070E060E080918A02AACF233149F4911145
:1032B00007C00E94DE0B40E070E060E083E19FCF3A
:1032C00084E068CF2114310409F4CECC0E940000C0
:1032D000CBCCF999FECF92BD81BDF89A992780B5E4
:1032E0000895262FF999FECF1FBA92BD81BD20BD4A
:1032F0000FB6F894FA9AF99A0FBE019608955058AD
:10330000BB27AA270E9497190C94651B0E94571B84
:1033100038F00E945E1B20F039F49F3F19F426F428
:103320000C94441B0EF4E095E7FB0C943E1BE92F34
:103330000E94761B58F3BA17620773078407950734
:1033400020F079F4A6F50C94981B0EF4E0950B2E62
:10335000BA2FA02D0B01B90190010C01CA01A001E7
:103360001124FF27591B99F0593F50F4503E68F142
:103370001A16F040A22F232F342F4427585FF3CF83
:10338000469537952795A795F0405395C9F77EF454
:103390001F16BA0B620B730B840BBAF09150A1F09D
:1033A000FF0FBB1F661F771F881FC2F70EC0BA0F23
:1033B000621F731F841F48F4879577956795B795AB
:1033C000F7959E3F08F0B0CF9395880F08F09927A6
:1033D000EE0F9795879508950E941A1B08F481E0D7
:1033E00008950E94051A0C94651B0E945E1B58F0FC
:1033F0000E94571B40F029F45F3F29F00C943E1BBC
:1034000051110C94991B0C94441B0E94761B68F379
:103410009923B1F3552391F3951B550BBB27AA278D
:1034200062177307840738F09F5F5F4F220F331FC7
:10343000441FAA1FA9F335D00E2E3AF0E0E832D08F
:1034400091505040E695001CCAF72BD0FE2F29D092
:10345000660F771F881FBB1F261737074807AB0764
:10346000B0E809F0BB0B802DBF01FF2793585F4FD9
:103470003AF09E3F510578F00C943E1B0C94991B3A
:103480005F3FE4F3983ED4F3869577956795B795BB
:10349000F7959F5FC9F7880F911D9695879597F9C6
:1034A0000895E1E0660F771F881FBB1F621773073F
:1034B0008407BA0720F0621B730B840BBA0BEE1F54
:1034C00088F7E09508950E946A1A6894B1110C94E7
:1034D000991B08950E947E1B88F09F5798F0B92F82
:1034E0009927B751B0F0E1F0660F771F881F991F39
:1034F0001AF0BA95C9F714C0B13091F00E94981B28
:10350000B1E008950C94981B672F782F8827B85F37
:1035100039F0B93FCCF3869577956795B395D9F790
:103520003EF490958095709561957F4F8F4F9F4F9A
:10353000089597FB16F40E94471B0C94DD1AE8943B
:1035400009C097FB3EF490958095709561957F4FEB
:103550008F4F9F4F9923A9F0F92F96E9BB27939599
:10356000F695879577956795B795F111F8CFFAF4A9
:10357000BB0F11F460FF1BC06F5F7F4F8F4F9F4FDA
:1035800016C0882311F096E911C0772321F09EE838
:10359000872F762F05C0662371F096E8862F70E09E
:1035A00060E02AF09A95660F771F881FDAF7880F78
:1035B0009695879597F90895E894F92F96EBFF2350
:1035C00081F0121613061406440B9395F695879511
:1035D0007795679557954040FF23B9F71BC099270A
:1035E0000895882351F49850D2F7872B762F652FB2
:1035F000542F432F322F20E0B1F312161306140676
:10360000440B88233AF09A95440F551F661F771F85
:10361000881FCAF755234AF4440F551F11F460FF61
:1036200004C06F5F7F4F8F4F9F4F880F9695879590
:1036300097F90895990F0008550FAA0BE0E8FEEFDF
:1036400016161706E807F907C0F012161306E40766
:10365000F50798F0621B730B840B950B39F40A265F
:1036600061F0232B242B252B21F408950A2609F43D
:10367000A140A6958FEF811D811D089597F99F6741
:1036800080E870E060E008959FEF80EC08959095E9
:1036900080957095609550954095309521953F4F58
:1036A0004F4F5F4F6F4F7F4F8F4F9F4F08950024B5
:1036B0000A941616170618060906089500240A9497
:1036C00012161306140605060895092E0394000C1D
:1036D00011F4882352F0BB0F40F4BF2B11F460FFAC
:1036E00004C06F5F7F4F8F4F9F4F089557FD9058D5
:1036F000440F551F59F05F3F71F04795880F97FBB6
:10370000991F61F09F3F79F087950895121613066F
:103710001406551FF2CF4695F1DF08C0161617069E
:103720001806991FF1CF86957105610508940895D3
:10373000E894BB2766277727CB0197F908950E9465
:103740001A1B08F48FEF0895A1E21A2EAA1BBB1BC7
:10375000FD010DC0AA1FBB1FEE1FFF1FA217B3075D
:10376000E407F50720F0A21BB30BE40BF50B661F73
:10377000771F881F991F1A9469F760957095809537
:1037800090959B01AC01BD01CF010895EE0FFF1F85
:103790000590F491E02D09942A0D3B1D4C1D5D1DF3
:0E37A0006E1D7F1D801F911F0895F894FFCFAE
:1037AE0000C18081000000FFFFFFFF00E10000006C
:1037BE0000000000010101000000000000000000F8
:1037CE0000000101010000000000000000000000E8
:1037DE00010101000000000000000000004F5242F5
:1037EE0059FF01E2000000000000E9EA00000000BD
:1037FE00FA06A8076D07520700000000770661065B
:10380E0098068D06DF069D06BB06000000008E0D95
:10381E00A705EF0AF9067F0C2808990C0000000096
:10382E00370800000000C00A930AEF0A690A8C0AE2
:10383E00790A6A0A00000000FA0B340C230CB70D4B
:10384E000D0A004C6973746F00456E636F64657288
:10385E00206C6973746F006D61676E6574206E6F96
:0C386E0074206465746563746564000078
:00000001FF
