:100000000C943B020C9463020C9463020C94630204
:100010000C9463020C9463020C9463020C946302CC
:100020000C9463020C9463020C94730E0C94E20E15
:100030000C9463020C9463020C9463020C946302AC
:100040000C9463020C9463020C9463020C9463029C
:100050000C9463020C9463020C9463020C94290EBA
:100060000C9463020C9463020C9463020C9463027C
:100070000C9463020C9463020C9463020C9463026C
:100080000C9463020C9463020C9463020C9463025C
:100090000C940E110C9463020C9463020C94630292
:1000A0000C9463020C9463020C9463020000000041
:1000B0000000000000000000000000002A002B00EB
:1000C0002800000000000000000000000000000008
:1000D0000000000000000000000000000000000020
:1000E0000000000000000000000000002C001E02C4
:1000F00034022002210222022402340026022702B6
:1001000025022E0236002D003700380027001E0081
:100110001F002000210022002300240025002600CB
:100120003302330036022E00370238021F02040267
:10013000050206020702080209020A020B020C026B
:100140000D020E020F02100211021202130214021B
:10015000150216021702180219021A021B021C02CB
:100160001D022F003100300023022D023500040053
:10017000050006000700080009000A000B000C003B
:100180000D000E000F0010001100120013001400EB
:10019000150016001700180019001A001B001C009B
:1001A0001D002F0231023002350200000000000065
:1001B000000000000000000000000000000000003F
:1001C000000000000000000000000000000000002F
:1001D000000000000000000000000000000000001F
:1001E000000000000000000000000000000000000F
:1001F00000000000000000000000000000000000FF
:1002000000000000000000000000000000000000EE
:1002100000000000000000000000000000000000DE
:1002200000000000000000000000000000000000CE
:1002300000000000000000000000000000000000BE
:1002400000000000000000000000000000000000AE
:10025000000000000000000000000000000000009E
:10026000000000000000000000000000000000008E
:10027000000000000000000000000000000000007E
:10028000000000000000000000000000000000006E
:10029000000000000000000000000000000000005E
:1002A000000000000000000000000000050109023D
:1002B000A1010902A1020901A100050919012905ED
:1002C00015002501750195058102750395018103CE
:1002D0000501093009311581257F750895028106D0
:1002E000A1020948150025013501457875029501DF
:1002F000A4B102093816018026FF7F35004500753C
:10030000108106C0A1020948B4B10235004500754C
:1003100004B103050C0A380216018026FF7F751010
:100320008106C0C0C0C0080B000202020000090420
:100330000000010202000005240010010524010153
:1003400001042402060524060001070581031000AC
:100350004009040100020A000000070502024000F3
:100360000007058302400000040309041201000293
:10037000EF02014041233780000101020301417275
:100380006475696E6F204C4C430041726475696EF0
:100390006F204D6963726F00000000002400270089
:1003A0002A002D00300000000000250028002B004E
:1003B0002E003100000000002300260029002C0040
:1003C0002F000404040404030405020202020403CF
:1003D00002020202060606060606040402020204DF
:1003E0000404080201104080401020408040800832
:1003F00002040180402010020110801020404020A3
:100400000000000200090F0000030401000C0000BE
:1004100000000000000000000000000000000005D7
:10042000010906A1018502050719E029E715002544
:1004300001750195088102050C95017508150026C6
:10044000FF00190029FF81000507950675081500B2
:1004500026E700190029E78100C0050C0901A10168
:100460008504150026FF0319002AFF039504751063
:100470008100C0002D1211241FBECFEFDAE0DEBFD5
:10048000CDBF11E0A0E0B1E0E2EEF1E302C00590E3
:100490000D92AC38B107D9F723E0ACE8B1E001C068
:1004A0001D92A234B207E1F712E0CBE3D2E004C020
:1004B0002197FE010E94E018CA33D107C9F70E94B4
:1004C000FF120C94EF180C940000FC018091320292
:1004D000882311F13FB7F89482E08093E9002091DE
:1004E000F200822F90E01816190614F481E090E0D3
:1004F000882339F0289A44E6409331024091F10074
:100500004083222339F02091F200211103C02BE611
:100510002093E8003FBF08958FEF9FEF0895CF939A
:10052000DF931F92CDB7DEB76983DC01ED91FC91BB
:100530000280F381E02D41E050E0BE016F5F7F4F0C
:1005400009950F90DF91CF91089583E08093E900A2
:100550008091F200882319F08AE38093E8000895DF
:10056000CF93DF931F92CDB7DEB7FC0184859585CD
:1005700097FD08C02FEF3FEF358724870F90DF915D
:10058000CF910895CE0101960E946502019719F45A
:10059000898190E0F3CF8FEF9FEFF0CF0F931F9300
:1005A000CF93DF931F92CDB7DEB78C01FC0184851A
:1005B000958597FF0BC0CE0101960E9465020197B9
:1005C00071F4898190E0F80195878487F80184852A
:1005D00095850F90DF91CF911F910F9108958FEF27
:1005E0009FEFF1CFFC018485958597FD0BC09FB7E8
:1005F000F89482E08093E9008091F2009FBF90E040
:10060000019608959FB7F89482E08093E900809165
:10061000F2009FBF90E0089581508F3008F047C0EE
:10062000E82FF0E0EA5EFC4F0C94E0183303370348
:1006300025032B032F035703570357033A034003A4
:10064000440348034E0357035203809180008F7781
:10065000809380000895809180008F7DF9CF8091F4
:100660008000877FF5CF84B58F7784BD089584B5EA
:100670008F7DFBCF809190008F77809390000895BD
:10068000809190008F7DF9CF80919000877FF5CF8A
:100690008091C0008F778093C00008958091C00042
:1006A0008F7DF9CF8091C200877F8093C20008952B
:1006B000CF93DF93282F30E0F901E050FC4F849175
:1006C000F901EF51FC4FD491F901EE53FC4FC49165
:1006D000CC23A1F081110E940C03EC2FF0E0EE0F6F
:1006E000FF1FEC54FC4FA591B491EC91ED2381E0F8
:1006F00090E009F480E0DF91CF91089580E090E0F0
:10070000FACF1F93CF93DF93282F30E0F901E05009
:10071000FC4F8491F901EF51FC4FD491F901EE5354
:10072000FC4FC491CC23A9F0162F81110E940C0319
:10073000EC2FF0E0EE0FFF1FEA55FC4FA591B491AE
:100740008FB7F894EC91111108C0D095DE23DC939B
:100750008FBFDF91CF911F910895DE2BF8CFCF93FC
:10076000DF9390E0FC01EF51FC4F24918E539C4F9E
:10077000FC0184918823C9F090E0880F991FFC0147
:10078000E856FC4FA591B491FC01EA55FC4FC59188
:10079000D49161110DC09FB7F8948C91209582235C
:1007A0008C938881282328839FBFDF91CF91089560
:1007B000623051F49FB7F8943C91822F8095832347
:1007C0008C93E8812E2BEFCF8FB7F894EC912E2BE2
:1007D0002C938FBFEACF3FB7F89480912D02909170
:1007E0002E02A0912F02B091300226B5A89B05C021
:1007F0002F3F19F00196A11DB11D3FBFBA2FA92FA0
:10080000982F8827BC01CD01620F711D811D911D9C
:1008100042E0660F771F881F991F4A95D1F7089508
:100820008F929F92AF92BF92CF92DF92EF92FF9200
:100830004B015C010E94EB036B017C010E94EB0306
:100840006C197D098E099F09683E734081059105E9
:10085000A8F321E0821A9108A108B10888EEC80E19
:1008600083E0D81EE11CF11C81149104A104B104A1
:1008700029F7FF90EF90DF90CF90BF90AF909F90BF
:100880008F9008952FB7F8946091290270912A02F1
:1008900080912B0290912C022FBF08950F931F93EC
:1008A000809133028823B1F00E9442040091340207
:1008B000109135022091360230913702601B710B86
:1008C000820B930B97FD06C060E085E00E948103D8
:1008D000109233021F910F9108958091020290911E
:1008E0000102891B990B0895089508954091F7011D
:1008F0005091F8012091F5013091F601421753070C
:10090000B4F49091E8009570E1F39091E80092FDC5
:1009100019C08093F1008091F7019091F801019640
:100920008F739927892B19F48EEF8093E8008091BB
:10093000F7019091F80101969093F8018093F701E7
:1009400081E0089580E00895EF92FF920F931F9346
:10095000CF93DF93F82E192FE62E042F81E0860F18
:10096000880F0E94760483E00E947604CF2DD12F59
:10097000EC0EFD2EF11CCE15DF05B9F007FF13C0FC
:10098000FE0184910E947604182F80E00E94760474
:10099000812321968111EFCFDF91CF911F910F918C
:1009A000FF90EF9008958881EDCF81E0F5CFDF9241
:1009B000EF92FF920F931F93CF93DF93D82E8A016C
:1009C000EB017B01E40EF51ECE15DF0559F0D7FED5
:1009D00012C0FE0184910E94760421968111F4CF09
:1009E0000FEF1FEFC801DF91CF911F910F91FF9083
:1009F000EF90DF9008958881EECF2FB7F89487703D
:100A00008093E9009091E800892F807295FF04C0DF
:100A10009091F20080E4891B2FBF089583E00E942B
:100A2000FD0490E008957F928F929F92AF92BF92C3
:100A3000CF92DF92EF92FF920F931F93CF93DF93AA
:100A4000C82E8B017A0180913202811110C08FEF84
:100A50009FEFDF91CF911F910F91FF90EF90DF906B
:100A6000CF90BF90AF909F908F907F90089580918E
:100A7000FB0180FF05C08091E00082608093E00070
:100A8000CE2DDF2DD12C8AEFB82E8C2D8770982E8D
:100A90008C2D8072882E8C2D8074782E9AE3A92E4E
:100AA000209719F4DD2009F452C08C2D0E94FD041A
:100AB00081110AC0BA94BB2051F261E070E080E07D
:100AC00090E00E941004ECCF8C171D0611F00CF082
:100AD0008C2F9FB7F8949092E9002091E80025FDB3
:100AE00002C09FBFDDCF282F30E0C21BD30B882070
:100AF00029F08150A0F01092F100FBCFF801C7FC63
:100B00000AC0815050F041914093F100FACF4491D6
:100B10004093F10031968150D0F7020F131FDD2072
:100B200021F0A092E800D12CDCCF8091E80085FD77
:100B300007C0A092E800DD24D394209791F2F3CF70
:100B4000209779F6772069F2A092E800CACF5D9AE3
:100B500084E68093FA01C7017CCFCF93DF9300D066
:100B600000D000D01F92CDB7DEB7909139038983B2
:100B70001A826B834C835D832E833F8347E050E072
:100B8000BE016F5F7F4F892F80640E9413052796F7
:100B90000FB6F894DEBF0FBECDBFDF91CF910895A1
:100BA000CF93DF93EC0180912E01882331F083E015
:100BB0000E9413051816190634F081E090E09B831B
:100BC0008A8380E090E0DF91CF910895615030F00A
:100BD0002091F100FC0120830196F8CF289A84E649
:100BE000809331020895AF92BF92DF92EF92FF920D
:100BF0000F931F93CF93DF935C018B01EB019BEF6E
:100C0000D92E7E01C134D1051CF080E4E82EF12CF0
:100C10008091E80082FFFCCFC8018C1B9D0B6E2DDC
:100C20008A0D9B1D0E94E605D092E800CE19DF09CF
:100C300041F7C801DF91CF911F910F91FF90EF9085
:100C4000DF90BF90AF900895AF92BF92CF92DF92A6
:100C5000EF92FF920F931F93CF93DF936C017B0171
:100C60008B01040F151FEB015E01AE18BF08C01702
:100C7000D10759F06991D601ED91FC910190F08175
:100C8000E02DC6010995892B79F7C501DF91CF9138
:100C90001F910F91FF90EF90DF90CF90BF90AF909A
:100CA00008958091ED0181110DC082E08093E901EA
:100CB00084E08093EA011092EC011092EB0181E054
:100CC0008093ED0189EE91E008950F931F93CF93E8
:100CD000DF931F92CDB7DEB782E0898342E450E014
:100CE00066E273E080E80E94D7040E945106DC01AE
:100CF00012960D911C910115110589F0D801ED9105
:100D0000FC910280F381E02DBE016F5F7F4FC8012F
:100D1000099597FD04C0F80100851185ECCF898104
:100D20000F90DF91CF911F910F910895CF93DF9393
:100D3000FC01DB01818114963C911497682F630FAD
:100D40007727771F683071059CF5C281D381209782
:100D500039F5B383A283908112969C9312971396D0
:100D60008C93139715968C911597890F808390E03B
:100D700080E0831708F52181C22FD0E0BE016050CA
:100D80007F4F16964D915C911797480F591FEA01B6
:100D90004881EB0148832F5F21830196EACFEA0166
:100DA0004885598541155105D1F7B987A887D3CF13
:100DB00080E0DF91CF91089581E0FBCF0895DC01C1
:100DC000FB0112962C9112978481958128171906A0
:100DD00041F491818081813A31F49D7F81E09130AD
:100DE00009F080E008958132E1F79B3029F4828197
:100DF0001F968C9381E008959A3099F782815096DE
:100E00008C93F8CFAF92BF92CF92DF92EF92FF9286
:100E10000F931F93CF93DF931F92CDB7DEB77C0163
:100E200069836A01590141E050E0BE016F5F7F4F65
:100E3000FC0183810E9413058C0197FD0BC0F70113
:100E40008381A501B60180640E941305080F191F54
:100E500097FD8C01C8010F90DF91CF911F910F91E9
:100E6000FF90EF90DF90CF90BF90AF900895DC019E
:100E7000FB0188E4808389E4818384E482831D9676
:100E80009C911D979F709F5B93831D968D919C9164
:100E900024E0969587952A95E1F78F708F5B848380
:100EA00085E00895EF92FF920F931F93CF93DF9306
:100EB000FB012081213871F52381223259F5DC01B3
:100EC00012964C91248135814217130619F5EC01D5
:100ED0000B851C85F12CE12C0115110589F0F80119
:100EE000448155816281738180E80E94D7048F3FDD
:100EF000980749F0E80EF91ED8010D911C91ECCF2E
:100F000081E08F87C701DF91CF911F910F91FF90F3
:100F1000EF90089590E080E0F6CFCF93DF93CDB7C8
:100F2000DEB769970FB6F894DEBF0FBECDBFFC01E8
:100F3000DB018C918F5F8C939E012D5F3F4F8DE085
:100F4000D9011D928A95E9F729E0298384E08A83F3
:100F500091E09D8383E08E832A8721E22B879C8703
:100F60009D879F8722E2288B27E02B8B25E02C8B07
:100F70008E8B20E430E0388F2F8B998F82818B838A
:100F800095858685998B8A8B838180688D8B49E1D5
:100F900050E0BE016F5F7F4F80E00E94D7046996EA
:100FA0000FB6F894DEBF0FBECDBFDF91CF9108958D
:100FB000CF938091E10181112CC0C1E0C093D40195
:100FC000C093D5018AED91E09093D7018093D6012B
:100FD0001092D9011092D8018CE391E09093D10145
:100FE0008093D0011092DC011092DB011092DE019F
:100FF0001092DD01C093DF01C093E00181EC80938A
:10100000DA010E94510660ED71E00E949606C093DD
:10101000E10180ED91E0CF910895CF93DF93EC0152
:101020000E94D807AE014C5F5F4F28E030E062E0DD
:10103000DF91CF910C9402070F931F93CF93DF930F
:10104000EB018A010E94D8079801AE0164E0DF91AC
:10105000CF911F910F910C9402072091AD01260FA3
:101060003327331F21323105ECF42091A202FC0119
:1010700090E080E0243069F082E00895A091AD0115
:101080002191AC0143575E4FA40FB52FB11D2C9396
:101090000196861798F38091AD01680F6093AD01BA
:1010A00080E0089581E008951092A20281E080938B
:1010B000810210927C0261E082E00E94810361E083
:1010C00083E00E948103E9EBF0E080818E7F8083E2
:1010D00080818D7F808388E48093B80085E480934D
:1010E000BC000895CF93DF9391E090938C01882307
:1010F000B9F0C091B800D091BA008091BC008A7B51
:101100008093BC0060E082E00E94810360E083E0A5
:101110000E9481030E945408D093BA00C093B80083
:10112000DF91CF910895CF92DF92EF92FF920F93CC
:101130001F93CF93C82F813208F096C00E94EB0313
:101140006B017C018091A202811169C081E08093D2
:10115000A202809381029FEF9093800210927F02FF
:101160009C0F90937E0280937D0280917D028C661D
:1011700080937D0280917C02813009F077C01092CB
:101180007C020E94EB036B017C0180917D028093C5
:10119000BB008091A4029091A502A091A602B091FB
:1011A000A702892B8A2B8B2BA1F00E94EB030091C5
:1011B000A4021091A5022091A6023091A7026C19F9
:1011C0007D098E099F09061717072807390708F4B4
:1011D00047C08091BC0083FDD8CF85EC8093BC00D4
:1011E0000E94EB036B017C018091A202813009F423
:1011F0003FC080917F028C1710F4C0917F02ACE554
:10120000B2E0E2E8F2E080E08C1354C08C2FCF9182
:101210001F910F91FF90EF90DF90CF9008958091F4
:10122000A4029091A502A091A602B091A702892BD9
:101230008A2B8B2B09F486CF0E94EB030091A4022A
:101240001091A5022091A6023091A7026C197D0988
:101250008E099F09061717072807390708F072CF6C
:101260008091A3020E947208C0E0D0CF85EEB6CF75
:101270008091A4029091A502A091A602B091A7022C
:10128000892B8A2B8B2B09F4AFCF0E94EB030091A3
:10129000A4021091A5022091A6023091A7026C1918
:1012A0007D098E099F09061717072807390708F0D7
:1012B0009BCFD6CF9D9191938F5FA6CF8F929F9218
:1012C000AF92BF92CF92DF92EF92FF920F931F9354
:1012D000CF93DF93D0915B02D13208F0D7C0182FA3
:1012E000C0915A020E94EB036B017C018091A20223
:1012F00081116BC082E08093A202109381028FEF74
:101300008093800210927F02D0937E02AAE3B2E023
:10131000ECE5F2E080E0D81391C010927D0280915C
:101320007D02CC0FC82BC0937D0280917C0281305E
:1013300009F088C010927C020E94EB036B017C01D3
:1013400080917D028093BB008091A4029091A502C0
:10135000A091A602B091A702892B8A2B8B2BA1F01A
:101360000E94EB030091A4021091A5022091A60215
:101370003091A7026C197D098E099F09061717077E
:101380002807390708F442C08091BC0083FDD8CFFC
:1013900085EC8093BC000E94EB036B017C01809183
:1013A000A202823009F450C0809180028F3F09F47C
:1013B0006FC080918002803209F46CC080918002FD
:1013C000803309F469C084E026C08091A402909122
:1013D000A502A091A602B091A702892B8A2B8B2B84
:1013E00009F484CF0E94EB038090A4029090A502A0
:1013F000A090A602B090A7026C197D098E099F09E2
:1014000086169706A806B90608F070CF8091A30249
:101410000E94720885E01092390210925B021092CD
:101420003802DF91CF911F910F91FF90EF90DF90E5
:10143000CF90BF90AF909F908F9008959D91919382
:101440008F5F69CF85EEA5CF8091A4029091A50210
:10145000A091A602B091A702892B8A2B8B2B09F4AD
:101460009ECF0E94EB030091A4021091A50220914F
:10147000A6023091A7026C197D098E099F090617F3
:1014800017072807390708F08ACFC0CF81E0C3CFFC
:1014900080E0C1CF82E0BFCF83E0BDCF0895E0916F
:1014A000010280910202E81730F4F0E0EE57FD4FA0
:1014B000808190E008958FEF9FEF08959091010251
:1014C000809102022FEF3FEF981748F4E92FF0E0E8
:1014D000EE57FD4F208130E09F5F90930102C901DC
:1014E0000895CF92DF92EF92FF920F931F93CF93C5
:1014F000DF937C01CB018A0120913802222389F0FD
:10150000EB016B01C40ED51ECC15DD0569F06991A8
:10151000D701ED91FC910190F081E02DC701099573
:10152000F3CF642F0E942D08C801DF91CF911F9146
:101530000F91FF90EF90DF90CF900895CF93DF93BE
:101540001F92CDB7DEB76983209138022223F9F0CC
:1015500020915B02203258F021E030E0FC0133831F
:10156000228390E080E00F90DF91CF9108958091E9
:101570003902E82FF0E0E65CFD4F998190838F5FA0
:101580008093390280935B0281E090E0ECCF61E0D0
:10159000CE0101960E942D08F7CF90E080E00895DB
:1015A000823059F020F4813031F060E007C08330A0
:1015B00051F08430D1F760E007C061E080E10E9423
:1015C000810360E005C061E080E10E94810361E089
:1015D00088E00C948103CF93DF93835B9F4FFC01E2
:1015E000C081D0E02097A9F1E2E2F3E090E080E052
:1015F000219131910196232B41F5880F991FFC0110
:10160000E05EFC4FD183C08348E050E062E273E0CB
:1016100080E293E00E941C08E0E2F3E088E293E0BD
:1016200022813381C217D30711F4138212823296BA
:101630008E179F07A9F748E050E062E273E080E26E
:1016400093E0DF91CF910C941C088430910581F6D2
:10165000DBCFDF91CF910895FC014281FB01248112
:10166000358142171306F9F4408131812381413AD3
:1016700071F43130C1F42330B1F4BC01655F7F4FA8
:1016800041E050E080E00E94D70481E008954132BB
:1016900051F4393041F4233031F461E070E00B96BD
:1016A0000E94F305F2CF80E00895FB01808181382C
:1016B00051F48381823239F44AE750E06CEA72E0F7
:1016C00080E80C94D70490E080E00895CF93DF93F6
:1016D000CDB7DEB769970FB6F894DEBF0FBECDBFAA
:1016E000FC01DB019C919F5F9C939E012D5F3F4F0E
:1016F00087E1D9011D928A95E9F729E0298384E0E1
:101700008A8391E09D8383E08E8332E038872A8745
:1017100021E22B8721E12C879D879F8792E2988B7E
:101720009AE7998B97E09B8B95E09C8B8E8B80E45E
:101730008F8B8AE0898F82818B83838180688D8BF8
:1017400049E150E0BE016F5F7F4F80E00E94D70407
:1017500069960FB6F894DEBF0FBECDBFDF91CF9173
:101760000895FC019C01285F3F4F90E080E0448198
:101770004111019614823196E217F307C1F70895DB
:1017800086E093E00E94B10B892B21F086E093E084
:101790000C940D080895CF93DF93DC0190E2960F2F
:1017A0009830B0F414968C91149721E030E001C089
:1017B000220F9A95EAF7442341F0282B14962C9394
:1017C00081E090E0DF91CF91089520952823F6CF16
:1017D000FD0136964423D1F0CD010C96EF012991FD
:1017E000621771F3C817D907D1F790E080E0219113
:1017F000211105C0A80FB91F16966C93E1CF019671
:1018000086309105A1F790E080E0DCCF90E080E0A9
:101810002191621305C0A80FB91F16961C92D0CF54
:10182000019686309105A1F7EECFCF93DF9341E08B
:10183000682F86E093E00E94CB0BEC01892B21F00E
:1018400086E093E00E940D08CE01DF91CF910895CC
:10185000CF92DF92FF920F931F93CF93DF938C0170
:10186000F42EE62FF0E0EE0FFF1FE455FF4FC5907A
:10187000D490D801ED91FC910484F585E02D6C2D78
:10188000C8010995EC01892B11F4F11070C0D0FE4C
:101890000CC0D801ED91FC910484F585E02D4F2D0D
:1018A00060EEC8010995C82BD92BD1FE0CC0D80118
:1018B000ED91FC910484F585E02D4F2D61EEC8017A
:1018C0000995C82BD92BD2FE0CC0D801ED91FC9103
:1018D0000484F585E02D4F2D62EEC8010995C82BD3
:1018E000D92BD3FE0CC0D801ED91FC910484F58571
:1018F000E02D4F2D63EEC8010995C82BD92BD4FEDE
:101900000CC0D801ED91FC910484F585E02D4F2D9C
:1019100064EEC8010995C82BD92BD5FE0CC0D8019F
:10192000ED91FC910484F585E02D4F2D65EEC80105
:101930000995C82BD92BD6FE0CC0D801ED91FC918E
:101940000484F585E02D4F2D66EEC8010995C82B5E
:10195000D92BD7FE0CC0D801ED91FC910484F585FC
:10196000E02D4F2D67EEC8010995C82BD92BCE016C
:10197000DF91CF911F910F91FF90DF90CF9008954D
:10198000FF920F931F93CF93DF93EC01F62E41E06C
:101990000E94280C8C01892BA9F0E881F98102842E
:1019A000F385E02DCE01099540E06F2DCE010E9418
:1019B000280C892B39F0E881F9810284F385E02D28
:1019C000CE010995C801DF91CF911F910F91FF9032
:1019D0000895FC0182818F5BFB01808381E0089583
:1019E0000F931F93CF93DF938C0161E085E00E94FA
:1019F0008103C3E3D2E081E088830E944204600F48
:101A0000711F811D911D69837A838B839C83DF9174
:101A1000CF911F910F910895CF92DF92EF92FF9295
:101A20000F931F93CF93DF93EC0188810E9458039B
:101A300011E0892B09F410E00E9442042B81211748
:101A400029F01B836C837D838E839F830C811D8192
:101A50002E813F816B017C01C01AD10AE20AF30A90
:101A6000970186010931110521053105B0F02B815F
:101A70003A81321791F02A833981332311F031E012
:101A800023273885222301F131110AC021E028875C
:101A900069877A878B879C871D862885222389F111
:101AA0002D8521112EC009851A852B853C85601B4B
:101AB000710B820B930B6C3271408105910508F11B
:101AC00081E08D8783E012C03323D9F01886098521
:101AD0001A852B853C85601B710B820B930B1D8631
:101AE0006C3271408105910550F082E0DF91CF9119
:101AF0001F910F91FF90EF90DF90CF90089581E0BC
:101B0000F5CF80E0F3CFCF9381E08093380286E376
:101B100080935A021092390210925B026EE08AE2C0
:101B200093E00E949E0A81E00E945E0982E00E948A
:101B300093081092010280930202823030F4809167
:101B4000030290910402CF9108958AE293E00E94EB
:101B50005E0AC82F8AE293E00E945E0A20E0822B90
:101B60009C2B9F70F0CFCF93DF93C0911E028330E8
:101B700039F1843059F1823029F082E0C23019F510
:101B800080E021C0C330C9F083E080931E0280EE64
:101B90000E94150CD0911E02DC1701F18D2F0E94BE
:101BA000D00A8CE890E00E94F00CC43099F4D43054
:101BB000A9F0DF91CF910C94C00B10921E02EACFD6
:101BC00084E0C430E9F280931E02E4CF81E0C130AA
:101BD000D1F7D6CFC33011F4D33059F7DF91CF917D
:101BE000089585ED8093BC008091A4029091A50298
:101BF000A091A602B091A7020796A11DB11D23E0F6
:101C0000B695A795979587952A95D1F72091BC0011
:101C100024FD03C01092A20208954091A4025091A5
:101C2000A5026091A6027091A702452B462B472B77
:101C300069F30097A105B10541F02AE22A95F1F771
:101C400000C00197A109B109E1CF8091A3020C94D2
:101C500072081F920F920FB60F9211242F933F9389
:101C60008F939F93AF93BF938091290290912A0203
:101C7000A0912B02B0912C023091280223E0230F77
:101C80002D3758F50196A11DB11D20932802809390
:101C9000290290932A02A0932B02B0932C028091E8
:101CA0002D0290912E02A0912F02B0913002019648
:101CB000A11DB11D80932D0290932E02A0932F029F
:101CC000B0933002BF91AF919F918F913F912F912F
:101CD0000F900FBE0F901F90189526E8230F0296C5
:101CE000A11DB11DD2CF1F920F920FB60F921124DA
:101CF0008F939F938091E1009091E100937F909367
:101D0000E10083FF0FC01092E90091E09093EB0097
:101D10001092EC0092E39093ED001092320298E062
:101D20009093F00082FF22C093E09093E90090919D
:101D3000F200992319F09AE39093E8009091FA0148
:101D4000992341F09091FA0191509093FA019111E9
:101D500001C05D9890913102992341F09091310238
:101D6000915090933102911101C0289884FF18C0BE
:101D70008091E2008E7E81608093E2008091E1009C
:101D80008F7E8093E1008091FB018E7E8061809345
:101D9000FB019F918F910F900FBE0F901F90189590
:101DA00080FFF7CF8091E2008E7E80618093E20019
:101DB0008091E1008E7E8093E1008091FB018E7E18
:101DC0008160E5CF1F920F920FB60F921124CF9230
:101DD000DF92EF92FF920F931F932F933F934F93B6
:101DE0005F936F937F938F939F93AF93BF93EF9383
:101DF000FF93CF93DF93CDB7DEB76C97DEBFCDBF38
:101E00001092E9008091E80083FF25C068E0CE01D0
:101E100045960E94E60582EF8093E8008D8987FF52
:101E200039C09091E80090FFFCCF982F907609F090
:101E300034C19E894F89588D2F89F88C911131C0FA
:101E4000803861F58091FC018093F1001092F100DF
:101E50008EEF8093E8006C960FB6F894DEBF0FBE4D
:101E6000CDBFDF91CF91FF91EF91BF91AF919F9146
:101E70008F917F916F915F914F913F912F911F9122
:101E80000F91FF90EF90DF90CF900F900FBE0F90CB
:101E90001F9018959EEF9093E800C7CF1092F10025
:101EA000D5CF913059F48111D3CF4130510581F60E
:101EB0008091FC018D7F8093FC01CACF933049F45F
:101EC0008111C6CF4130510519F68091FC01826025
:101ED000F2CF953041F48091E80080FFFCCF20687C
:101EE0002093E300B5CF963009F0A9C00B8D1C8D6F
:101EF00022E01092E9001092F8011092F701F2121C
:101F00002EC01092F6011092F5010E9465061F8204
:101F100099E09983FA8291E09E8390EA98879AEFFC
:101F200099872091F7013091F801275F3F4F3C835B
:101F30002B838D831092E9001092F8011092F70123
:101F40001093F6010093F50149E050E0BE016F5F88
:101F50007F4F80E00E94D7040E94650679CF1093DE
:101F6000F6010093F5010E945106DC0112960D91D5
:101F70001C910115110509F44BC1D801ED91FC919B
:101F80000480F581E02DBE016B5E7F4FC80109958D
:101F9000009709F038C1F80100851185EACFF3E018
:101FA000FF120EC08F89882309F440C0823061F48B
:101FB00040E86DE08AE893E00E94A404811148CFD4
:101FC00081E28093EB0047CF813029F440E86BE059
:101FD0008EE793E0F1CF833099F70E945106DC0140
:101FE0001296ED90FC908E010F5F1F4F6801E11477
:101FF000F10479F0D701ED91FC910680F781E02D95
:10200000B801C7010995080F111DF701E084F1849B
:10201000EECFD8011C92F60101900020E9F731972C
:10202000BF016C197D0940E0C601C6CF68E673E0C8
:10203000FB01449150E080E80E94D70409CF97301B
:1020400009F4BECF983021F481E08093F10000CFF5
:10205000993009F0FDCE837009F0B2CFE1E0F1E0F4
:1020600081E031E096E32191222371F08093E90031
:102070003093EB00DF0111972C912093EC009093AB
:10208000ED008F5F873079F78EE78093EA0010923A
:10209000EA008F8980933202DBCE8B8D9C8D10926B
:1020A000E9001092F8011092F7019093F6018093E5
:1020B000F501898D81118CC08E899D89913A49F4F1
:1020C000813209F07DCF47E050E067E271E080E0C7
:1020D000B3CF913209F074CF833269F48F89988D30
:1020E000B0E0A0E08093070190930801A09309015C
:1020F000B0930A01ADCE803239F467E070E087E238
:1021000091E00E94F305A4CE823209F0A1CE8F891E
:1021100080932E01EEEFFFE7859194918B3F9C4DCC
:1021200051F1E0E0F8E08091270190912801A09121
:102130002901B0912A01803B9440A105B105F1F439
:1021400080912E0180FD1AC0EE3F8AE0F80789F5E4
:1021500087E797E791838083809160008093F901FE
:1021600088E19BE00FB6F894A895809360000FBEBD
:10217000909360006DCEEEEFFAE0D5CF8081918133
:102180008737974709F064CEA895809160008861F1
:10219000809360008091F90180936000EE3F2AE017
:1021A000F20789F08091FE0A9091FF0A9183808363
:1021B0004FCE808191818737980751F29093FF0A23
:1021C0008093FE0AC5CF1092FF0A1092FE0A40CEFD
:1021D0000E945106DC0112960D911C91011511050A
:1021E00009F4EECED801ED91FC910190F081E02D43
:1021F000BE016B5E7F4FC8010995811129CEF801A0
:1022000000851185EBCF181619060CF421CED8CE17
:10221000F1E0FF12C4CE6CE673E00ACF1F920F927A
:102220000FB60F9211242F933F934F935F936F93A9
:102230007F938F939F93AF93BF93EF93FF9380917F
:10224000B900887F803609F44AC0F0F5883209F475
:10225000A7C018F5803109F49BC0B8F4882309F4AD
:10226000F9C0883009F494C0FF91EF91BF91AF910C
:102270009F918F917F916F915F914F913F912F919E
:102280000F900FBE0F901F901895883109F488C0E9
:10229000803251F78093800214C0803409F49DC0CD
:1022A00040F48033B9F38833F9F68093800285ECEB
:1022B000B0C0803509F485C0883509F496C08834EB
:1022C00099F60E94F10DD0CF883909F48CC038F509
:1022D000883729F050F4883611F0803729F683E0EA
:1022E0008093A2021092CF0157C0883809F47BC0B6
:1022F000803919F0803809F0B7CF8091CF01803252
:1023000008F071C0E091CF0181E08E0F8093CF0182
:102310008091BB00F0E0E155FE4F80833DC0803BE3
:1023200039F0E0F4803A09F479C0883A09F09CCF9A
:1023300084E08093A2021092AE011092AD01E09170
:10234000FF01F091000209958091AD0181110FC04C
:1023500081E08093AD0110928D0109C0803C09F4A9
:10236000A6CF883C09F4A3CF883B09F07DCFE0914C
:10237000AE0181E08E0F8093AE01F0E0E357FE4F97
:1023800080818093BB009091AE018091AD0129C006
:1023900080917D028093BB0085EC8093BC0064CF6C
:1023A00090917F0280917E02981758F5E0917F020C
:1023B00081E08E0F80937F02F0E0E45AFD4F808130
:1023C000E9CFE0917F0281E08E0F80937F028091C0
:1023D000BB00F0E0E45AFD4F808390917F02809132
:1023E0007E029817C8F285E8D8CFE0917F0281E09D
:1023F0008E0F80937F028091BB00F0E0E45AFD4F86
:1024000080838091810281115CCF81E080937C0286
:1024100084EA8093BC001092A20226CF85EC8093C0
:10242000BC001092A2028091CF01803230F4E09182
:10243000CF01F0E0E155FE4F10826091CF0170E0D6
:10244000E091FD01F091FE018FEA91E00995109273
:10245000CF010ACF1092800234CF1092AB021092BB
:10246000AA0288EE93E0A0E0B0E08093AC029093E3
:10247000AD02A093AE02B093AF0288E491E09093D6
:10248000A9028093A8028FEF9FEF9093B5028093EB
:10249000B40210920903109208038AE591E0909328
:1024A0000703809306038091FE02811113C01092EE
:1024B000F9021092F8028FE194E09093FB0280936E
:1024C000FA028BE390E09093FD028093FC0281E09E
:1024D0008093FE020E94D807FC01A385B485109763
:1024E00009F078C088EF92E0948783878585968588
:1024F0002091FC023091FD02820F931F9687858701
:102500008CE691E09093210380932003809118033F
:10251000811113C010921303109212038AE594E004
:10252000909315038093140389E190E0909317032F
:102530008093160381E0809318030E94D807FC0162
:10254000A385B485109709F050C082E193E0948789
:102550008387858596852091160330911703820F16
:10256000931F9687858710922D0310922C0388EE77
:1025700093E0A0E0B0E080932E0390932F03A0930C
:102580003003B093310382E791E090932B03809363
:102590002A0381E080933A0380933B0320E433E0F5
:1025A00030933D0320933C0310923F0310923E036F
:1025B00024E831E0309337032093360380934103BE
:1025C00081EC809340030E94510666E373E00C9413
:1025D0009606DC018D919C9111970097D1F788EFB9
:1025E00092E08D939C9382CFDC018D919C91119709
:1025F0000097D1F782E193E08D939C93AACF7894D2
:1026000084B5826084BD84B5816084BD85B58260F7
:1026100085BD85B5816085BD80916E0081608093A8
:102620006E00109281008091810082608093810011
:102630008091810081608093810080918000816021
:1026400080938000809191008260809391008091BE
:1026500091008160809391008091900081608093CF
:1026600090008091C10084608093C1008091C1007E
:1026700082608093C1008091C10081608093C1001D
:102680008091C30081608093C3008091C00082600C
:102690008093C0008091C20081608093C2008091CD
:1026A0007A00846080937A0080917A0082608093BF
:1026B0007A0080917A00816080937A0080917A001C
:1026C000806880937A00109232021092FC0110927E
:1026D000FB018091D70081608093D70080EA8093CE
:1026E000D80089B5806189BD89B5826089BD09B48A
:1026F00000FEFDCF61E070E080E090E00E941004F9
:102700008091D8008F7C80618093D8008091E00018
:10271000807F8093E0008091E1008E7E8093E100D5
:102720008DE08093E200559A209A5D98289861E0A8
:1027300080E10E94AF0361E088E00E94AF0361E0A6
:1027400085E00E94AF0360E080E10E94810360E0C9
:1027500088E00E94810360E085E00E94810360E0E0
:1027600085E00E9481038AE08093190181E08093D3
:102770001A0162E08AE00E94AF03809119010E9471
:10278000580321E0892B09F420E020931C012093B9
:102790001B010E94420460931D0170931E018093EF
:1027A0001F0190932001109221011092220110929A
:1027B000230110922401109225011092260189E034
:1027C00080930B0181E080930C0162E089E00E941C
:1027D000AF0380910B010E94580321E0892B09F47B
:1027E00020E020930E0120930D010E94420460938B
:1027F0000F017093100180931101909312011092B8
:1028000013011092140110921501109216011092EA
:1028100017011092180110920102109202021092F8
:10282000390210925B020E94540884E794E090936E
:1028300000028093FF0185E794E09093FE0180936E
:10284000FD010E94830D9093040280930302109275
:1028500005021092060210920702109208021092CE
:10286000090210920A0210920B0210920C021092AE
:10287000120210921302109214021092150210927A
:10288000160210921702109218021092190210925A
:10289000110210920D0210920E0210920F0210926D
:1028A00010020E94EB0360931A0270931B02809344
:1028B0001C0290931D0286E093E00E94B10B86E01B
:1028C00093E00E940D08E2E2F3E088E0DF011D9250
:1028D0008A95E9F748E050E0BF0180E293E00E946A
:1028E0001C0862E370E080E090E00E941004109207
:1028F0001E0280E00E94D00AC2E0D0E061E080E1E8
:102900000E94810361E088E00E94810384E690E0F8
:102910000E94F00C69E670E080E090E00E941004F4
:102920000E944E0460E080E10E94810360E088E044
:102930000E94810364E670E080E090E00E94100451
:10294000219791F4C0E0D0E026E3922E89E191E056
:102950000E940C0D8230F1F0833049F0813059F43F
:1029600081E00E94B30D07C0C1E0D0E0C7CF80E591
:1029700090E00E94F00C8BE091E00E940C0D823000
:1029800009F460C1833041F0813051F483E00E944A
:10299000B30D06C082E0E5CF80E590E00E94F00C28
:1029A0000E944E040E94EB03C0901A02D0901B02BA
:1029B000E0901C02F0901D026C197D098E099F09A0
:1029C000613473408105910508F456C181E080931C
:1029D000380290925A021092390210925B026BE018
:1029E0008AE293E00E949E0A81E00E945E098111C2
:1029F00043C181E00E949308109201028093020279
:102A0000882309F439C18AE293E00E945E0A8F3F6D
:102A100009F432C185FF30C121E4C20E23E0D21E89
:102A2000E11CF11CC0921A02D0921B02E0921C021F
:102A3000F0921D020E94830D409103025091040206
:102A4000481B590B4130A8E05A070CF4FDC0505107
:102A50009093040280930302952F990F990B9A018A
:102A6000492F592F692F792F892FA0900502B090F7
:102A70000602C0900702D0900802E0900902F09090
:102A80000A0200910B0210910C020E94E61820939A
:102A900005023093060240930702509308026093A8
:102AA000090270930A0280930B0290930C02A0908B
:102AB0001202B0901302C0901402D0901502E09060
:102AC0001602F090170200911802109119020E944C
:102AD000E61820931202309313024093140250938D
:102AE0001502609316027093170280931802909358
:102AF0001902E0911102EF5FE0931102EA3008F44D
:102B0000BBC00E94D51720E030E040E251E40E94B3
:102B10002D172B013C0120910D0230910E024091A6
:102B20000F02509110020E94BB166B017C01409273
:102B30000D0250920E0260920F02709210021092DB
:102B400012021092130210921402109215021092A7
:102B50001602109217021092180210921902109287
:102B6000110220E03EEF4FEF56E40E94DB181816EA
:102B70000CF471C020E03EEF4FEF56ECC701B601F8
:102B80000E94281787FF07C0C12C9EEFD92EEE2484
:102B9000EA9496ECF92EC701B6010E949F176115C1
:102BA000710509F060C00E944204C0902402D090D8
:102BB0002502E0902602F09027026C157D058E0517
:102BC0009F0508F459C0C0902002D0902102E090E7
:102BD0002202F090230220E030E0A901C701B601F3
:102BE0000E942817882309F447C020E030E040E81D
:102BF00052E4C701B6010E94DB1887FDA4C08AEE2B
:102C000090E00E94EB0A20E030E040E852E4C70187
:102C1000B6010E94BB16609320027093210280933C
:102C20002202909323020E9442046F5F7F4F8F4FD6
:102C30009F4F609324027093250280932602909305
:102C400027021AC084E0A3CE4115B8EF5B070CF051
:102C5000FFCE505FFDCEC12C8EEFD82EEE24EA942D
:102C600086E4F82E98CF20911E02223009F150F40C
:102C70002223B9F12130E1F1209709F467CE0E94B7
:102C8000000064CE2330E1F02430B1F720911F0220
:102C9000EBEF2111E5E031E0232720931F024427C9
:102CA0005527461B570B30E020E06E2F81E005C012
:102CB0009B0150E040E060E080E00E94AD05DCCF89
:102CC000072E000C880B990B0E94DD1720E030E0E6
:102CD00040EA50E40E942D170E949F17611571056C
:102CE00059F244275527461B570B30E020E0E3CF2D
:102CF000072E000C880B990B0E94DD1720912002F3
:102D00003091210240912202509123020E94BC1670
:102D10006B017C01C0922002D0922102E09222023B
:102D2000F09223020E944204409024025090250217
:102D30006090260270902702641575058605970538
:102D400008F053CF99CF20E030E040E852ECC701C3
:102D5000B6010E94281718160CF48ECF89EE90E069
:102D60000E94EB0A20E030E040E852E4C701B601DF
:102D70000E94BC1650CF5058BB27AA270E94D316DA
:102D80000C94A1180E94931838F00E949A1820F011
:102D900039F49F3F19F426F40C9480180EF4E09552
:102DA000E7FB0C947A18E92F0E94B21858F3BA176F
:102DB000620773078407950720F079F4A6F50C9451
:102DC000D4180EF4E0950B2EBA2FA02D0B01B901EB
:102DD00090010C01CA01A0011124FF27591B99F091
:102DE000593F50F4503E68F11A16F040A22F232F9D
:102DF000342F4427585FF3CF469537952795A795ED
:102E0000F0405395C9F77EF41F16BA0B620B730B93
:102E1000840BBAF09150A1F0FF0FBB1F661F771F04
:102E2000881FC2F70EC0BA0F621F731F841F48F4B9
:102E3000879577956795B795F7959E3F08F0B0CF42
:102E40009395880F08F09927EE0F97958795089529
:102E50000E94561808F481E008950E9441170C94CE
:102E6000A1180E949A1858F00E94931840F029F473
:102E70005F3F29F00C947A1851110C94D5180C94DA
:102E800080180E94B21868F39923B1F3552391F387
:102E9000951B550BBB27AA2762177307840738F0C9
:102EA0009F5F5F4F220F331F441FAA1FA9F335D026
:102EB0000E2E3AF0E0E832D091505040E695001CDA
:102EC000CAF72BD0FE2F29D0660F771F881FBB1F94
:102ED000261737074807AB07B0E809F0BB0B802D72
:102EE000BF01FF2793585F4F3AF09E3F510578F09E
:102EF0000C947A180C94D5185F3FE4F3983ED4F301
:102F0000869577956795B795F7959F5FC9F7880F71
:102F1000911D9695879597F90895E1E0660F771FC3
:102F2000881FBB1F621773078407BA0720F0621B54
:102F3000730B840BBA0BEE1F88F7E09508950E947F
:102F4000A6176894B1110C94D51808950E94BA1868
:102F500088F09F5798F0B92F9927B751B0F0E1F05A
:102F6000660F771F881F991F1AF0BA95C9F714C00A
:102F7000B13091F00E94D418B1E008950C94D418A7
:102F8000672F782F8827B85F39F0B93FCCF3869543
:102F900077956795B395D9F73EF4909580957095A0
:102FA00061957F4F8F4F9F4F089597FB16F40E94B6
:102FB00083180C941918E89409C097FB3EF4909577
:102FC0008095709561957F4F8F4F9F4F9923A9F002
:102FD000F92F96E9BB279395F69587957795679591
:102FE000B795F111F8CFFAF4BB0F11F460FF1BC0D5
:102FF0006F5F7F4F8F4F9F4F16C0882311F096E968
:1030000011C0772321F09EE8872F762F05C0662315
:1030100071F096E8862F70E060E02AF09A95660FCE
:10302000771F881FDAF7880F9695879597F9089587
:10303000E894F92F96EBFF2381F01216130614067D
:10304000440B9395F69587957795679557954040EE
:10305000FF23B9F71BC099270895882351F498508E
:10306000D2F7872B762F652F542F432F322F20E056
:10307000B1F3121613061406440B88233AF09A95FE
:10308000440F551F661F771F881FCAF755234AF440
:10309000440F551F11F460FF04C06F5F7F4F8F4FC7
:1030A0009F4F880F9695879597F90895990F000877
:1030B000550FAA0BE0E8FEEF16161706E807F9070A
:1030C000C0F012161306E407F50798F0621B730BA5
:1030D000840B950B39F40A2661F0232B242B252B26
:1030E00021F408950A2609F4A140A6958FEF811DC9
:1030F000811D089597F99F6780E870E060E008956A
:103100009FEF80EC0895909580957095609550950F
:103110004095309521953F4F4F4F5F4F6F4F7F4FF9
:103120008F4F9F4F089500240A941616170618060D
:103130000906089500240A941216130614060506BB
:103140000895092E0394000C11F4882352F0BB0F4C
:1031500040F4BF2B11F460FF04C06F5F7F4F8F4FAF
:103160009F4F089557FD9058440F551F59F05F3FEA
:1031700071F04795880F97FB991F61F09F3F79F099
:1031800087950895121613061406551FF2CF46951B
:10319000F1DF08C0161617061806991FF1CF86959D
:1031A0007105610508940895E894BB276627772781
:1031B000CB0197F908950E94561808F48FEF0895EF
:1031C000EE0FFF1F0590F491E02D09942A0D3B1D91
:1031D0004C1D5D1D6E1D7F1D801F911F0895F8946D
:0231E000FFCF1F
:1031E20000C18081000000FFFFFFFF00010101001C
:1031F20000000000000000000000010101000000CA
:103202000000000000000000E1000000000000E2F9
:10321200000000000000E9EA00000000DF068D0760
:1032220052073707000000008F02D0050E05A502E5
:10323200F202B002CE0200000000C00C2406CD0A49
:10324200DE06B10B0D08CB0B000000001C080000CD
:1032520000009E0A710ACD0A4E0A6D045E0A4F0AE8
:0C326200000000002C0B660B550BE90C63
:00000001FF
