:100000000C9448020C9470020C9470020C947002D0
:100010000C9470020C9470020C9470020C94700298
:100020000C9470020C9470020C941F100C948E109F
:100030000C9470020C9470020C9470020C94700278
:100040000C9470020C9470020C9470020C94700268
:100050000C9470020C9470020C9470020C94D50FE6
:100060000C9470020C9470020C9470020C94700248
:100070000C9470020C9470020C9470020C94700238
:100080000C9470020C9470020C9470020C94700228
:100090000C94BA120C9470020C9470020C947002BE
:1000A0000C9470020C9470020C947002000000001A
:1000B0000000000000000000000000002A002B00EB
:1000C0002800000000000000000000000000000008
:1000D0000000000000000000000000000000000020
:1000E0000000000000000000000000002C001E02C4
:1000F00034022002210222022402340026022702B6
:1001000025022E0236002D003700380027001E0081
:100110001F002000210022002300240025002600CB
:100120003302330036022E00370238021F02040267
:10013000050206020702080209020A020B020C026B
:100140000D020E020F02100211021202130214021B
:10015000150216021702180219021A021B021C02CB
:100160001D022F003100300023022D023500040053
:10017000050006000700080009000A000B000C003B
:100180000D000E000F0010001100120013001400EB
:10019000150016001700180019001A001B001C009B
:1001A0001D002F0231023002350200000000000065
:1001B000000000000000000000000000000000003F
:1001C000000000000000000000000000000000002F
:1001D000000000000000000000000000000000001F
:1001E000000000000000000000000000000000000F
:1001F00000000000000000000000000000000000FF
:1002000000000000000000000000000000000000EE
:1002100000000000000000000000000000000000DE
:1002200000000000000000000000000000000000CE
:1002300000000000000000000000000000000000BE
:1002400000000000000000000000000000000000AE
:10025000000000000000000000000000000000009E
:10026000000000000000000000000000000000008E
:10027000000000000000000000000000000000007E
:10028000000000000000000000000000000000006E
:10029000000000000000000000000000000000005E
:1002A0000000000000000000000000000600FF0940
:1002B00020A101850575089520B1020921850675E3
:1002C000089504B102C005010902A1010902A102B9
:1002D0000901A1000509190129051500250175016C
:1002E00095058102750395018103050109300931E6
:1002F0001581257F750895028106A1020948150020
:1003000025013501457875029501A4B10209381619
:10031000018026FF7F3500450075108106C0A102CF
:100320000948B4B102350045007504B103050C0A53
:10033000380216018026FF7F75108106C0C0C0C03C
:10034000080B000202020000090400000102020082
:100350000005240010010524010101042402060502
:100360002406000107058103100040090401000272
:100370000A00000007050202400000070583024052
:1003800000000403090412010002EF0201404123AE
:10039000378000010102030141726475696E6F20AC
:1003A0004C4C430041726475696E6F204D696372F5
:1003B0006F0000000000240027002A002D003000FC
:1003C00000000000250028002B002E003100000056
:1003D00000002300260029002C002F000404040440
:1003E00004030405020202020403020202020606DA
:1003F00006060606040402020204040408020110B0
:10040000408040102040804080080204018040204D
:10041000100201108010204040200000000200095E
:100420000F0000030401000C0000000000000000A9
:1004300000000000000000000005010906A1018580
:1004400002050719E029E7150025017501950881C6
:1004500002050C95017508150026FF00190029FFFB
:100460008100050795067508150026E70019002983
:10047000E78100C0050C0901A1018504150026FFD4
:100480000319002AFF03950475108100C000D913D9
:1004900011241FBECFEFDAE0DEBFCDBF11E0A0E038
:1004A000B1E0EAEBF7E302C005900D92AC3AB10778
:1004B000D9F723E0ACEAB1E001C01D92A836B2073B
:1004C000E1F712E0C8E4D2E004C02197FE010E94E7
:1004D000A71AC734D107C9F70E94AB140C94DB1BD1
:1004E0000C940000FC0180915402882311F13FB765
:1004F000F89482E08093E9002091F200822F90E04E
:100500001816190614F481E090E0882339F0289A2F
:1005100044E6409353024091F1004083222339F096
:100520002091F200211103C02BE62093E8003FBF89
:1005300008958FEF9FEF0895CF93DF931F92CDB76C
:10054000DEB76983DC01ED91FC910280F381E02D3F
:1005500041E050E0BE016F5F7F4F09950F90DF9142
:10056000CF91089583E08093E9008091F200882381
:1005700019F08AE38093E8000895CF93DF931F92E8
:10058000CDB7DEB7FC018485958597FD08C02FEFB8
:100590003FEF358724870F90DF91CF910895CE01EB
:1005A00001960E947202019719F4898190E0F3CFBD
:1005B0008FEF9FEFF0CF0F931F93CF93DF931F9297
:1005C000CDB7DEB78C01FC018485958597FF0BC004
:1005D000CE0101960E947202019771F4898190E028
:1005E000F80195878487F801848595850F90DF91C0
:1005F000CF911F910F9108958FEF9FEFF1CFFC01E5
:100600008485958597FD0BC09FB7F89482E0809311
:10061000E9008091F2009FBF90E0019608959FB796
:10062000F89482E08093E9008091F2009FBF90E00F
:10063000089581508F3008F047C0E82FF0E0ED5D5D
:10064000FC4F0C94A71A40034403320338033C03C5
:1006500064036403640347034D03510355035B03C1
:1006600064035F03809180008F77809380000895FA
:10067000809180008F7DF9CF80918000877FF5CFBA
:1006800084B58F7784BD089584B58F7DFBCF80912D
:1006900090008F77809390000895809190008F7DD7
:1006A000F9CF80919000877FF5CF8091C0008F7740
:1006B0008093C00008958091C0008F7DF9CF809114
:1006C000C200877F8093C2000895CF93DF93282FC5
:1006D00030E0F901E65EFB4F8491F901E550FC4FF3
:1006E000D491F901E452FC4FC491CC23A1F08111C3
:1006F0000E941903EC2FF0E0EE0FFF1FE253FC4FB6
:10070000A591B491EC91ED2381E090E009F480E0B3
:10071000DF91CF91089580E090E0FACF1F93CF93BF
:10072000DF93282F30E0F901E65EFB4F8491F90159
:10073000E550FC4FD491F901E452FC4FC491CC2315
:10074000A9F0162F81110E941903EC2FF0E0EE0F93
:10075000FF1FE054FC4FA591B4918FB7F894EC9132
:10076000111108C0D095DE23DC938FBFDF91CF91AC
:100770001F910895DE2BF8CFCF93DF9390E0FC011B
:10078000E550FC4F249184529C4FFC0184918823B6
:10079000C9F090E0880F991FFC01EE54FC4FA59121
:1007A000B491FC01E054FC4FC591D49161110DC08E
:1007B0009FB7F8948C91209582238C93888128236D
:1007C00028839FBFDF91CF910895623051F49FB786
:1007D000F8943C91822F809583238C93E8812E2B73
:1007E000EFCF8FB7F894EC912E2B2C938FBFEACFDD
:1007F0003FB7F89480914F0290915002A09151021E
:10080000B091520226B5A89B05C02F3F19F0019662
:10081000A11DB11D3FBFBA2FA92F982F8827BC015A
:10082000CD01620F711D811D911D42E0660F771F82
:10083000881F991F4A95D1F708958F929F92AF9282
:10084000BF92CF92DF92EF92FF924B015C010E9428
:10085000F8036B017C010E94F8036C197D098E0975
:100860009F09683E734081059105A8F321E0821A33
:100870009108A108B10888EEC80E83E0D81EE11CDB
:10088000F11C81149104A104B10429F7FF90EF90A9
:10089000DF90CF90BF90AF909F908F9008952FB72B
:1008A000F89460914B0270914C0280914D029091AE
:1008B0004E022FBF0895CF93DF93EC01862F6883FC
:1008C00091E0998362E00E94BC0388810E946503E5
:1008D00021E0892B09F420E02B832A830E944F0416
:1008E0006C837D838E839F83188619861A861B8668
:1008F0001C861D86DF91CF9108950F931F938091E1
:10090000C5028823B1F00E944F040091C6021091E5
:10091000C7022091C8023091C902601B710B820B83
:10092000930B97FD06C060E085E00E948E03109255
:10093000C5021F910F910895809124029091230286
:10094000891B990B089508950895409117025091BD
:100950001802209115023091160242175307B4F481
:100960009091E8009570E1F39091E80092FD19C034
:100970008093F100809117029091180201968F7375
:100980009927892B19F48EEF8093E8008091170244
:10099000909118020196909318028093170281E0BB
:1009A000089580E00895EF92FF920F931F93CF93E5
:1009B000DF93F82E192FE62E042F81E0860F880F83
:1009C0000E94A50483E00E94A504CF2DD12FEC0E38
:1009D000FD2EF11CCE15DF05B9F007FF13C0FE0197
:1009E00084910E94A504182F80E00E94A504812311
:1009F00021968111EFCFDF91CF911F910F91FF9041
:100A0000EF9008958881EDCF81E0F5CFDF92EF92EE
:100A1000FF920F931F93CF93DF93D82E8A01EB01A0
:100A20007B01E40EF51ECE15DF0559F0D7FE12C08E
:100A3000FE0184910E94A50421968111F4CF0FEF4D
:100A40001FEFC801DF91CF911F910F91FF90EF90A1
:100A5000DF9008958881EECF2FB7F8948770809348
:100A6000E9009091E800892F807295FF04C0909171
:100A7000F20080E4891B2FBF089583E00E942C05BB
:100A800090E008957F928F929F92AF92BF92CF9203
:100A9000DF92EF92FF920F931F93CF93DF93C82EB5
:100AA0008B017A0180915402811110C08FEF9FEF6A
:100AB000DF91CF911F910F91FF90EF90DF90CF903A
:100AC000BF90AF909F908F907F90089580911B0270
:100AD00080FF05C08091E00082608093E000CE2D11
:100AE000DF2DD12C8AEFB82E8C2D8770982E8C2D6F
:100AF0008072882E8C2D8074782E9AE3A92E2097F0
:100B000019F4DD2009F452C08C2D0E942C058111AE
:100B10000AC0BA94BB2051F261E070E080E090E03E
:100B20000E941D04ECCF8C171D0611F00CF08C2FC9
:100B30009FB7F8949092E9002091E80025FD02C04B
:100B40009FBFDDCF282F30E0C21BD30B882029F0B8
:100B50008150A0F01092F100FBCFF801C7FC0AC051
:100B6000815050F041914093F100FACF449140936D
:100B7000F10031968150D0F7020F131FDD2021F0D4
:100B8000A092E800D12CDCCF8091E80085FD07C061
:100B9000A092E800DD24D394209791F2F3CF209720
:100BA00079F6772069F2A092E800CACF5D9A84E6D0
:100BB00080931A02C7017CCFCF93DF9300D000D07F
:100BC00000D01F92CDB7DEB790915B0389831A8264
:100BD0006B834C835D832E833F8347E050E0BE01EF
:100BE0006F5F7F4F892F80640E94420527960FB662
:100BF000F894DEBF0FBECDBFDF91CF910895CF93A4
:100C0000DF93EC0180913C01882331F083E00E9466
:100C100042051816190634F081E090E09B838A8320
:100C200080E090E0DF91CF910895615030F0209105
:100C3000F100FC0120830196F8CF289A84E6809386
:100C400053020895AF92BF92DF92EF92FF920F93FB
:100C50001F93CF93DF935C018B01EB019BEFD92EA8
:100C60007E01C134D1051CF080E4E82EF12C809186
:100C7000E80082FFFCCFC8018C1B9D0B6E2D8A0DF6
:100C80009B1D0E941506D092E800CE19DF0941F79E
:100C9000C801DF91CF911F910F91FF90EF90DF90EE
:100CA000BF90AF900895AF92BF92CF92DF92EF9234
:100CB000FF920F931F93CF93DF936C017B018B0106
:100CC000040F151FEB015E01AE18BF08C017D10756
:100CD00059F06991D601ED91FC910190F081E02DE0
:100CE000C6010995892B79F7C501DF91CF911F9135
:100CF0000F91FF90EF90DF90CF90BF90AF9008954D
:100D000080910D0281110DC082E08093090284E080
:100D100080930A0210920C0210920B0281E08093E1
:100D20000D0289E092E008950F931F93CF93DF9314
:100D30001F92CDB7DEB782E0898342E450E060E4E1
:100D400073E080E80E9406050E948006DC0112968E
:100D50000D911C910115110589F0D801ED91FC91BF
:100D60000280F381E02DBE016F5F7F4FC8010995BE
:100D700097FD04C0F80100851185ECCF89810F90A3
:100D8000DF91CF911F910F910895CF93DF93FC01D5
:100D9000DB01818114963C911497682F630F7727AC
:100DA000771F683071059CF5C281D381209739F592
:100DB000B383A283908112969C93129713968C937F
:100DC000139715968C911597890F808390E080E09A
:100DD000831708F52181C22FD0E0BE0160507F4FFC
:100DE00016964D915C911797480F591FEA0148815B
:100DF000EB0148832F5F21830196EACFEA01488502
:100E0000598541155105D1F7B987A887D3CF80E01F
:100E1000DF91CF91089581E0FBCF0895DC01FB01C4
:100E200012962C911297848195812817190641F406
:100E300091818081813A31F49D7F81E0913009F088
:100E400080E008958132E1F79B3029F482811F967A
:100E50008C9381E008959A3099F7828150968C9313
:100E6000F8CFAF92BF92CF92DF92EF92FF920F93A3
:100E70001F93CF93DF931F92CDB7DEB77C016983B9
:100E80006A01590141E050E0BE016F5F7F4FFC01F4
:100E900083810E9442058C0197FD0BC0F70183817D
:100EA000A501B60180640E944205080F191F97FD35
:100EB0008C01C8010F90DF91CF911F910F91FF908E
:100EC000EF90DF90CF90BF90AF900895DC01FB01D1
:100ED00088E4808389E4818384E482831D969C91E5
:100EE0001D979F709F5B93831D968D919C9124E02D
:100EF000969587952A95E1F78F708F5B848385E0BF
:100F00000895EF92FF920F931F93CF93DF93FB010E
:100F10002081213871F52381223259F5DC011296A6
:100F20004C91248135814217130619F5EC010B858C
:100F30001C85F12CE12C0115110589F0F801448183
:100F400055816281738180E80E9406058F3F980772
:100F500049F0E80EF91ED8010D911C91ECCF81E00B
:100F60008F87C701DF91CF911F910F91FF90EF9075
:100F7000089590E080E0F6CFCF93DF93CDB7DEB752
:100F800069970FB6F894DEBF0FBECDBFFC01DB0141
:100F90008C918F5F8C939E012D5F3F4F8DE0D90127
:100FA0001D928A95E9F729E0298384E08A8391E0FC
:100FB0009D8383E08E832A8721E22B879C879D87F0
:100FC0009F8722E2288B27E02B8B25E02C8B8E8BB2
:100FD00020E430E0388F2F8B998F82818B83958529
:100FE0008685998B8A8B838180688D8B49E150E05F
:100FF000BE016F5F7F4F80E00E94060569960FB6C5
:10100000F894DEBF0FBECDBFDF91CF910895CF938F
:101010008091010281112CC0C1E0C093F401C09302
:10102000F5018AEF91E09093F7018093F601109219
:10103000F9011092F80180E591E09093F10180931D
:10104000F0011092FC011092FB011092FE0110922F
:10105000FD01C093FF01C093000281EC8093FA016F
:101060000E94800660EF71E00E94C506C0930102F5
:1010700080EF91E0CF910895CF93DF93EC010E9430
:101080000708AE014C5F5F4F28E030E062E0DF917F
:10109000CF910C9431070F931F93CF93DF93EB0104
:1010A0008A010E9407089801AE0164E0DF91CF91A8
:1010B0001F910F910C9431072091CD01260F3327FA
:1010C000331F21323105ECF42091BF02FC0190E086
:1010D00080E0243069F082E00895A091CD01219153
:1010E000AC0143555E4FA40FB52FB11D2C93019653
:1010F000861798F38091CD01680F6093CD0180E051
:10110000089581E008951092BF0281E080939E02CD
:101110001092990261E082E00E948E0361E083E018
:101120000E948E03E9EBF0E080818E7F80838081D6
:101130008D7F808388E48093B80085E48093BC0031
:101140000895CF93DF9391E09093AC018823B9F099
:10115000C091B800D091BA008091BC008A7B809386
:10116000BC0060E082E00E948E0360E083E00E94A9
:101170008E030E948308D093BA00C093B800DF9119
:10118000CF910895CF92DF92EF92FF920F931F932A
:10119000CF93C82F813208F096C00E94F8036B01EC
:1011A0007C018091BF02811169C081E08093BF0200
:1011B00080939E029FEF90939D0210929C029C0F41
:1011C00090939B0280939A0280919A028C668093FE
:1011D0009A0280919902813009F077C010929902A9
:1011E0000E94F8036B017C0180919A028093BB00FE
:1011F0008091C1029091C202A091C302B091C40239
:10120000892B8A2B8B2BA1F00E94F8030091C1023D
:101210001091C2022091C3023091C4026C197D0961
:101220008E099F09061717072807390708F447C0D2
:101230008091BC0083FDD8CF85EC8093BC000E94D8
:10124000F8036B017C018091BF02813009F43FC03B
:1012500080919C028C1710F4C0919C02A9E7B2E027
:10126000EFE9F2E080E08C1354C08C2FCF911F91F6
:101270000F91FF90EF90DF90CF9008958091C10281
:101280009091C202A091C302B091C402892B8A2B13
:101290008B2B09F486CF0E94F8030091C1021091B4
:1012A000C2022091C3023091C4026C197D098E09DB
:1012B0009F09061717072807390708F072CF809192
:1012C000C0020E94A108C0E0D0CF85EEB6CF8091C9
:1012D000C1029091C202A091C302B091C402892BB5
:1012E0008A2B8B2B09F4AFCF0E94F8030091C10227
:1012F0001091C2022091C3023091C4026C197D0981
:101300008E099F09061717072807390708F09BCF92
:10131000D6CF9D9191938F5FA6CF8F929F92AF92E0
:10132000BF92CF92DF92EF92FF920F931F93CF93D2
:10133000DF93D0917802D13208F0D7C0182FC09136
:1013400077020E94F8036B017C018091BF0281113A
:101350006BC082E08093BF0210939E028FEF809358
:101360009D0210929C02D0939B02A7E5B2E0E9E7B0
:10137000F2E080E0D81391C010929A0280919A0214
:10138000CC0FC82BC0939A0280919902813009F04A
:1013900088C0109299020E94F8036B017C01809131
:1013A0009A028093BB008091C1029091C202A091E9
:1013B000C302B091C402892B8A2B8B2BA1F00E940F
:1013C000F8030091C1021091C2022091C302309132
:1013D000C4026C197D098E099F0906171707280793
:1013E000390708F442C08091BC0083FDD8CF85EC5A
:1013F0008093BC000E94F8036B017C018091BF02C6
:10140000823009F450C080919D028F3F09F46FC073
:1014100080919D02803209F46CC080919D028033DE
:1014200009F469C084E026C08091C1029091C20293
:10143000A091C302B091C402892B8A2B8B2B09F493
:1014400084CF0E94F8038090C1029090C202A090C5
:10145000C302B090C4026C197D098E099F098616DB
:101460009706A806B90608F070CF8091C0020E94C6
:10147000A10885E01092560210927802109255024F
:10148000DF91CF911F910F91FF90EF90DF90CF9060
:10149000BF90AF909F908F9008959D9191938F5F93
:1014A00069CF85EEA5CF8091C1029091C202A09133
:1014B000C302B091C402892B8A2B8B2B09F49ECFD7
:1014C0000E94F8030091C1021091C2022091C30250
:1014D0003091C4026C197D098E099F090617170700
:1014E0002807390708F08ACFC0CF81E0C3CF80E05A
:1014F000C1CF82E0BFCF83E0BDCF0895E09123024A
:1015000080912402E81730F4F0E0E156FD4F80812D
:1015100090E008958FEF9FEF0895909123028091BE
:1015200024022FEF3FEF981748F4E92FF0E0E1563F
:10153000FD4F208130E09F5F90932302C901089501
:10154000CF92DF92EF92FF920F931F93CF93DF938F
:101550007C01CB018A0120915502222389F0EB0105
:101560006B01C40ED51ECC15DD0569F06991D7015C
:10157000ED91FC910190F081E02DC7010995F3CF29
:10158000642F0E945C08C801DF91CF911F910F91D9
:10159000FF90EF90DF90CF900895CF93DF931F924D
:1015A000CDB7DEB76983209155022223F9F020914F
:1015B0007802203258F021E030E0FC0133832283AE
:1015C00090E080E00F90DF91CF91089580915602D6
:1015D000E82FF0E0E95AFD4F998190838F5F809367
:1015E00056028093780281E090E0ECCF61E0CE017A
:1015F00001960E945C08F7CF90E080E00895823069
:1016000059F020F4813031F060E007C0833051F0B0
:101610008430D1F760E007C061E080E10E948E0372
:1016200060E005C061E080E10E948E0361E088E037
:101630000C948E03CF93DF938F599F4FFC01C08191
:10164000D0E02097A9F1E4E4F3E090E080E021917C
:1016500031910196232B41F5880F991FFC01EE5B18
:10166000FC4FD183C08348E050E064E473E082E43F
:1016700093E00E944B08E2E4F3E08AE493E02281E5
:101680003381C217D30711F41382128232968E1758
:101690009F07A9F748E050E064E473E082E493E038
:1016A000DF91CF910C944B088430910581F6DBCF0C
:1016B000DF91CF910895FC014281FB0124813581A6
:1016C00042171306F9F4408131812381413A71F4C4
:1016D0003130C1F42330B1F4BC01655F7F4F41E08C
:1016E00050E080E00E94060581E00895413251F407
:1016F000393041F4233031F461E070E00B960E9400
:101700002206F2CF80E00895FB018081813851F4F8
:101710008381823239F44AE750E066EC72E080E877
:101720000C94060590E080E00895CF93DF93CDB749
:10173000DEB769970FB6F894DEBF0FBECDBFFC01D0
:10174000DB019C919F5F9C939E012D5F3F4F87E142
:10175000D9011D928A95E9F729E0298384E08A83DB
:1017600091E09D8383E08E8332E038872A8721E2EF
:101770002B8721E12C879D879F8792E2988B9AE7A0
:10178000998B97E09B8B95E09C8B8E8B80E48F8B65
:101790008AE0898F82818B83838180688D8B49E188
:1017A00050E0BE016F5F7F4F80E00E9406056996A2
:1017B0000FB6F894DEBF0FBECDBFDF91CF91089575
:1017C000FB012181263091F42381223279F4DC015E
:1017D00012962C91848195812817190639F44AE1D3
:1017E00050E06CEA72E080E80C94060590E080E03E
:1017F00008950F931F93CF93DF93CDB7DEB7629712
:101800000FB6F894DEBF0FBECDBFDB012C912F5F6A
:101810002C9337E0FE013396DF01232F1D922A958A
:10182000E9F729E0298344E04A8343E04E83DC0161
:1018300012968C918B833996DF011D923A95E9F7C8
:101840002A8781E28B8781E18C8781E08E8782E223
:101850008F878AE1888B49E050E0BE016F5F7F4F40
:1018600080E00E9406058C0149E050E0BE01665F01
:101870007F4F80E00E940605800F911F62960FB691
:10188000F894DEBF0FBECDBFDF91CF911F910F91B6
:101890000895FC019C01285F3F4F90E080E0448167
:1018A0004111019614823196E217F307C1F70895AA
:1018B00088E293E00E94490C892B21F088E293E0B2
:1018C0000C943C080895CF93DF93DC0190E2960FCF
:1018D0009830B0F414968C91149721E030E001C058
:1018E000220F9A95EAF7442341F0282B14962C9363
:1018F00081E090E0DF91CF91089520952823F6CFE5
:10190000FD0136964423D1F0CD010C96EF012991CB
:10191000621771F3C817D907D1F790E080E02191E1
:10192000211105C0A80FB91F16966C93E1CF01963F
:1019300086309105A1F790E080E0DCCF90E080E078
:101940002191621305C0A80FB91F16961C92D0CF23
:10195000019686309105A1F7EECFCF93DF9341E05A
:10196000682F88E293E00E94630CEC01892B21F040
:1019700088E293E00E943C08CE01DF91CF91089568
:10198000CF92DF92FF920F931F93CF93DF938C013F
:10199000F42EE62FF0E0EE0FFF1FE455FF4FC59049
:1019A000D490D801ED91FC910484F585E02D6C2D47
:1019B000C8010995EC01892B11F4F11070C0D0FE1B
:1019C0000CC0D801ED91FC910484F585E02D4F2DDC
:1019D00060EEC8010995C82BD92BD1FE0CC0D801E7
:1019E000ED91FC910484F585E02D4F2D61EEC80149
:1019F0000995C82BD92BD2FE0CC0D801ED91FC91D2
:101A00000484F585E02D4F2D62EEC8010995C82BA1
:101A1000D92BD3FE0CC0D801ED91FC910484F5853F
:101A2000E02D4F2D63EEC8010995C82BD92BD4FEAC
:101A30000CC0D801ED91FC910484F585E02D4F2D6B
:101A400064EEC8010995C82BD92BD5FE0CC0D8016E
:101A5000ED91FC910484F585E02D4F2D65EEC801D4
:101A60000995C82BD92BD6FE0CC0D801ED91FC915D
:101A70000484F585E02D4F2D66EEC8010995C82B2D
:101A8000D92BD7FE0CC0D801ED91FC910484F585CB
:101A9000E02D4F2D67EEC8010995C82BD92BCE013B
:101AA000DF91CF911F910F91FF90DF90CF9008951C
:101AB000FF920F931F93CF93DF93EC01F62E41E03B
:101AC0000E94C00C8C01892BA9F0E881F981028465
:101AD000F385E02DCE01099540E06F2DCE010E94E7
:101AE000C00C892B39F0E881F9810284F385E02D5F
:101AF000CE010995C801DF91CF911F910F91FF9001
:101B00000895FC0182818F5BFB01808381E0089551
:101B10000F931F93CF93DF938C0161E085E00E94C8
:101B20008E03C5ECD2E081E088830E944F04600FF1
:101B3000711F811D911D69837A838B839C83DF9143
:101B4000CF911F910F9108950895CF92DF92EF9258
:101B5000FF920F931F93CF93DF93EC0188810E9434
:101B6000650311E0892B09F410E00E944F042B81DA
:101B7000211729F01B836C837D838E839F830C81C7
:101B80001D812E813F816B017C01C01AD10AE20ABE
:101B9000F30A970186010931110521053105B0F0DD
:101BA0002B813A81321791F02A833981332311F046
:101BB00031E023273885222301F131110AC021E0C9
:101BC000288769877A878B879C871D8628852223AB
:101BD00089F12D8521112EC009851A852B853C851B
:101BE000601B710B820B930B6C3271408105910568
:101BF00008F181E08D8783E012C03323D9F0188685
:101C000009851A852B853C85601B710B820B930B14
:101C10001D866C3271408105910550F082E0DF91A4
:101C2000CF911F910F91FF90EF90DF90CF9008958B
:101C300081E0F5CF80E0F3CFCF9381E08093550230
:101C400086E38093770210925602109278026EE03B
:101C50008CE493E00E94CD0A81E00E948D0982E02D
:101C60000E94C2081092230280932402823030F432
:101C70008091250290912602CF9108958CE493E003
:101C80000E948D0AC82F8CE493E00E948D0A20E008
:101C9000822B9C2B9F70F0CF0F931F93CF93DF93DA
:101CA000C0914002833009F45EC048F48130A1F154
:101CB0008230B9F1DF91CF911F910F910895843057
:101CC00009F457C004E010E08630A1F761E080E13C
:101CD0000E948E0361E088E00E948E0386E490E01B
:101CE0000E94880D68E770E080E090E00E941D048B
:101CF0000E947D0460E080E10E948E0360E088E045
:101D00000E948E0364E670E080E090E00E941D0473
:101D100001501109D9F60DC082E0C23039F580E0DA
:101D200025C0C330E9F083E08093400280EE0E943A
:101D3000AD0CD0914002DC1709F4BCCF8D2F0E946E
:101D4000FF0A8CE890E00E94880DC430B1F4D430D2
:101D500009F4B0CFDF91CF911F910F910C94580CE3
:101D600010924002E6CF84E0C430C9F28093400272
:101D7000E0CF81E0C130D1F7D2CFC33009F09ACFA4
:101D8000D33041F797CFFC0180E2DF011D928A95A5
:101D9000E9F721E0208380E293E0938382839583B7
:101DA000848397838683918780879387828714862D
:101DB000258782E0868783E0878784E0808B85E0C3
:101DC000818B86E0828B87E0838B148A089585ED72
:101DD0008093BC008091C1029091C202A091C30285
:101DE000B091C4020796A11DB11D23E0B695A79539
:101DF000979587952A95D1F72091BC0024FD03C0C3
:101E00001092BF0208954091C1025091C2026091A8
:101E1000C3027091C402452B462B472B69F30097F0
:101E2000A105B10541F02AE22A95F1F700C001971A
:101E3000A109B109E1CF8091C0020C94A108DF9201
:101E4000EF92FF920F931F93CF93DF93CDB7DEB73F
:101E5000C154D1090FB6F894DEBF0FBECDBFFC014F
:101E60004281FB01248135814217130609F041C0EC
:101E70008C0181819081913A71F58130D1F5838116
:101E80008330B9F582818530A1F58983F8013A96CE
:101E900090E2DE01129601900D929A95E1F741E2EF
:101EA00050E0BE016F5F7F4F80E00E940605892FE2
:101EB0008095881F8827881FCF5BDF4F0FB6F89467
:101EC000DEBF0FBECDBFDF91CF911F910F91FF906D
:101ED000EF90DF900895913261F4893051F483815D
:101EE000833039F48281853069F5868197818197C5
:101EF00010F480E0E1CF61E270E0CE0101960E9433
:101F000022068197B1F78981853099F780E2FE0139
:101F10003296DE01929601900D928A95E1F78A81C0
:101F2000813039F78B81843008F080E08BA380E228
:101F3000FE01B296D8011A9601900D928A95E1F7AA
:101F400081E0BACF8630A9F686819781049788F21E
:101F500064E070E0CE0101960E942206049749F6E3
:101F60008981863031F68A81882339F0813041F7C2
:101F7000C8010A960E94C30EE3CF065F1F4FF12CE3
:101F8000E12CF801D1908F01C7010E946C18D8167E
:101F900021F06D2DC7010E947418FFEFEF1AFF0AA0
:101FA00080E2E816F10469F7CBCF1F920F920FB6CB
:101FB0000F9211242F933F938F939F93AF93BF93CF
:101FC00080914B0290914C02A0914D02B0914E0233
:101FD00030914A0223E0230F2D3758F50196A11DB9
:101FE000B11D20934A0280934B0290934C02A09320
:101FF0004D02B0934E0280914F0290915002A091F9
:102000005102B09152020196A11DB11D80934F0261
:1020100090935002A0935102B0935202BF91AF919E
:102020009F918F913F912F910F900FBE0F901F9016
:10203000189526E8230F0296A11DB11DD2CF1F923D
:102040000F920FB60F9211248F939F938091E1000E
:102050009091E100937F9093E10083FF0FC0109275
:10206000E90091E09093EB001092EC0092E39093E2
:10207000ED001092540298E09093F00082FF22C08D
:1020800093E09093E9009091F200992319F09AE37C
:102090009093E80090911A02992341F090911A02CE
:1020A000915090931A02911101C05D989091530242
:1020B000992341F0909153029150909353029111C2
:1020C00001C0289884FF18C08091E2008E7E816054
:1020D0008093E2008091E1008F7E8093E100809107
:1020E0001B028E7E806180931B029F918F910F90C7
:1020F0000FBE0F901F90189580FFF7CF8091E200E0
:102100008E7E80618093E2008091E1008E7E8093DC
:10211000E10080911B028E7E8160E5CF1F920F92BD
:102120000FB60F921124CF92DF92EF92FF920F938E
:102130001F932F933F934F935F936F937F938F934F
:102140009F93AF93BF93EF93FF93CF93DF93CDB75D
:10215000DEB76C97DEBFCDBF1092E9008091E8003A
:1021600083FF25C068E0CE0145960E94150682EFE8
:102170008093E8008D8987FF39C09091E80090FF37
:10218000FCCF982F907609F034C19E894F89588DE5
:102190002F89F88C911131C0803861F580911C0233
:1021A0008093F1001092F1008EEF8093E8006C961E
:1021B0000FB6F894DEBF0FBECDBFDF91CF91FF9178
:1021C000EF91BF91AF919F918F917F916F915F91AF
:1021D0004F913F912F911F910F91FF90EF90DF90C2
:1021E000CF900F900FBE0F901F9018959EEF909379
:1021F000E800C7CF1092F100D5CF913059F481118A
:10220000D3CF4130510581F680911C028D7F8093A0
:102210001C02CACF933049F48111C6CF4130510519
:1022200019F680911C028260F2CF953041F48091C2
:10223000E80080FFFCCF20682093E300B5CF963004
:1022400009F0A9C00B8D1C8D22E01092E9001092BC
:10225000180210921702F2122EC01092160210925B
:1022600015020E9494061F8299E09983FA8291E0F8
:102270009E8390EA98879AEF998720911702309170
:102280001802275F3F4F3C832B838D831092E90018
:102290001092180210921702109316020093150262
:1022A00049E050E0BE016F5F7F4F80E00E9406056D
:1022B0000E94940679CF10931602009315020E9493
:1022C0008006DC0112960D911C910115110509F48F
:1022D0004BC1D801ED91FC910480F581E02DBE0148
:1022E0006B5E7F4FC8010995009709F038C1F8016E
:1022F00000851185EACFF3E0FF120EC08F89882395
:1023000009F440C0823061F440E86DE084EA93E073
:102310000E94D304811148CF81E28093EB0047CF24
:10232000813029F440E86BE088E993E0F1CF833015
:1023300099F70E948006DC011296ED90FC908E01C8
:102340000F5F1F4F6801E114F10479F0D701ED919F
:10235000FC910680F781E02DB801C7010995080FAF
:10236000111DF701E084F184EECFD8011C92F60133
:1023700001900020E9F73197BF016C197D0940E019
:10238000C601C6CF62E873E0FB01449150E080E8EB
:102390000E94060509CF973009F4BECF983021F48A
:1023A00081E08093F10000CF993009F0FDCE837079
:1023B00009F0B2CFE1E0F1E081E031E096E3219174
:1023C000222371F08093E9003093EB00DF01119735
:1023D0002C912093EC009093ED008F5F873079F77C
:1023E0008EE78093EA001092EA008F89809354026E
:1023F000DBCE8B8D9C8D1092E9001092180210920A
:1024000017029093160280931502898D81118CC05A
:102410008E899D89913A49F4813209F07DCF47E058
:1024200050E065E371E080E0B3CF913209F074CF02
:10243000833269F48F89988DB0E0A0E08093070122
:1024400090930801A0930901B0930A01ADCE8032A8
:1024500039F467E070E085E391E00E942206A4CEA3
:10246000823209F0A1CE8F8980933C01EEEFFFE725
:10247000859194918B3F9C4D51F1E0E0F8E0809183
:10248000350190913601A0913701B0913801803B20
:102490009440A105B105F1F480913C0180FD1AC082
:1024A000EE3F8AE0F80789F587E797E79183808315
:1024B000809160008093190288E19BE00FB6F89448
:1024C000A895809360000FBE909360006DCEEEEFF4
:1024D000FAE0D5CF808191818737974709F064CEA4
:1024E000A8958091600088618093600080911902B6
:1024F00080936000EE3F2AE0F20789F08091FE0AA7
:102500009091FF0A918380834FCE8081918187379C
:10251000980751F29093FF0A8093FE0AC5CF10925C
:10252000FF0A1092FE0A40CE0E948006DC0112963D
:102530000D911C910115110509F4EECED801ED9114
:10254000FC910190F081E02DBE016B5E7F4FC801D0
:102550000995811129CEF80100851185EBCF181658
:1025600019060CF421CED8CEF1E0FF12C4CE66E8F5
:1025700073E00ACF1F920F920FB60F9211242F9380
:102580003F934F935F936F937F938F939F93AF93FB
:10259000BF93EF93FF938091B900887F803609F451
:1025A0004AC0F0F5883209F4A7C018F5803109F463
:1025B0009BC0B8F4882309F4F9C0883009F494C0AA
:1025C000FF91EF91BF91AF919F918F917F916F910B
:1025D0005F914F913F912F910F900FBE0F901F90E1
:1025E0001895883109F488C0803251F780939D0294
:1025F00014C0803409F49DC040F48033B9F38833AB
:10260000F9F680939D0285ECB0C0803509F485C051
:10261000883509F496C0883499F60E94E70ED0CF29
:10262000883909F48CC038F5883729F050F4883699
:1026300011F0803729F683E08093BF021092EF01FA
:1026400057C0883809F47BC0803919F0803809F008
:10265000B7CF8091EF01803208F071C0E091EF01B7
:1026600081E08E0F8093EF018091BB00F0E0E15399
:10267000FE4F80833DC0803B39F0E0F4803A09F49E
:1026800079C0883A09F09CCF84E08093BF02109211
:10269000CE011092CD01E0911F02F0912002099528
:1026A0008091CD0181110FC081E08093CD01109206
:1026B000AD0109C0803C09F4A6CF883C09F4A3CF42
:1026C000883B09F07DCFE091CE0181E08E0F8093B1
:1026D000CE01F0E0E355FE4F80818093BB009091E6
:1026E000CE018091CD0129C080919A028093BB00D8
:1026F00085EC8093BC0064CF90919C0280919B02FA
:10270000981758F5E0919C0281E08E0F80939C020F
:10271000F0E0E758FD4F8081E9CFE0919C0281E035
:102720008E0F80939C028091BB00F0E0E758FD4F34
:10273000808390919C0280919B029817C8F285E853
:10274000D8CFE0919C0281E08E0F80939C02809113
:10275000BB00F0E0E758FD4F808380919E0281111D
:102760005CCF81E08093990284EA8093BC00109250
:10277000BF0226CF85EC8093BC001092BF028091EF
:10278000EF01803230F4E091EF01F0E0E153FE4FD1
:1027900010826091EF0170E0E0911D02F0911E0245
:1027A0008FEC91E009951092EF010ACF10929D02F3
:1027B00034CF1092CD021092CC0288EE93E0A0E0CC
:1027C000B0E08093CE029093CF02A093D002B0935A
:1027D000D10288E691E09093CB028093CA028FEFFA
:1027E0009FEF9093D7028093D60210922B03109202
:1027F0002A038AE791E0909329038093280380912C
:102800002003811113C010921B0310921A0389E355
:1028100094E090931D0380931C038BE390E09093CE
:102820001F0380931E0381E0809320030E9407080A
:10283000FC01A385B485109709F078C08AE193E084
:10284000948783878585968520911E0330911F0389
:10285000820F931F968785878CE891E090934303BE
:102860008093420380913A03811113C01092350383
:102870001092340384E794E09093370380933603F7
:1028800089E190E0909339038093380381E080934D
:102890003A030E940708FC01A385B485109709F04C
:1028A00050C084E393E09487838785859685209143
:1028B000380330913903820F931F968785871092D2
:1028C0004F0310924E0388EE93E0A0E0B0E08093B7
:1028D000500390935103A0935203B093530382E9A2
:1028E00091E090934D0380934C0381E080935C03CF
:1028F00080935D0322E633E030935F0320935E0311
:10290000109261031092600324EA31E0309359037E
:10291000209358038093630381EC809362030E94A9
:10292000800668E573E00C94C506DC018D919C91EE
:1029300011970097D1F78AE193E08D939C9382CF12
:10294000DC018D919C9111970097D1F784E393E07E
:102950008D939C93AACFCF93DF93CDB7DEB7A0978B
:102960000FB6F894DEBF0FBECDBF789484B58260F9
:1029700084BD84B5816084BD85B5826085BD85B523
:10298000816085BD80916E00816080936E001092A1
:10299000810080918100826080938100809181001C
:1029A00081608093810080918000816080938000AD
:1029B000809191008260809391008091910081606C
:1029C000809391008091900081608093900080912D
:1029D000C10084608093C1008091C10082608093B7
:1029E000C1008091C10081608093C1008091C300CB
:1029F00081608093C3008091C00082608093C0009A
:102A00008091C20081608093C20080917A008460CE
:102A100080937A0080917A00826080937A0080911E
:102A20007A00816080937A0080917A008068809338
:102A30007A001092540210921C0210921B02809194
:102A4000D70081608093D70080EA8093D80089B551
:102A5000806189BD89B5826089BD09B400FEFDCF62
:102A600061E070E080E090E00E941D048091D80059
:102A70008F7C80618093D8008091E000807F80937C
:102A8000E0008091E1008E7E8093E1008DE08093F4
:102A9000E200559A209A5D98289861E080E10E94B2
:102AA000BC0361E088E00E94BC0361E085E00E9415
:102AB000BC0360E080E10E948E0360E088E00E9439
:102AC0008E0360E085E00E948E0360E085E00E9456
:102AD0008E036AE087E291E00E945B0469E089E18D
:102AE00091E00E945B0464E08BE091E00E945B0453
:102AF0001092230210922402109256021092780231
:102B00000E94830883EA94E09093200280931F023E
:102B100084EA94E090931E0280931D020E941C0E92
:102B20009093260280932502109227021092280289
:102B30001092290210922A0210922B0210922C025B
:102B400010922D0210922E02109234021092350231
:102B50001092360210923702109238021092390207
:102B600010923A0210923B021092330210922F02FE
:102B70001092300210923102109232020E94F80339
:102B800060933C0270933D0280933E0290933F021B
:102B900088E293E00E94490C88E293E00E943C089E
:102BA000E4E4F3E088E0DF011D928A95E9F748E06C
:102BB00050E0BF0182E493E00E944B0862E370E0C2
:102BC00080E090E00E941D048091210290912202F9
:102BD000892B41F58AE290E00E94B61A4C017C01F3
:102BE000BAE0EB0EF11CFC0114821582F782E6823A
:102BF000118610868CE591E0918380830E94800687
:102C0000B4010E94C50680E2D7011D928A95E9F7BA
:102C100081E0F4018287C7010E94C30E90922202D4
:102C200080922102CE0101960E94C30E10924002B2
:102C300080E00E94FF0A02E010E061E080E10E9473
:102C40008E0361E088E00E948E0384E690E00E949B
:102C5000880D64E670E080E090E00E941D040E9410
:102C60007D0460E080E10E948E0360E088E00E94C5
:102C70008E0364E670E080E090E00E941D04013065
:102C80001105A1F420E0822E20E0922E36E3332EAF
:102C900087E291E00E94A50D8230F1F0833049F087
:102CA000813059F481E00E944C0E07C001E010E031
:102CB000C4CF80E590E00E94880D89E191E00E94F8
:102CC000A50D823009F46EC1833041F0813051F49A
:102CD00083E00E944C0E06C082E0E5CF80E590E0E4
:102CE0000E94880D8BE091E00E94A50D823009F4CE
:102CF0005BC1833021F480E590E00E94880D0E9442
:102D00007D040E94F803C0903C02D0903D02E09008
:102D10003E02F0903F026C197D098E099F096238CE
:102D200076408105910508F45BC181E080935502EE
:102D30003092770210925602109278026BE08CE487
:102D400093E00E94CD0A81E00E948D09811148C163
:102D500081E00E94C20810922302809324028823FB
:102D600009F43EC18CE493E00E948D0A8F3F09F480
:102D700037C185FF35C122E8C20E26E0D21EE11C14
:102D8000F11CC0923C02D0923D02E0923E02F092D1
:102D90003F020E941C0E4091250250912602481BC2
:102DA000590B4130A8E05A070CF402C150519093DE
:102DB000260280932502952F990F990B9A01492F8E
:102DC000592F692F792F892FA0902702B0902802C0
:102DD000C0902902D0902A02E0902B02F0902C02A1
:102DE00000912D0210912E020E94AD1A209327020D
:102DF000309328024093290250932A0260932B02B9
:102E000070932C0280932D0290932E02A090340296
:102E1000B0903502C0903602D0903702E090380270
:102E2000F090390200913A0210913B020E94AD1AD3
:102E30002093340230933502409336025093370288
:102E4000609338027093390280933A0290933B0268
:102E5000E0913302EF5FE0933302EA3008F4C0C040
:102E60000E949C1920E030E040E251E40E94F418F6
:102E70002B013C0120912F02309130024091310210
:102E8000509132020E9482186B017C0140922F0205
:102E900050923002609231027092320210923402EB
:102EA00010923502109236021092370210923802B8
:102EB0001092390210923A0210923B0210923302A1
:102EC00020E03EEF4FEF56E40E94A21A18160CF4D1
:102ED00076C020E03EEF4FEF56ECC701B6010E94EE
:102EE000EF1887FF07C0C12C9EEFD92EEE24EA947D
:102EF00096ECF92EC701B6010E946619AB01611567
:102F0000710509F064C00E944F04009146021091BF
:102F100047022091480230914902601771078207E9
:102F2000930708F45DC0C0904202D0904302E09045
:102F30004402F090450220E030E0A901C701B6014B
:102F40000E94EF18882309F44BC020E030E040E8ED
:102F500052E4C701B6010E94A21A87FDA5C08AEEFD
:102F600090E00E941A0B20E030E040E852E4C701F4
:102F7000B6010E94821860934202709343028093CC
:102F80004402909345020E944F046F5F7F4F8F4F22
:102F90009F4F60934602709347028093480290933C
:102FA00049021EC084E095CE86E00E944C0EA7CE5A
:102FB0004115B8EF5B070CF0FACE505FF8CEC12C8C
:102FC0008EEFD82EEE24EA9486E4F82E93CF20914B
:102FD0004002223029F158F42223D9F02130C9F1DE
:102FE0008114910409F454CE0E94000051CE233084
:102FF000D9F02430A9F720914102EBEF2111E5E04F
:1030000031E023272093410230E020E06E2F81E061
:1030100004C030E020E060E080E00E94DC05E0CF0A
:103020009B0150E040E0F7CF072E000C880B990B76
:103030000E94A41920E030E040EA50E40E94F41815
:103040000E9466196115710559F230E020E0AB016C
:10305000E2CF072E000C880B990B0E94A419209137
:1030600042023091430240914402509145020E9435
:1030700083186B017C01C0924202D0924302E0921D
:103080004402F09245020E944F04009146021091C2
:103090004702209148023091490260177107820768
:1030A000930708F052CF9CCF20E030E040E852EC8C
:1030B000C701B6010E94EF1818160CF491CF89EEE3
:1030C00090E00E941A0B20E030E040E852E4C70193
:1030D000B6010E9483184FCFF999FECF92BD81BDF2
:1030E000F89A992780B50895262FF999FECF1FBA2F
:1030F00092BD81BD20BD0FB6F894FA9AF99A0FBE21
:10310000019608955058BB27AA270E949A180C943C
:10311000681A0E945A1A38F00E94611A20F039F495
:103120009F3F19F426F40C94471A0EF4E095E7FB40
:103130000C94411AE92F0E94791A58F3BA176207C2
:1031400073078407950720F079F4A6F50C949B1A71
:103150000EF4E0950B2EBA2FA02D0B01B9019001B2
:103160000C01CA01A0011124FF27591B99F0593FF6
:1031700050F4503E68F11A16F040A22F232F342F3E
:103180004427585FF3CF469537952795A795F0408C
:103190005395C9F77EF41F16BA0B620B730B840BA1
:1031A000BAF09150A1F0FF0FBB1F661F771F881F59
:1031B000C2F70EC0BA0F621F731F841F48F48795B1
:1031C00077956795B795F7959E3F08F0B0CF9395A3
:1031D000880F08F09927EE0F9795879508950E941C
:1031E0001D1A08F481E008950E9408190C94681AC9
:1031F0000E94611A58F00E945A1A40F029F45F3F69
:1032000029F00C94411A51110C949C1A0C94471AF1
:103210000E94791A68F39923B1F3552391F3951B12
:10322000550BBB27AA2762177307840738F09F5FE7
:103230005F4F220F331F441FAA1FA9F335D00E2E54
:103240003AF0E0E832D091505040E695001CCAF7C1
:103250002BD0FE2F29D0660F771F881FBB1F261784
:1032600037074807AB07B0E809F0BB0B802DBF015B
:10327000FF2793585F4F3AF09E3F510578F00C942A
:10328000411A0C949C1A5F3FE4F3983ED4F3869560
:1032900077956795B795F7959F5FC9F7880F911D4B
:1032A0009695879597F90895E1E0660F771F881F37
:1032B000BB1F621773078407BA0720F0621B730BEA
:1032C000840BBA0BEE1F88F7E09508950E946D19E4
:1032D0006894B1110C949C1A08950E94811A88F088
:1032E0009F5798F0B92F9927B751B0F0E1F0660FCA
:1032F000771F881F991F1AF0BA95C9F714C0B1300B
:1033000091F00E949B1AB1E008950C949B1A672FCC
:10331000782F8827B85F39F0B93FCCF38695779539
:103320006795B395D9F73EF4909580957095619522
:103330007F4F8F4F9F4F089597FB16F40E944A1AB4
:103340000C94E019E89409C097FB3EF490958095A1
:10335000709561957F4F8F4F9F4F9923A9F0F92F5B
:1033600096E9BB279395F695879577956795B795D9
:10337000F111F8CFFAF4BB0F11F460FF1BC06F5FBF
:103380007F4F8F4F9F4F16C0882311F096E911C0D1
:10339000772321F09EE8872F762F05C0662371F0F2
:1033A00096E8862F70E060E02AF09A95660F771F06
:1033B000881FDAF7880F9695879597F90895E8940E
:1033C000F92F96EBFF2381F0121613061406440B17
:1033D0009395F69587957795679557954040FF2388
:1033E000B9F71BC099270895882351F49850D2F754
:1033F000872B762F652F542F432F322F20E0B1F3E8
:10340000121613061406440B88233AF09A95440FBB
:10341000551F661F771F881FCAF755234AF4440FAC
:10342000551F11F460FF04C06F5F7F4F8F4F9F4F98
:10343000880F9695879597F90895990F0008550F6D
:10344000AA0BE0E8FEEF16161706E807F907C0F02A
:1034500012161306E407F50798F0621B730B840B32
:10346000950B39F40A2661F0232B242B252B21F40C
:1034700008950A2609F4A140A6958FEF811D811DAC
:10348000089597F99F6780E870E060E008959FEFE6
:1034900080EC089590958095709560955095409535
:1034A000309521953F4F4F4F5F4F6F4F7F4F8F4F5D
:1034B0009F4F089500240A94161617061806090649
:1034C000089500240A94121613061406050608959A
:1034D000092E0394000C11F4882352F0BB0F40F422
:1034E000BF2B11F460FF04C06F5F7F4F8F4F9F4F62
:1034F000089557FD9058440F551F59F05F3F71F0E4
:103500004795880F97FB991F61F09F3F79F087954A
:103510000895121613061406551FF2CF4695F1DFD3
:1035200008C0161617061806991FF1CF8695710563
:10353000610508940895E894BB2766277727CB0197
:1035400097F908950E941D1A08F48FEF0895EE0F61
:10355000FF1F0590F491E02D09942A0D3B1D4C1D91
:103560005D1D6E1D7F1D801F911F08950F931F937A
:10357000CF93DF938230910510F482E090E0E091E8
:103580006603F091670330E020E0B0E0A0E0309700
:1035900099F42115310509F44AC0281B390B243050
:1035A0003105D8F58A819B816115710589F1FB018F
:1035B00093838283FE0111C0408151810281138176
:1035C00048175907E0F04817590799F4109761F028
:1035D00012960C93129713961C933296CF01DF919B
:1035E000CF911F910F910895009366031093670385
:1035F000F4CF2115310551F04217530738F0A901D6
:10360000DB019A01BD01DF01F801C1CFEF01F9CF64
:103610009093670380936603CDCFFE01E20FF31F03
:10362000819391932250310939832883D7CF2091F8
:10363000640330916503232B41F420913F013091C5
:103640004001309365032093640320913D01309144
:103650003E012115310541F42DB73EB7409141019E
:1036600050914201241B350BE0916403F0916503F6
:10367000E217F307A0F42E1B3F0B2817390778F049
:10368000AC014E5F5F4F2417350748F04E0F5F1FA8
:103690005093650340936403819391939FCFF0E02F
:1036A000E0E09CCFCF93DF930097E9F0FC013297E5
:1036B00013821282A0916603B0916703ED0130E09E
:1036C00020E01097A1F420813181820F931F209177
:1036D0006403309165032817390709F061C0F0933E
:1036E0006503E0936403DF91CF910895EA01CE175B
:1036F000DF07E8F54A815B819E0141155105B1F76D
:10370000E901FB83EA8349915991C40FD51FEC1756
:10371000FD0761F4808191810296840F951FE90174
:1037200099838883828193819B838A83F0E0E0E0A0
:1037300012968D919C9113970097B9F52D913C911C
:103740001197CD010296820F931F2091640330914F
:1037500065032817390739F6309751F5109267033A
:1037600010926603B0936503A0936403BCCFD38328
:10377000C28340815181840F951FC817D90761F416
:103780004E5F5F4F88819981480F591F5183408355
:103790008A819B81938382832115310509F0B0CF03
:1037A000F0936703E09366039ECFFD01DC01C0CF79
:0A37B00013821282D7CFF894FFCFE6
:1037BA0000C18081000000FFFFFFFF00010101003E
:1037CA0000000000000000000000010101000000EC
:1037DA0000000000000000000101010000000000DC
:1037EA00000000000000E100000000000000006886
:1037FA00038000E2000000000000E9EA0000000087
:10380A000E07BC0781076607000000001F0FF90BAF
:10381A00E00B810D000000009C02FF053D05B2028D
:10382A00FF02BD02DB0200000000580D5306FC0A2D
:10383A000D07490C3C08630C000000004B0800000F
:10384A000000CD0AA00AFC0A7D0A9C048D0A7E0AA1
:0C385A00000000005B0B950B840B810D3F
:00000001FF
